:020000040000FA
:0600000000F053EF00F0D8
:10000800FFFF7F82E1CF70F0E2CF71F0D9CF72F0BD
:10001800DACF73F0F3CF74F0F4CF75F0F6CF76F053
:10002800F7CF77F0F8CF78F0F5CF79F0F29E9EA071
:1000380011D07CC0CFFF7DC0CEFF7E2A99EC10F096
:10004800030E7E18D8A404D0000E7E6EE8EC0FF0E4
:10005800FFFF9E90FFFFF2A409D07AC0D7FF7BC0B4
:10006800D6FFC450A0EC0FF0C284F294FFFFF28ECA
:1000780079C0F5FF78C0F8FF77C0F7FF76C0F6FFC4
:1000880075C0F4FF74C0F3FF73C0DAFF72C0D9FF04
:1000980071C0E2FF70C0E1FF7F921100FFFF05EF22
:0200A80011F055
:10060000000D060100466369612E20202533642E0B
:100610002564204D487A0046696A616E646F204601
:100620006369612E2020200053656C656363696FE8
:100630006E6520466369612E00414D50524F202067
:0B0640002020202045582D464D0000D2
:10064C00FFFFC1C0D9FFC2C0DAFFDECFF6FFDDCF9E
:10065C00F7FF0800FFFFF550250AD8A414D1C1C03C
:10066C00D9FFC2C0DAFFDE2A000EDD22000E000127
:10067C00F16F000EF06FF0C0F4F0F1C0F5F0F2691C
:10068C00F369C1C0D9FFC2C0DAFFDECFF6FFDDCF00
:10069C00F7FF0800FFFFF5502A0AD8A423D0C1C0E9
:1006AC00D9FFC2C0DAFFDE2A000EDD22C3C0D9FF9B
:1006BC00C4C0DAFFDFCFC5F0020EDE26DFCFC6F0F6
:1006CC00000EDD22C5C0D9FFC6C0DAFFDECFF0F0C8
:1006DC00DDCFF1F0F1AF46D0F481F06DF11FD8B061
:1006EC00F12B40D0FFFFC1C0D9FFC2C0DAFFDECF73
:1006FC0087F0DDCF88F0EDEC08F087C0F0F088C013
:10070C00F1F008D0FFFFC1C0D9FFC2C0DAFFDE2A6A
:10071C00000EDD22FFFFD00E0001C56FFF0EC66F6D
:10072C00C1C0D9FFC2C0DAFFDECFF6FFDDCFF7FFC5
:10073C000800FFFFF550C76FC86BC551C727C651DE
:10074C00C823C85106E10A0EC75DD8B002D0010E0D
:10075C0002D0FFFF000EFFFFD16FD26BD151D2112F
:10076C00D8A4D0D7FFFFC1C0D9FFC2C0DAFFDECFFB
:10077C00F6FFDDCFF7FF0800FFFFF550640AD8B491
:10078C000ED0C1C0D9FFC2C0DAFFDECFF6FFDDCF7D
:10079C00F7FF0800FFFFF550690AD8A440D0FFFF0F
:1007AC00C1C0D9FFC2C0DAFFDE2A000EDD22C3C0F1
:1007BC00D9FFC4C0DAFFDFCFC5F0020EDE26DFCFD3
:1007CC00C6F0000EDD22C5C0D9FFC6C0DAFFDECFF1
:1007DC00C9F0DDCFCAF0000ECABFFF0ECB6FCC6FD5
:1007EC00CD6FCE6FCF6FD06FBFC09BF0C0C09CF0F1
:1007FC00C9C09DF0CAC09EF0CBC09FF0CCC0A0F089
:10080C00CDC0A1F0CEC0A2F0CFC0A3F0D0C0A4F058
:10081C00A9EC05F09BC0BFF09CC0C0F051D0FFFF0D
:10082C00C1C0D9FFC2C0DAFFDECFF6FFDDCFF7FFC4
:10083C000800FFFFF550250AD8A417D0C1C0D9FF76
:10084C00C2C0DAFFDE2A000EDD22000E816F250EFB
:10085C00806FBFC082F0C0C083F09EEC0EF0FFFF33
:10086C00000E0001C06F010E0BD0FFFFC1C0D9FFFD
:10087C00C2C0DAFFDE2A000EDD22000EC06F000EB1
:10088C00FFFFBF6F1DD0FFFFC1C0D9FFC2C0DAFF91
:10089C00DECFF6FFDDCFF7FF0800FFFFF5500001BC
:1008AC00806F816BBFC082F0C0C083F09EEC0EF0F5
:1008BC00C1C0D9FFC2C0DAFFDE2A000EDD22CFD7BD
:1008CC00FFFF1200FFFFFFFF42C0D9FF43C0DAFF5A
:1008DC00DECFF6FFDDCFF7FF0800FFFFF550250A4E
:1008EC00D8A412D142C0D9FF43C0DAFFDE2A000ED1
:1008FC00DD22000E0001F16F000EF06FF0C0F4F07D
:10090C00F1C0F5F0F269F36942C0D9FF43C0DAFFD8
:10091C00DECFF6FFDDCFF7FF0800FFFFF5502A0A08
:10092C00D8A423D042C0D9FF43C0DAFFDE2A000E80
:10093C00DD2244C0D9FF45C0DAFFDFCF46F0020EFE
:10094C00DE26DFCF47F0000EDD2246C0D9FF47C0C0
:10095C00DAFFDECFF0F0DDCFF1F0F1AF45D0F4816E
:10096C00F06DF11FD8B0F12B3FD0FFFF42C0D9FF83
:10097C0043C0DAFFDECF08F0DDCF09F0A2EC09F0BE
:10098C0008C0F0F009C0F1F008D0FFFF42C0D9FF59
:10099C0043C0DAFFDE2A000EDD22FFFFD00E466ECA
:1009AC00FF0E476E42C0D9FF43C0DAFFDECFF6FF21
:1009BC00DDCFF7FF0800FFFFF550486E496A46503F
:1009CC00482647504922495006E10A0E485CD8B0E7
:1009DC0002D0010E02D0FFFF000EFFFF526E536AD1
:1009EC0052505310D8A4D1D7FFFF42C0D9FF43C0F7
:1009FC00DAFFDECFF6FFDDCFF7FF0800FFFFF55083
:100A0C00640AD8B40ED042C0D9FF43C0DAFFDECF9F
:100A1C00F6FFDDCFF7FF0800FFFFF550690AD8A4F9
:100A2C0040D0FFFF42C0D9FF43C0DAFFDE2A000EE0
:100A3C00DD2244C0D9FF45C0DAFFDFCF46F0020EFD
:100A4C00DE26DFCF47F0000EDD2246C0D9FF47C0BF
:100A5C00DAFFDECF4AF0DDCF4BF0000E4BBEFF0EBF
:100A6C004C6E4D6E4E6E4F6E506E516E40C01CF003
:100A7C0041C01DF04AC01EF04BC01FF04CC020F00E
:100A8C004DC021F04EC022F04FC023F050C024F0D6
:100A9C0051C025F0DFEC06F01CC040F01DC041F049
:100AAC004FD0FFFF42C0D9FF43C0DAFFDECFF6FFC5
:100ABC00DDCFF7FF0800FFFFF550250AD8A416D0AC
:100ACC0042C0D9FF43C0DAFFDE2A000EDD22000E41
:100ADC00026E250E016E40C003F041C004F0F5EC2F
:100AEC000EF0FFFF000E416E010E0BD0FFFF42C057
:100AFC00D9FF43C0DAFFDE2A000EDD22000E416E64
:100B0C00000EFFFF406E1CD0FFFF42C0D9FF43C058
:100B1C00DAFFDECFF6FFDDCFF7FF0800FFFFF55061
:100B2C00016E026A40C003F041C004F0F5EC0EF017
:100B3C0042C0D9FF43C0DAFFDE2A000EDD22D1D736
:100B4C00FFFF1200FFFFFFFF9DC0B5F09EC0B6F087
:100B5C009FC0B7F0A0C0B8F0A1C0B9F0A2C0BAF065
:100B6C00A3C0BBF0A4C0BCF00001BCAF02D0010E0E
:100B7C0002D0FFFF000EFFFFB36FB46BB351B41183
:100B8C00D8B410D0BC1FBB1FBA1FB91FB81FB71FDA
:100B9C00B61FB56D000EB623B723B823B923BA23FD
:100BAC00BB23BC23FFFFF3AFF493F3BF05D0F3518A
:100BBC0009E1F205D8B006D0FFFF000EB06F010EB0
:100BCC00AF6F05D0FFFFF2C0AFF0F3C0B0F0FFFF86
:100BDC00F0C0B1F0F1C0B2F0B351B411D8A402D04E
:100BEC00F4A504D0FFFFB107D8A0B207FFFF000E99
:100BFC00BE6F1F0EBD6F000E01011F6F7ED0FFFF79
:100C0C00BD07D8A0BE07000EBD25D96E010EBE21B2
:100C1C00DA6EB5C080F0B6C081F0B7C082F0B8C053
:100C2C0083F0B9C084F0BAC085F0BBC086F0BCC0FC
:100C3C0087F00A0E886F000E896F000E8A6F000E07
:100C4C008B6F000E8C6F000E8D6F000E8E6F000E72
:100C5C008F6FB2EC0BF080C0A5F081C0A6F082C003
:100C6C00A7F083C0A8F084C0A9F085C0AAF086C004
:100C7C00ABF087C0ACF0A5C092F0A7C093F0ABEC82
:100C8C0013F000019251300FDF6EAF07D8A0B00700
:100C9C00B107D8A0B207B5C080F0B6C081F0B7C01C
:100CAC0082F0B8C083F0B9C084F0BAC085F0BBC084
:100CBC0086F0BCC087F00A0E886F000E896F000E9C
:100CCC008A6F000E8B6F000E8C6F000E8D6F000EF6
:100CDC008E6F000E8F6F55EC0AF080C0B5F081C09E
:100CEC00B6F082C0B7F083C0B8F084C0B9F085C04C
:100CFC00BAF086C0BBF087C0BCF0FFFF0001BEBFDE
:100D0C0020D0BE5103E1BD05D8A01BD0B551B61102
:100D1C00B711B811B911BA11BB11BC11D8A46FD746
:100D2C00B0BF05D0B05102E1AF05D8B068D7FFFF16
:100D3C00B2BF07D0B25103E1B105D8A002D0F4B3D1
:100D4C005ED7FFFFB351B411D8A402D0F4A51AD0CA
:100D5C00FFFFBD07D8A0BE07B351B411D8A404D06F
:100D6C00000EAE6F2B0E04D0FFFF000EAE6F2D0EDB
:100D7C00FFFFAD6F000EBD25D96E010EBE21DA6EE0
:100D8C00ADC0DFFFFFFF9BC090F09CC091F0000E48
:100D9C00BD25926F010EBE21936FB1C094F0B2C00D
:100DAC0095F047EC0EF090C09BF091C09CF01200B7
:100DBC00FFFFFFFF1EC036F01FC037F020C038F019
:100DCC0021C039F022C03AF023C03BF024C03CF0E3
:100DDC0025C03DF03DAE02D0010E02D0FFFF000E4B
:100DEC00FFFF346E356A34503510D8B410D03D1E28
:100DFC003C1E3B1E3A1E391E381E371E366C000E2A
:100E0C003722382239223A223B223C223D22FFFF54
:100E1C000001F3AFF493F3BF05D0F35109E1F205F0
:100E2C00D8B006D0FFFF000E316E010E306E05D02B
:100E3C00FFFFF2C030F0F3C031F0FFFFF0C032F032
:100E4C00F1C033F034503510D8A402D0F4A504D03E
:100E5C00FFFF3206D8A03306FFFF000E3F6E1F0EB9
:100E6C003E6E000E01011F6F7DD0FFFF3E06D8A025
:100E7C003F06000E3E24D96E010E3F20DA6E36C0BE
:100E8C0001F037C002F038C003F039C004F03AC0AA
:100E9C0005F03BC006F03CC007F03DC008F00A0E60
:100EAC00096E000E0A6E000E0B6E000E0C6E000E1C
:100EBC000D6E000E0E6E000E0F6E000E106E4FECCF
:100ECC000CF001C026F002C027F003C028F004C0CB
:100EDC0029F005C02AF006C02BF007C02CF008C082
:100EEC002DF026C013F028C014F0E9EC13F01350C9
:100EFC00300FDF6E3006D8A031063206D8A033068C
:100F0C0036C001F037C002F038C003F039C004F02D
:100F1C003AC005F03BC006F03CC007F03DC008F0FD
:100F2C000A0E096E000E0A6E000E0B6E000E0C6E91
:100F3C00000E0D6E000E0E6E000E0F6E000E106E7B
:100F4C0004EC0BF001C036F002C037F003C038F0EF
:100F5C0004C039F005C03AF006C03BF007C03CF0C5
:100F6C0008C03DF0FFFF3FBE21D03F5003E13E04DF
:100F7C00D8A01CD036503710381039103A103B100E
:100F8C003C103D10D8A471D731BE05D0315002E1D0
:100F9C003004D8B06AD7FFFF33BE08D0335003E11A
:100FAC003204D8A003D00001F4B35FD7FFFF345054
:100FBC003510D8A403D00001F4A51AD0FFFF3E06CB
:100FCC00D8A03F0634503510D8A404D0000E2F6E94
:100FDC002B0E04D0FFFF000E2F6E2D0EFFFF2E6E7A
:100FEC00000E3E24D96E010E3F20DA6E2EC0DFFFBC
:100FFC00FFFF1CC011F01DC012F0000E3E24136E3A
:10100C00010E3F20146E32C015F033C016F04BECBD
:10101C000FF011C01CF012C01DF01200FFFFFFFFFB
:10102C00310E0001DB6F010EDC6F280EDD6F060E3A
:10103C00DE6FF5EC11F0000E0001876FC80E866FA5
:10104C00C9EC11F0FFFF82A0FDD7FFFF82B24AD09E
:10105C00380E0001F65D040EF759D8B002D0F64BED
:10106C00F72BFFFF390EF65D040EF759D8A004D00C
:10107C00040EF76F380EF66FFFFF000E876F640ECD
:10108C00866FC9EC11F0060E0001EA6FB60EE96F1F
:10109C00F80EFFFFE82EFDD7E92FFBD7EA2FF9D783
:1010AC0000D000F01CD0FFFF380E0001F65D040EDE
:1010BC00F759D8B002D0F64BF72BFFFF390EF65D7F
:1010CC00040EF759D8A004D0040EF76F380EF66F43
:1010DC00FFFF000E876F640E866FC9EC11F0FFFFE7
:1010EC0082A2E1D7FFFF82B44CD0710E0001F65DF5
:1010FC00030EF759D8A003D0F607D8A0F707FFFFC7
:10110C00700EF65D030EF759D8B004D0030EF76FCE
:10111C00700EF66FFFFF000E876F640E866FC9ECC2
:10112C0011F0060E0001EA6FB60EE96FF80EFFFF24
:10113C00E82EFDD7E92FFBD7EA2FF9D700D000F026
:10114C001DD0FFFF710E0001F65D030EF759D8A0FC
:10115C0003D0F607D8A0F707FFFF700EF65D030E5D
:10116C00F759D8B004D0030EF76F700EF66FFFFF6F
:10117C00000E876F640E866FC9EC11F0FFFF82A41E
:10118C00E0D7FFFF82B061D7060E0001EA6FB60E02
:10119C00E96FF80EFFFFE82EFDD7E92FFBD7EA2FFA
:1011AC00F9D700D000F082B050D7010E25EC10F02A
:1011BC00030E0001876FE80E866FC9EC11F0F6C0C4
:1011CC0082F0F7C083F0E4EC0DF01200FFFFFFFF9C
:1011DC00000E0001956F000E946F000E8E6F000EC6
:1011EC008D6F03D0FFFF874B882BFFFF010E936F92
:1011FC0087C0F6FF88C0F7FF0800FFFFF550200AF4
:10120C00D8B419D0F70E896FFF0E8A6F87C0F6FF1E
:10121C0088C0F7FF0800FFFFF5508B6F8C6B89516E
:10122C008B278A518C238C5104E1050E8B5DD8A041
:10123C0002D0000E936FFFFF93C08FF0906B8F5115
:10124C009011D8B40AD0CED7FFFF000E8E6F010ECE
:10125C008D6FFFFF874B882B33D0FFFF87C0F6FFC6
:10126C0088C0F7FF0800FFFFF550896F8A6B8A5121
:10127C00000AD8A425D089512B0AD8B4EAD7060A7B
:10128C00D8B4E2D71DD0FFFF94C080F095C081F098
:10129C00000E836F0A0E826FA7EC14F087C0F6FF66
:1012AC0088C0F7FF0800FFFFF5500001805F000EBB
:1012BC00815B300E8025946F000E8121956FC9D70C
:1012CC00FFFFD00E896FFF0E8A6F87C0F6FF88C0B4
:1012DC00F7FF0800FFFFF5508B6F8C6B89518B2744
:1012EC008A518C238C5106E10A0E8B5DD8B002D04A
:1012FC00010E02D0FFFF000EFFFF916F926B915118
:10130C009211D8A4C0D78D518E11D8A40DD094C0F1
:10131C0089F095C08AF0891F8A1F894B8A2B89C056
:10132C0087F08AC088F005D0FFFF94C087F095C085
:10133C0088F0FFFF1200FFFFFFFF000E166E000E7D
:10134C00156E000E0F6E000E0E6E03D0FFFF084AD6
:10135C00092AFFFF010E146E08C0F6FF09C0F7FF43
:10136C000800FFFFF550200AD8B419D0F70E0A6E0A
:10137C00FF0E0B6E08C0F6FF09C0F7FF0800FFFF59
:10138C00F5500C6E0D6A0A500C260B500D220D50A8
:10139C0004E1050E0C5CD8A002D0000E146EFFFF09
:1013AC0014C010F0116A10501110D8B40AD0CED756
:1013BC00FFFF000E0F6E010E0E6EFFFF084A092A8A
:1013CC0032D0FFFF08C0F6FF09C0F7FF0800FFFF8F
:1013DC00F5500A6E0B6A0B50000AD8A424D00A50A0
:1013EC002B0AD8B4EAD7060AD8B4E2D71CD0FFFF30
:1013FC0015C001F016C002F0000E046E0A0E036E4A
:10140C00D3EC14F008C0F6FF09C0F7FF0800FFFF8B
:10141C00F550015E000E025A300E0124156E000EBE
:10142C000220166ECAD7FFFFD00E0A6EFF0E0B6E8F
:10143C0008C0F6FF09C0F7FF0800FFFFF5500C6E5F
:10144C000D6A0A500C260B500D220D5006E10A0EA7
:10145C000C5CD8B002D0010E02D0FFFF000EFFFFD3
:10146C00126E136A12501310D8A4C1D70E500F105D
:10147C00D8A40DD015C00AF016C00BF00A1E0B1E16
:10148C000A4A0B2A0AC008F00BC009F005D0FFFF6E
:10149C0015C008F016C009F0FFFF1200FFFFFFFF98
:1014AC00000E0001916F8FAF12D08F1F8E1F8D1FFA
:1014BC008C1F8B1F8A1F891F886D000E89238A231E
:1014CC008B238C238D238E238F23010E916FFFFF93
:1014DC0087AF12D0871F861F851F841F831F821F13
:1014EC00811F806D000E8123822383238423852317
:1014FC0086238723010E911BFFFF20EE92F0070E2F
:10150C00DE6AE806FDE2885189118A118B118C1173
:10151C008D118E118F11D8B44AD0010E906F0BD053
:10152C00FFFFD890883789378A378B378C378D37C0
:10153C008E378F37902BFFFF8FAFF2D7FFFFD890EE
:10154C00923793379437953796379737983799372B
:10155C008851805D895181598A5182598B518359A7
:10156C008C5184598D5185598E5186598F5187597B
:10157C00D8A011D08851805F8951815B8A51825BE0
:10158C008B51835B8C51845B8D51855B8E51865B5B
:10159C008F51875B9281FFFFD8908F338E338D33C1
:1015AC008C338B338A3389338833902FC7D7FFFF23
:1015BC009151D8B410D0991F981F971F961F951F43
:1015CC00941F931F926D000E9323942395239623BF
:1015DC00972398239923FFFF92C080F093C081F04A
:1015EC0094C082F095C083F096C084F097C085F0CB
:1015FC0098C086F099C087F01200FFFFFFFF000E25
:10160C00126E10AE12D0101E0F1E0E1E0D1E0C1ED2
:10161C000B1E0A1E096C000E0A220B220C220D2234
:10162C000E220F221022010E126EFFFF08AE12D0F6
:10163C00081E071E061E051E041E031E021E016C3C
:10164C00000E02220322042205220622072208226F
:10165C00010E121AFFFF20EE13F0070EDE6AE806E9
:10166C00FDE209500A100B100C100D100E100F108B
:10167C001010D8B44AD0010E116E0BD0FFFFD890C9
:10168C0009360A360B360C360D360E360F3610363A
:10169C00112AFFFF10AEF2D7FFFFD8901336143685
:1016AC00153616361736183619361A360950015CA7
:1016BC000A5002580B5003580C5004580D50055842
:1016CC000E5006580F50075810500858D8A011D07B
:1016DC000950015E0A50025A0B50035A0C50045A1E
:1016EC000D50055A0E50065A0F50075A1050085AF2
:1016FC001380FFFFD89010320F320E320D320C32A5
:10170C000B320A320932112EC7D7FFFF1250D8B450
:10171C0010D01A1E191E181E171E161E151E141E6A
:10172C00136C000E142215221622172218221922CD
:10173C001A22FFFF13C001F014C002F015C003F011
:10174C0016C004F017C005F018C006F019C007F059
:10175C001AC008F01200FFFFFFFF000E0001916F8E
:10176C0087AF12D0871F861F851F841F831F821F80
:10177C00811F806D000E8123822383238423852384
:10178C0086238723010E916FFFFF8FAF10D08F1F21
:10179C008E1F8D1F8C1F8B1F8A1F891F886D000E3B
:1017AC0089238A238B238C238D238E238F23FFFF66
:1017BC00885189118A118B118C118D118E118F11F9
:1017CC00D8B440D0010E906F0BD0FFFFD890883763
:1017DC0089378A378B378C378D378E378F37902BED
:1017EC00FFFF8FAFF2D7FFFF8851805D8951815980
:1017FC008A5182598B5183598C5184598D518559F9
:10180C008E5186598F518759D8A010D08851805F3E
:10181C008951815B8A51825B8B51835B8C51845BD8
:10182C008D51855B8E51865B8F51875BFFFFD89006
:10183C008F338E338D338C338B338A3389338833A8
:10184C00902FD1D7FFFF9151D8B410D0871F861F8E
:10185C00851F841F831F821F811F806D000E8123B3
:10186C00822383238423852386238723FFFF80C041
:10187C0080F081C081F082C082F083C083F084C08C
:10188C0084F085C085F086C086F087C087F0120092
:10189C00FFFFFFFF000E126E08AE12D0081E071ECF
:1018AC00061E051E041E031E021E016C000E0222E3
:1018BC00032204220522062207220822010E126EA0
:1018CC00FFFF10AE10D0101E0F1E0E1E0D1E0C1E94
:1018DC000B1E0A1E096C000E0A220B220C220D2272
:1018EC000E220F221022FFFF09500A100B100C10B1
:1018FC000D100E100F101010D8B440D0010E116E38
:10190C000BD0FFFFD89009360A360B360C360D3645
:10191C000E360F361036112AFFFF10AEF2D7FFFF2E
:10192C000950015C0A5002580B5003580C500458D3
:10193C000D5005580E5006580F50075810500858A7
:10194C00D8A010D00950015E0A50025A0B50035A0D
:10195C000C50045A0D50055A0E50065A0F50075A87
:10196C001050085AFFFFD89010320F320E320D3241
:10197C000C320B320A320932112ED1D7FFFF125022
:10198C00D8B410D0081E071E061E051E041E031E0A
:10199C00021E016C000E02220322042205220622E2
:1019AC0007220822FFFF01C001F002C002F003C0B1
:1019BC0003F004C004F005C005F006C006F007C033
:1019CC0007F008C008F01200FFFFFFFF0001826F54
:1019DC000F0E83160F0E95169594959695928394EB
:1019EC008396839214EC15F0300EBBEC12F00F0EB4
:1019FC000001816F9D0EFFFFE82EFDD7812FFBD7D5
:101A0C0000D000F0300EBBEC12F0030E0001816F21
:101A1C00EB0EFFFFE82EFDD7812FFBD700D000F097
:101A2C00320EBBEC12F0FFFFF7EC14F00009D8A457
:101A3C00FAD7FFFFF7EC14F00009D8A4FAD700018D
:101A4C008251BBEC12F0FFFFF7EC14F00009D8A4A4
:101A5C00FAD7080EBBEC12F0FFFFF7EC14F00009FC
:101A6C00D8A4FAD70F0EBBEC12F0FFFFF7EC14F072
:101A7C000009D8A4FAD7010EBBEC12F0FFFFF7EC6B
:101A8C0014F00009D8A4FAD7050EBBEC12F0FFFF36
:101A9C00F7EC14F00009D8A4FAD7060EBBEC12F040
:101AAC00FFFFF7EC14F00009D8A4FAD7800E96ECDF
:101ABC0012F0FFFFF7EC14F00009D8A4FAD70D0EC2
:101ACC00BBEC12F01200FFFFFFFF000E0001ED6FE8
:101ADC00809A020E0001EC6F250EEB6F630EFFFF78
:101AEC00E82EFDD7EB2FFBD7EC2FF9D700F0CAEC83
:101AFC0013F0D0EC10F0000E0001876F0A0E866F09
:101B0C00C9EC11F082B00DD04A0E0001EB6F180E2B
:101B1C00FFFFE82EFDD7EB2FFBD700F082A015ECD2
:101B2C0008F0FFFF000E0001876F640E866FC9EC92
:101B3C0011F0FFFF310E0001DB6F010EDC6F170E91
:101B4C00DD6F060EDE6FF5EC11F0020E0001EC6F8E
:101B5C00080EEB6F250EFFFFE82EFDD7EB2FFBD702
:101B6C00EC2FF9D700D000F00001ED2B310EED6514
:101B7C00E0D7310EDB6F010EDC6F390EDD6F060E18
:101B8C00DE6FF5EC11F0FFFF0001F805D8A402D0D0
:101B9C00808A02D0FFFF809AFFFFF6C082F0F7C068
:101BAC0083F0E4EC0DF01E0E0001EB6F3C0EFFFF1A
:101BBC00E82EFDD7EB2FFBD700F0E5D7FFFF82C057
:101BCC0080F083C081F006EC15F080C087F081C0F6
:101BDC0088F08480030E0001846FEB0EFFFFE82E6B
:101BEC00FDD7842FFBD700D000F0000E00018B6FC7
:101BFC00FFFF8BC084F087C085F088C086F0842BF3
:101C0C0004D0FFFFD89086338533FFFF842FF9D79C
:101C1C00010E00018515896F8A6B89058A11D8A47C
:101C2C0002D0848402D0FFFF8494FFFF030E0001D6
:101C3C00846FEB0EFFFFE82EFDD7842FFBD700D06F
:101C4C0000F08482030E0001846FEB0EFFFFE82E80
:101C5C00FDD7842FFBD700D000F0849200018B2B92
:101C6C000F0E8B65C5D7030E0001846FEB0EFFFFC3
:101C7C00E82EFDD7842FFBD700D000F08490120003
:101C8C00FFFFFFFF0001F4A10AD092C089F093C0BE
:101C9C008AF090C08BF091C08CF0DFEC12F0FFFF5B
:101CAC00000195BF05D094C099F095C09AF005D06D
:101CBC00FFFF000E9A6F000E996FFFFF000E986FDA
:101CCC00000E976F0ED0FFFF000E816F200E806FFD
:101CDC0090C082F091C083F09EEC0EF00001974B07
:101CEC00982BFFFF9951975D9851800A966F9A51E6
:101CFC00800A9659D8A0E7D7F4B10AD092C089F0DF
:101D0C0093C08AF090C08BF091C08CF0DFEC12F095
:101D1C00FFFF92C080F093C081F05CEC14F00001E6
:101D2C0099518025906F9A518121916F1200FFFF7C
:101D3C00FFFF000182518311D8B404D0825183116A
:101D4C00D8A405D0FFFF805149EC15F045D0FFFF1A
:101D5C0020EE04F08251D9268351DA22DE50DE10B7
:101D6C00D8B416D020EE04F08251D9268351DA2251
:101D7C0010EE02F08251E1268351E222DE50E65C45
:101D8C00E650800A886FDE50800A8859D8B024D07B
:101D9C00FFFF20EE02F08251D9268351DA22DECFEA
:101DAC0084F0DDCF85F082C0D9FF83C0DAFFDECFAF
:101DBC0086F0DDCF87F084518625D96E8551872139
:101DCC00DA6E80C0DFFF20EE02F08251D9268351FB
:101DDC00DA22DE2A000EDD22FFFF1200FFFFFFFFDA
:101DEC0003500410D8B404D003500410D8A405D068
:101DFC00FFFF01504CEC15F045D0FFFF20EE04F036
:101E0C000350D9260450DA22DE50DE10D8B416D096
:101E1C0020EE04F00350D9260450DA2210EE02F022
:101E2C000350E1260450E222DE50E65CE650800AC4
:101E3C00096EDE50800A0958D8B024D0FFFF20EE7E
:101E4C0002F00350D9260450DA22DECF05F0DDCFA4
:101E5C0006F003C0D9FF04C0DAFFDECF07F0DDCFF8
:101E6C0008F005500724D96E06500820DA6E01C020
:101E7C00DFFF20EE02F00350D9260450DA22DE2ACE
:101E8C00000EDD22FFFF1200FFFFFFFF0001F4A197
:101E9C000AD013C00AF014C00BF011C00CF012C021
:101EAC000DF069EC13F0FFFF16BE05D015C01AF04B
:101EBC0016C01BF005D0FFFF000E1B6E000E1A6E35
:101ECC00FFFF000E196E000E186E0DD0FFFF000EF6
:101EDC00026E200E016E11C003F012C004F0F5EC7E
:101EEC000EF0184A192AFFFF1A50185C1950800A74
:101EFC00176E1B50800A1758D8A0E8D70001F4B110
:101F0C000AD013C00AF014C00BF011C00CF012C0B0
:101F1C000DF069EC13F0FFFF13C001F014C002F0D8
:101F2C0077EC14F01A500124116E1B500220126E23
:101F3C001200FFFFFFFF056E000E046EC70E056456
:101F4C0002D0080E29D0FFFF7C0E056402D0070ECC
:101F5C0023D0FFFF4A0E056402D0060E1DD0FFFFF2
:101F6C003B0E056402D0050E17D0FFFF2C0E056446
:101F7C0002D0040E11D0FFFF0E0E056402D0030E2A
:101F8C000BD0FFFF040E056402D0020E05D0FFFF3C
:101F9C000550D8B403D0010EFFFF046EFFFF04C040
:101FAC0001F0800E026EFF0E036E012A04D0FFFFBB
:101FBC00D89003320232FFFF012EF9D70250816E06
:101FCC001200FFFFFFFFF6C001F0F7C002F0000E99
:101FDC00046E0A0E036E99EC11F001506E6EF6C091
:101FEC0001F0F7C002F0000E046E0A0E036E49EC0D
:101FFC0012F001506F6E200E5C6E010E5D6E050EC0
:10200C005E6E060E5F6E6EC060F0616A6FC062F04D
:10201C00636A20EC12F0000E47EC13F0310E026EE6
:10202C00010E036E40EC14F0400E47EC13F0200E42
:10203C00026E010E036E40EC14F01200FFFFFFFF66
:10204C000001846FF6C082F00001F751836F845158
:10205C00D8B405D0000E806F825190EC14F0FFFFC5
:10206C0000018451D8B405D0010E806F835190ECDF
:10207C0014F0FFFF020E0001806FFF5190EC14F082
:10208C00030E0001806FFE5190EC14F0040E000161
:10209C00806FFD5190EC14F0050E0001806FFC5127
:1020AC0090EC14F0060E0001806FF85190EC14F0D7
:1020BC001200FFFFFFFF056EF6C003F00001F751A1
:1020CC00046E0550D8B405D0000E016E0350BDEC63
:1020DC0014F0FFFF0550D8B405D0010E016E04506A
:1020EC00BDEC14F0FFFF020E016E0001FF51BDECC0
:1020FC0014F0030E016E0001FE51BDEC14F0040E41
:10210C00016E0001FD51BDEC14F0050E016E0001D5
:10211C00FC51BDEC14F0060E016E0001F851BDEC43
:10212C0014F01200FFFFFFFF0001F92B090EF965F7
:10213C002ED0000EF96FFA2B3B0EFA6528D0000E4C
:10214C00FA6FFC2B000E60EC10F03B0E0001FC65EE
:10215C001ED0000EFC6FFD2B170EFD6518D0000E67
:10216C00FD6FFE2B1D0EFE6503D0000EFE6FFF2BC8
:10217C00FFFF0D0EFE19D8A406D0060EFF19D8A429
:10218C0002D0000E02D0FFFF010EFFFFF86FFFFF21
:10219C001200FFFFFFFF000E2EEC15F00001836F05
:1021AC00010E2EEC15F00001846F000EF76F000E7F
:1021BC00F66F835184C081F0826B81C082F0816B99
:1021CC008111F66F8251F76F020E2EEC15F00001A3
:1021DC00FF6F030E2EEC15F00001FE6F040E2EECBB
:1021EC0015F00001FD6F050E2EEC15F00001FC6FD3
:1021FC00060E2EEC15F00001F86F1200FFFF9E0E7C
:10220C00F66E2A0EF76E000EF86E00EEFBF010EE76
:10221C0005F00900F5CFEEFFE550E150FAE1A30E11
:10222C00F66E2A0EF76E000EF86E00EE7AF010EED7
:10223C0004F00900F5CFEEFFE550E150FAE101EEB4
:10224C0000F0420EEE6AE806FDE100EEEEF00D0E37
:10225C00EE6AE806FDE17E6A7F907F92000EF86ED2
:10226C0000016AEF0DF0FFFFD5C0D9F0D6C0DAF04F
:10227C00000E0001EF6F000EEE6F14D0FFFFD3C005
:10228C00BFF0D4C0C0F0D90EC16F000EC26FD7C062
:10229C00C3F0D8C0C4F026EC03F00001BF51EE2708
:1022AC00C051EF23FFFFD9C0F6FFDAC0F7FF0800DB
:1022BC00FFFFF5500009D8A4E1D7EEC0D3F0EFC072
:1022CC00D4F01200FFFFFFFF56C05AF057C05BF06E
:1022DC00000E0001EF6F000EEE6F14D0FFFF54C024
:1022EC0040F055C041F05A0E426E000E436E58C07D
:1022FC0044F059C045F069EC04F040500001EE2761
:10230C004150EF23FFFF5AC0F6FF5BC0F7FF0800F8
:10231C00FFFFF5500009D8A4E1D7EEC054F0EFC090
:10232C0055F01200FFFFFFFF000E066E000E056E4B
:10233C0003500410D8B420D0010E076E05D0FFFF57
:10234C00D89003360436072AFFFF04AEF8D7FFFFF8
:10235C00D890053606360350015C04500258D8A0BC
:10236C0005D00350015E0450025A0580FFFFD8903F
:10237C0004320332072EEBD7FFFF05C001F006C075
:10238C0002F01200FFFFFFFF86C080F087C081F0D3
:10239C00000E0001836F050E826FA7EC14F080C055
:1023AC0086F081C087F000010FD0FFFF83804B0EB9
:1023BC00FFFFE82EFDD783904B0EFFFFE82EFDD7D5
:1023CC0000018607D8A08707FFFF87BF05D087517C
:1023DC00ECE18605D8B0E9D7FFFF1200FFFFFFFF45
:1023EC00DF0E0001E16F000EE26FDBC0E3F0DCC03A
:1023FC00E4F0000EE66F000EE56F000EE86F000EC5
:10240C00E76FE30ED36F000ED46FDDC0D5F0DEC0E6
:10241C00D6F0E10ED76F000ED86F39EC11F0000139
:10242C00E551DB25D96EE651DC21DA6E000EDF6E4C
:10243C001200FFFFFFFF600E666E000E676E5CC041
:10244C0068F05DC069F0000E6B6E000E6A6E000ED7
:10245C006D6E000E6C6E680E546E000E556E5EC086
:10246C0056F05FC057F0660E586E000E596E69EC50
:10247C0011F06A505C24D96E6B505D20DA6E000E40
:10248C00DF6E1200FFFFFFFF03500410D8B41CD006
:10249C00010E056E05D0FFFFD89003360436052AD1
:1024AC00FFFF04AEF8D7FFFF0350015C0450025845
:1024BC00D8A004D00350015E0450025AFFFFD890FC
:1024CC0004320332052EEFD7FFFF01C001F002C02A
:1024DC0002F01200FFFFFFFF280EEBEC0CF0020ED7
:1024EC000001846F250E836F630EFFFFE82EFDD76E
:1024FC00832FFBD7842FF9D700F00D0EE8EC14F0E6
:10250C00060EE8EC14F0930E0001836F310EFFFF02
:10251C00E82EFDD7832FFBD700D000F01200FFFF71
:10252C00FFFF0001806F0F0E95160F0E8316000132
:10253C0080518009F00B83128394839639EC15F04B
:10254C00838239EC15F083920F0E831600018039CB
:10255C00F00BF00B831239EC15F0838239EC15F08B
:10256C008392F00E95121200FFFFFFFF0001806FA7
:10257C000F0E95160F0E831600018051F00B83126F
:10258C008394839639EC15F0838239EC15F08392A1
:10259C000F0E831600018039F00BF00B831239EC0F
:1025AC0015F0838239EC15F08392F00E951212001F
:1025BC00FFFFFFFF000E00018F6F000E8E6F0DD01E
:1025CC00FFFF8DC080F0816B8BC082F08CC083F0DC
:1025DC009EEC0EF000018E4B8F2BFFFF8E51892548
:1025EC00D96E8F518A21DA6EDF508D6F8D51D8B430
:1025FC001200FFFFE5D7FFFFFFFF010E0001866F02
:10260C00200E80198111D8B414D0F70E826FFF0EF2
:10261C00836F80C084F081C085F082518427835100
:10262C008523855104E1050E845DD8A002D0000EEF
:10263C00866FFFFF86C080F0816B1200FFFFFFFFEB
:10264C00010E076E200E01180210D8B414D0F70E2C
:10265C00036EFF0E046E01C005F002C006F00350BD
:10266C00052604500622065004E1050E055CD8A090
:10267C0002D0000E076EFFFF07C001F0026A1200C5
:10268C00FFFFFFFF016E0F0E95160F0E8316015004
:10269C008009F00B83128394839641EC15F08382AE
:1026AC0041EC15F083920F0E83160138F00BF00BF2
:1026BC00831241EC15F0838241EC15F08392F00EFD
:1026CC0095121200FFFFFFFF000E106E000E0F6E32
:1026DC000CD0FFFF0EC001F0026A0CC003F00DC05D
:1026EC0004F0F5EC0EF00F4A102AFFFF0F500A24ED
:1026FC00D96E10500B20DA6EDF500E6E0E50D8B41F
:10270C001200FFFFE6D7FFFFFFFF016E0F0E9516BD
:10271C000F0E83160150F00B83128386839441ECC9
:10272C0015F0838241EC15F083920F0E831601385D
:10273C00F00BF00B831241EC15F0838241EC15F099
:10274C008392F00E95121200FFFFFFFF000193BF62
:10275C0005D0935111E19205D8B00ED0FFFF92C075
:10276C0094F093C095F0941F951F944B952B94C0A7
:10277C0092F095C093F005D0FFFF92C092F093C0F9
:10278C0093F0FFFF1200FFFFFFFF000ED36E600EF1
:10279C00F26E030E9D6E1F0E926E000E936E946879
:1027AC00000E956E080E966EB10ECD6E800ED56E27
:1027BC00C10EC26E4E0EC16E71EC12F0C284CD8091
:1027CC00F28E1200FFFFFFFF14BE05D0145011E172
:1027DC001304D8B00ED0FFFF13C015F014C016F0C0
:1027EC00151E161E154A162A15C013F016C014F025
:1027FC0005D0FFFF13C013F014C014F0FFFF12003C
:10280C00FFFFFFFFD00E0001826FFF0E836F80C0B1
:10281C0084F081C085F082518427835185238551B2
:10282C0006E10A0E845DD8B002D0010E02D0FFFF83
:10283C00000EFFFF806F816B1200FFFFFFFFD00EB9
:10284C00036EFF0E046E01C005F002C006F00350CB
:10285C00052604500622065006E10A0E055CD8B087
:10286C0002D0010E02D0FFFF000EFFFF016E026AC4
:10287C001200FFFFFFFF0FD0FFFF22EC15F0000945
:10288C00D8A4FAD702C0D9FF03C0DAFFDF508AEC14
:10289C0013F0024A032AFFFF02C0D9FF03C0DAFF7C
:1028AC00DF50D8B41200FFFFE7D7FFFFFFFF80C057
:1028BC0082F081C083F004D0FFFF0001804B812B9C
:1028CC00FFFF80C0D9FF81C0DAFFDF50D8A4F4D756
:1028DC0000018251805D806F83518159816F12009C
:1028EC00FFFFFFFF01C003F002C004F003D0FFFFA5
:1028FC00014A022AFFFF01C0D9FF02C0DAFFDF50F4
:10290C00D8A4F5D70350015C016E04500258026E36
:10291C001200FFFFFFFF0001816F80C0A9FF81C083
:10292C00A8FFA69EA69CA684F29E550EA76EAA0E84
:10293C00A76EA682F28EFFFFA1B81200FFFFFBD795
:10294C00FFFFFFFF000180518203F3CF84F0F4CF2F
:10295C0085F080518303F350852781518203F35016
:10296C00852784C080F085C081F01200FFFFFFFF37
:10297C00026E01C0A9FF02C0A8FFA69EA69CA68459
:10298C00F29E550EA76EAA0EA76EA682F28EFFFFC0
:10299C00A1B81200FFFFFBD7FFFFFFFF015003029E
:1029AC00F3CF05F0F4CF06F001500402F3500626E5
:1029BC0002500302F350062605C001F006C002F0D7
:1029CC001200FFFFFFFF0001816FFFFFF7EC14F017
:1029DC000009D8A4FAD700018151BBEC12F0120007
:1029EC00FFFFFFFF0F0E0001806F9D0EFFFFE82E13
:1029FC00FDD7802FFBD700D000F0000E1200FFFF98
:102A0C00FFFF000E00018011806F480E8111816F55
:102A1C0080C080F081C081F01200FFFFFFFF3B0EF1
:102A2C000001806F790EFFFFE82EFDD7802FFBD7BA
:102A3C0000D000F01200FFFFFFFF0F0E016E9E0E84
:102A4C00FFFFE82EFDD7012EFBD7000E1200FFFF73
:102A5C00FFFF0001806F80C0A9FFA69EA69CA680E8
:102A6C00A8501200FFFFFFFF0D0EFFFFE82EFDD751
:102A7C0000D01200FFFFFFFF0D0EFFFFE82EFDD769
:102A8C0000D01200FFFFFFFF1200FFFFFFFF12003C
:0B2A9C00FFFF010F1613036D846D8413
:022AA800FFFF2E
:020000040020DA
:08000000FFFFFFFFFFFFFFFF00
:020000040030CA
:0E000000FF220C0EFF0081FF0FC00FE00F402B
:0200000400F00A
:100000007E030000000001007E03000000000100EC
:100010007E030000000001007E03000000000100DC
:080020007E0300000000010056
:00000001FF
