:020000040000FA
:060000000A128A11122809
:10000800FE00030E83120313B9000408BA000A089D
:10001800BB007F08BC000A128A15002A0A128A113E
:10002800152883134D30FD000830FE00C030FF0056
:10003800443084000A128A152A210A128A11A03033
:100048008400C3300A128A15B820CD01CE01CF0131
:10005800D001D101D20183010A128A15602F8316BB
:100068000313D900CB30CF004F08D2000130CA07A4
:10007800FF304A0784000A128A1100270A128A11DF
:10008800CF004F08DA005A080319B62925305A0656
:1000980003195A285A08CF00590884004F088313B7
:1000A80080000130CF004F08D9073A28D701D8017E
:1000B800D4014A0884000A128A1100270A128A11F8
:1000C8000A128A1516210A128A11031CB7288316E8
:1000D8000313D701D8010A3083120313BD0000307F
:1000E800BE0083160313580883120313C000831637
:1000F8000313570883120313BF000A128A15DD2160
:100108000A128A11831203133E0883160313D800B8
:10011800831203133D0883160313D7004A0884008B
:100128000A128A1100270A128A11D03ECF00FF3026
:1001380003180030D0004F08D7070318D80A500812
:10014800D8070130CF004F08CA074A0884000A12AE
:100158008A1100270A128A110A128A1516210A1210
:100168008A1103186F28013083160313CA07FF305A
:100178004A0784000A128A1100270A128A11DA0033
:10018800CF00D0015008003A0319CB283A284F086D
:10019800003A0319B629643A0319D6280D3A031907
:1001A800D6283A285208840083130008D500840A08
:1001B8000008D6000230CF004F08D207D61FED281E
:1001C8000330CF004F08D404D509D609D50A03193E
:1001D800D60ADA01DA0A5A08CF004F07013E84002E
:1001E8000A128A1100270A128A11D0000A128A11EB
:1001F80000270A128A11D10051085602031D062948
:1002080050085502031C10290130CF004F08DA07A7
:1002180005305A06031DEF285708580403191E29EC
:100228005408033903191E29FF30D7070318D80AC1
:10023800FF30D8075808803A803C031D2529570805
:100248005A0203183329831603135A08CF00D00122
:100258004F08D7025008031CD803D8023729831641
:100268000313D701D801570858040319502920301F
:10027800CF00590884004F08831380000130CF0055
:100288004F08D907FF30D7070318D80AFF30D80717
:1002980057085804031D3B295408033903195F29DB
:1002A8002D30CF00590884004F0883138000013097
:1002B800CF004F08D9075A08CF004F08D300FF30A6
:1002C800CF004F08D307530A03193A280A30C6004B
:1002D8000030C7005308CF004F07013E84000A12C0
:1002E8008A1100270A128A1183120313BD000A1209
:1002F8008A1100270A128A11BE00831603135608B2
:1003080083120313C00083160313550883120313C3
:10031800BF000A128A15EF250A128A1183120313E5
:100328003E0883160313C900831203133D0883167E
:100338000313C8000A128A1541230A128A11831668
:1003480003134608303ED0005008DA005A08CF00A0
:10035800590884004F08831380000130CF004F08EC
:10036800D907632959088400831380010800831280
:100378000313AD002130A5002508A8000130A0070F
:10038800FF30200784000A128A1100270A128A11F6
:10039800A5002508B000300803191E2B25303006AB
:1003A8000319E2293008A5002D08840025088313C5
:1003B80080000130A5002508AD07C229AE01AF01B4
:1003C800AA01200884000A128A1100270A128A1139
:1003D8000A128A15F9200A128A11031C312A83127B
:1003E8000313AE01AF010A30F0000030F1008312B0
:1003F80003132F08F3002E08F2000A128A15992118
:100408000A128A11710883120313AF007008AE0034
:10041800200884000A128A1100270A128A11D03E85
:10042800A500FF3003180030A6002508AE07031802
:10043800AF0A2608AF070130A5002508A007200845
:1004480084000A128A1100270A128A110A128A15D0
:10045800F9200A128A110318F729013083120313AD
:10046800A007FF30200784000A128A1100270A1209
:100478008A11B000A500A6012608003A0319452AEA
:10048800C2292508003A03191E2B643A0319502A79
:100498000D3A0319502AC22928088400831300083A
:1004A800AB00840A0008AC000230A5002508A807A4
:1004B800AC1F672A0330A5002508AA04AB09AC09BC
:1004C800AB0A0319AC0AB001B00A3008A500250729
:1004D800013E84000A128A1100270A128A11A60016
:1004E8000A128A1100270A128A11A70027082C026B
:1004F800031D802A26082B02031C8A2A0130A50026
:100508002508B00705303006031D692A2E082F0478
:100518000319982A2A0803390319982AFF30AE07C5
:100528000318AF0AFF30AF072F08803A803C031D3D
:100538009F2A2E0830020318AD2A831203133008AD
:10054800A500A6012508AE022608031CAF03AF02CA
:10055800B12A83120313AE01AF012E082F04031929
:10056800CA2A2030A5002D0884002508831380009E
:100578000130A5002508AD07FF30AE070318AF0A04
:10058800FF30AF072E082F04031DB52A2A080339A8
:100598000319D92A2D30A5002D08840025088313B6
:1005A80080000130A5002508AD073008A500250802
:1005B800A900FF30A5002508A907290A0319C2299F
:1005C8000A30F8000030F9002908A5002507013E87
:1005D80084000A128A1100270A128A11F0000A12EE
:1005E8008A1100270A128A11F1002C08F3002B083F
:1005F800F2000A128A1505230A128A117108FB00F3
:100608007008FA000A128A15D3220A128A11780889
:10061800303E83120313A6002608B0003008A50058
:100628002D0884002508831380000130A5002508C3
:10063800AD07DD2A2D0884008313800108008B1381
:1006480083160313DE01031083120313871C03149C
:10065800031C322B831203138714352B83120313C5
:100668008710323083160313DB005B08CA00B230F0
:100678000A128A1133200A128A119830831603133A
:10068800DB005B08CA00A1300A128A1133200A1263
:100698008A1100300A128A11AE270A128A11B23062
:1006A8000A128A15BA210A128A1140300A128A11CE
:1006B800AE270A128A11A1300A128A15BA210A1223
:1006C8008A11823083160313DC00DD30DB00DB0B7C
:1006D8006B2BDC0B6B2B013083160313DB005B08E1
:1006E800DE070A305E02031C282B831203138710CF
:1006F80083160313DE01031083120313871D0314EB
:10070800031C8A2B8312031387158D2B8312031363
:100718008711323083160313DB005B08CA00B2303E
:100728000A128A1133200A128A11543083160313CD
:10073800DB005B08CA00A1300A128A1133200A12B2
:100748008A1100300A128A11AE270A128A11B230B1
:100758000A128A15BA210A128A1140300A128A111D
:10076800AE270A128A11A1300A128A15BA210A1272
:100778008A11823083160313DC00DD30DB00DB0BCB
:10078800C32BDC0BC32B013083160313DB005B0880
:10079800DE0712305E02031C802B831203138711BD
:1007A80083160313DE01031083120313071D0314BA
:1007B800031CE22B831203130715E52B8312031383
:1007C8000711323083160313DB005B08CA00B2300E
:1007D8000A128A1133200A128A11763083160313FB
:1007E800DB005B08CA00A1300A128A1133200A1202
:1007F8008A1100300A128A11AE270A128A11B23001
:100808000A128A15BA210A128A1140300A128A116C
:10081800AE270A128A11A1300A128A15BA210A12C1
:100828008A11823083160313DC00DD30DB00DB0B1A
:100838001B2CDC0B1B2C013083160313DB005B081D
:10084800DE070F305E02031CD82B83120313071137
:10085800FA3083160313C3000030C4000A128A1545
:1008680014240A128A118B17033083160313DD0030
:100878008A30DC005530DB00DB0B402CDC0B402CD5
:10088800DD0B402C831203138714871507158B176C
:10089800080083120313CE01CE0A433083160313D4
:1008A800DC005C08CA00B2300A128A1133200A122E
:1008B8008A1100300A128A11AE270A128A11B23040
:1008C8000A128A15BA210A128A11C830831603132C
:1008D800C3000030C4000A128A1514240A128A11AF
:1008E80083120313051E742C8519D02C043045027D
:1008F8003830031944020318872C0130C407031841
:10090800C50A0030C50704304502393003194402CE
:10091800031C922C3830C4000430C50064308316A0
:100928000313C3000030C4000A128A1514240A12E3
:100938008A11C33083160313DD00CC30DC00DC0BD6
:10094800A32CDD0BA32C0000831203138519D02CD4
:10095800043045023830031944020318B92C013019
:10096800C4070318C50A0030C507043045023930EA
:1009780003194402031CC42C3830C4000430C500D9
:10098800413083160313DD00ED30DC00DC0BCA2C8C
:10099800DD0BCA2CCF2CA82C851A282D0330450234
:1009A800713003194402031CDF2C0130C4020030EB
:1009B800031CC503C5020330450270300319440205
:1009C8000318EA2C7030C4000330C5006430831665
:1009D8000313C3000030C4000A128A1514240A1233
:1009E8008A11C33083160313DD00CC30DC00DC0B26
:1009F800FB2CDD0BFB2C000083120313851A282D1A
:100A080003304502713003194402031C112D0130D3
:100A1800C4020030031CC503C50203304502703010
:100A28000319440203181C2D7030C4000330C5009C
:100A3800413083160313DD00ED30DC00DC0B222D82
:100A4800DD0B222D272D002D051A782C0330831657
:100A58000313DE008A30DD005530DC00DC0B322D5C
:100A6800DD0B322DDE0B322D83120313051A782C81
:100A780001300A128A1599250A128A11E83083165C
:100A88000313C3000330C4000A128A1514240A127F
:100A98008A1183120313CE010A128A15A4220A129C
:100AA8008A1183120313450883160313C6008312A1
:100AB8000313440883160313C5000A128A11652517
:100AC800080083120313071207108316031346083E
:100AD80083120313BE0083160313450883120313FE
:100AE800BD000A128A15EC200A128A118312031318
:100AF8003E0883160313CB00831203133D088316A5
:100B08000313CA0083120313071387138716C7300A
:100B180083160313C700902DC70B8F2D932D8316B3
:100B28000313A001103020020318D62D4B08C8006B
:100B38004A08C700200AA32D0310C80CC70CFF3EA3
:100B4800031DA02D01304705CC0000304805CD001D
:100B5800C73083160313C700B12DC70BB02DB42DB2
:100B6800831203130713831603134C034D04031D49
:100B7800C12D831203138717C42D83120313871300
:100B8800C73083160313C700C92DC70BC82DCC2D3A
:100B9800831203130717013083160313C70047088E
:100BA800A007962DC73083160313C700DB2DC70B8C
:100BB800DA2DDE2D831203138712143083160313E4
:100BC800C3000030C4000A128A1514240A128A11BC
:100BD800033083160313C9008A30C8005530C70094
:100BE800C70BF42DC80BF42DC90BF42D1430831644
:100BF8000313C3000030C4000A128A1514240A1211
:100C08008A11033083160313C9008A30C80055308F
:100C1800C700C70B0D2EC80B0D2EC90B0D2E831642
:100C28000313A0016430200203182B2E8230831690
:100C38000313C800DD30C700C70B202EC80B202EB9
:100C4800013083160313C7004708A007162E831226
:100C580003130714080083120313C3000F30C100E5
:100C6800410886050F30C100410883160313860525
:100C78000611861086118312031306118610861139
:100C88000A128A15D3200A128A1130300A128A15DC
:100C9800AB240A128A11073083120313C2007C3076
:100CA800C100C10B552EC20B552E000030300A1260
:100CB8008A15AB240A128A11C73083120313C100A4
:100CC800652EC10B642E682E32300A128A15AB24A9
:100CD8000A128A110A128A15DF200A128A11003AAA
:100CE800031D6E2E0A128A15DF200A128A11003A95
:100CF800031D762E8312031343080A128A15AB24A8
:100D08000A128A110A128A15DF200A128A11003A79
:100D1800031D862E08300A128A15AB240A128A117E
:100D28000A128A15DF200A128A11003A031D942E2E
:100D38000F300A128A15AB240A128A110A128A1570
:100D4800DF200A128A11003A031DA22E01300A126E
:100D58008A15AB240A128A110A128A15DF200A1290
:100D68008A11003A031DB02E05300A128A15AB24E9
:100D78000A128A110A128A15DF200A128A11003A09
:100D8800031DBE2E06300A128A15AB240A128A11D8
:100D98000A128A15DF200A128A11003A031DCC2E86
:100DA80080300A128A11AE270A128A110A128A158D
:100DB800DF200A128A11003A031DDA2E0D300A12BA
:100DC8008A15AB240800F1007008831203178D0000
:100DD80071088C00831603178C130C158B13553070
:100DE8008D00AA308D008C148B17831203130D1AF3
:040DF8000800F92EC8
:100E000007308A000408840A820700340134003461
:100E10000A34003464340034E834033410342734A2
:100E20000D340634013400344634523445345134E0
:100E30002E34203420342534333464342E34253495
:100E4000643420344D3448347A3400344C344F34D4
:100E500043344B3449344E34473420342034203426
:100E600020342034203420342034203400345434CE
:100E700045345334543449344E34473420342034C8
:100E800020342034203420342034203420340034E2
:100E900053344534543420342034203446345234CE
:100EA00045345134553445344E3443345934203468
:100EB0000034203420342034203420345434453459
:100EC0004D34503445345234413454345534523412
:100ED0004534003441344D34503452344F3420348E
:100EE00020342034203420342034453458342D34F8
:100EF00046344D340034203420342034203420341F
:100F00002034203420342034203420342034203441
:100F100053345734523400342034203420342034B5
:100F2000203420342034463452344534513455343E
:100F300045344E3443345934003420342034203482
:100F400020342034203420342034203420345334CE
:100F50005534503450344C34593400348312031314
:100F6000C0000F30BE003E088316031386050F3005
:100F700083120313BE003E08860540088038F0390E
:100F8000BE003E088604061186100A128A15B1209A
:100F90000A128A118312031386150A128A15B120C8
:100FA0000A128A118312031386110F30BE003E0805
:100FB00086054008BE0003300310BE0DFF3E031D32
:100FC000DC2F03103E0DF039BF003F0886040A12E3
:100FD0008A15B1200A128A118312031386150A1288
:100FE0008A15B120831203138611F030BE003E082B
:080FF0008316031386040800B8
:101156000530F000F00BAD28B028080005308312EA
:101166000313BD00BD0BB528080064008001840A86
:101176000406031900340406B9286F340034013418
:101186000F341634133403343C34B0340730F100D2
:101196007D30F000F00BCD28F10BCD280030080093
:1011A6001A3083120313BE00F730BD00BD0BD928D9
:1011B600BE0BD928DE280800073083120313BE00B1
:1011C6007C30BD00BD0BE528BE0BE52800000030D5
:1011D60008000030831203133D04BF0048303E046C
:1011E600C0004008BE003F08BD000800F100F00145
:1011F6003A3071020318052930307102031C0529A3
:10120600F001F00A700C080083120313BD003D08BC
:10121600831203178D00831603178C130C14831285
:1012260003170C08080083120313BE00BD013A30F1
:101236003E020318242930303E02031C2429BD0136
:10124600BD0A3D0C08007E088A007F088200262120
:101256000A128A158000840A04087D0603190034E0
:10126600FF0A0319FE0A2A2983120313C1000A1270
:101276008A15DF200A128A15003A031D3A298312BD
:10128600031341080A128A15AB24080083120313BC
:101296003D033E04031D5C29071407120330831225
:1012A6000313C0009730BF00BF0B5729C00B572947
:1012B6000800071007165129F500750884008313E6
:1012C6000008031908000A128A15C9200A128A158D
:1012D600003A031D662975088400831300080A1264
:1012E6008A15C9230A128A150130F4007408F50715
:1012F600602983120313BE003D08831203178D0075
:10130600831203133E08831203178C0083160317F8
:101316008C130C158B1355308D00AA308D008C1450
:101326008B17831203130D1A08009429F401F50193
:10133600701CA3297208F4070318F50A7308F50749
:1013460001300310F20DF30DFF3E031DA4290130F9
:101356000310F10CF00CFF3E031DAB29700871045D
:10136600031D9B297508F1007408F000080083121C
:101376000313C200420884008313000803190800FF
:101386000A128A15DF200A128A15003A031DC3299C
:101396008312031342088400831300080A128A1575
:1013A600F8240A128A15013083120313C10041087A
:1013B600C207BD2983120313C101C2013D1CE929DD
:1013C6003F08C1070318C20A4008C20701300310CC
:1013D600BF0DC00DFF3E031DEA2901300310BE0CF0
:1013E600BD0CFF3E031DF1293D083E04031DE12906
:1013F6004208BE004108BD0008008B130C1C182AC9
:101406004B088F004C088E000130B8003808D20710
:101416000A128A1581230A128A150A128A15462685
:101426000A128A15831203130C108B173C08FF004F
:101436003B088A003A088400390E8300FE0E7E0EB1
:10144600090028300A128A112F260A128A158230BC
:1014560083160313C400DD30C300C30B302AC40B4C
:10146600302A0D300A128A1537210A128A150630DB
:101476000A128A1537210A128A1541308316031378
:10148600C400ED30C300C30B462AC40B462A4B2AC0
:10149600080083120313C200420884000A128A114C
:1014A60000270A128A15003A031908000A128A153B
:1014B600DF200A128A15003A031D592A83120313E4
:1014C600420884000A128A1100270A128A150A1293
:1014D6008A15F8240A128A15013083120313C100F3
:1014E6004108C2074F2A40308B0001308316031390
:1014F6008C0038308500860187018312031385012D
:1015060086010E308700113090009F018316031369
:101516009F0183160317880189018312031307109D
:1015260007160A128A1524220A128A158312031331
:1015360010148B170030BD00BE000A128A1549210F
:101546000800213083160313DB005B08CA00B230A3
:101556000A128A1133200A128A158730831603135A
:10156600DB005B08CA00A1300A128A1133200A1276
:101576008A1500300A128A11AE270A128A15B2306D
:101586000A128A15BA210A128A1540300A128A11DD
:10159600AE270A128A15A1300A128A15BA21080046
:1015A600780879040319002BFD01FD0AF91BE72AC7
:1015B60001300310F80DF90DFF3E031DDC2A013042
:1015C600FC007C08FD07D92A79087B02031DED2A59
:1015D60078087A02031CF52A7808FA027908031CAF
:1015E600FB03FB0201300310F90CF80CFF3E031D50
:1015F600F62A0130FD02031DE72A7B08F9007A0866
:10160600F8000800F501F6017008710403193C2B77
:10161600F701F70AF11B1B2B01300310F00DF10D3A
:10162600FF3E031D102B0130F4007408F7070D2B45
:1016360001300310F50DF60DFF3E031D1C2B71083E
:101646007302031D282B70087202031C312B7008CD
:10165600F2027108031CF303F30275140130031040
:10166600F10CF00CFF3E031D322B0130F702031D77
:101676001B2B7608F1007508F0000800831603138B
:101686004608470403197A2B83120313C301C30ABE
:1016960083160313C71B5D2B01300310C60DC70D40
:1016A600FF3E031D502B013083120313C200420874
:1016B600C3074B2B8316031347084902031D652BEB
:1016C60046084802031C6D2B4608C8024708031C3F
:1016D600C903C90201300310C70CC60CFF3E031D27
:1016E6006E2B013083120313C302031D5D2B831679
:1016F60003134908C7004808C60008000130F50072
:10170600750883120313D0070A305002031C080021
:10171600D0010130F5007508D1073C305102031C99
:101726000800D1010130F5007508C7073C304702B3
:10173600031C0800C7010130F5007508C807003012
:101746000A128A1545250A128A15183083120313C0
:101756004802031C0800C8010130F5007508C907D6
:101766001E304902031CBC2BC9010130F500750867
:10177600CA070D304906031DC62B06304A06031D4F
:10178600C62BCF010800CF01CF0A0800F3000F30A7
:10179600F10071088316031386050F30F1007108F6
:1017A6008312031386057308F039F1007108860465
:1017B600861406110A128A15AB200A128A1583129C
:1017C600031386150A128A15AB200A128A1583128C
:1017D600031386110F30F100710886057308F100B6
:1017E60003300310F10DFF3E031DF42B0310710DA2
:1017F600F039F200720886040A128A15AB200A1222
:101806008A158312031386150A128A15AB208312D2
:1018160003138611F030F100710883160313860452
:101826000800053083120313BD000030BE00831686
:101836000313440883120313C000831603134308DB
:1018460083120313BF000A128A15DD210A128A15B4
:10185600831203133E0883160313C4008312031373
:101866003D0883160313C3004408803AFF00803006
:101876007F02031D402C01304302031C0800831223
:1018860003130614203083120313C300C30B492C21
:101896000000831203130610203083120313C300C3
:1018A600C30B532C0000FF3083160313C307031822
:1018B600C40AFF30C407372CF3000F30F10071085B
:1018C6008316031386050F30F10071088312031384
:1018D600860573088038F039F10071088604061110
:1018E60086100A128A15AB200A128A158312031370
:1018F60086150A128A15AB200A128A15831203135B
:1019060086110F30F100710886057308F100033067
:101916000310F10DFF3E031D8B2C0310710DF039E2
:10192600F200720886040A128A15AB200A128A157A
:101936008312031386150A128A15AB20831203132A
:101946008611F030F100710883160313860408002F
:1019560083120313C0000F30BE003E088316031324
:1019660086050F3083120313BE003E088605400825
:10197600F039BE003E088604061186100A128A1542
:10198600B1200A128A158312031386150A128A15C4
:10199600B1200A128A158312031386110F30BE0076
:1019A6003E0886054008BE0003300310BE0DFF3E0C
:1019B600031DD82C03103E0DF039BF003F088604E6
:1019C6000A128A15B1200A128A1583120313861584
:1019D6000A128A15B120831203138611F030BE0055
:1019E6003E08831603138604080083120313C000FF
:1019F6000F30BE003E088316031386050F30831290
:101A06000313BE003E0886054008F039BE003E08B6
:101A16008604861406110A128A15B1200A128A153E
:101A26008312031386150A128A15B1200A128A1523
:101A36008312031386110F30BE003E088605400848
:101A4600BE0003300310BE0DFF3E031D252D0310FF
:101A56003E0DF039BF003F0886040A128A15B120F0
:101A66000A128A158312031386150A128A15B120E3
:101A7600831203138611F030BE003E08831603134B
:101A860086040800831203134408F2007208F30068
:101A96004508F2007208F400F00173080A128A1170
:101AA600E7260A128A15F001F00A74080A128A114A
:101AB600E7260A128A150230F2007208F000831235
:101AC60003134A080A128A11E7260A128A150330F6
:101AD600F2007208F0008312031349080A128A11F1
:101AE600E7260A128A150430F2007208F000831203
:101AF600031348080A128A11E7260A128A150530C6
:101B0600F2007208F0008312031347080A128A11C2
:101B1600E7260A128A150630F2007208F0008312D0
:101B260003134F080A128A11E726080083120313CB
:101B36004408BF003F08C0004508BF003F08C10079
:101B4600BD0140080A128A157C210A128A158312E1
:101B56000313BD01BD0A41080A128A157C210A1227
:101B66008A15023083120313BF003F08BD004A08DE
:101B76000A128A157C210A128A150330831203136E
:101B8600BF003F08BD0049080A128A157C210A12C7
:101B96008A15043083120313BF003F08BD004808AE
:101BA6000A128A157C210A128A150530831203133C
:101BB600BF003F08BD0047080A128A157C210A1299
:101BC6008A15063083120313BF003F08BD004F0875
:101BD6000A128A157C21080083160313C401C50165
:101BE600831203133D083E040319392E831603138B
:101BF600C301C30A83120313BE1B0F2E0130031049
:101C0600BD0DBE0DFF3E031D022E0130C100410871
:101C160083160313C307FD2D013083160313031028
:101C2600C40DC50DFF3E031D122E831203133E087D
:101C36004002031D202E3D083F02031C2B2E3D08AB
:101C4600BF023E08031CC003C002831603134414DC
:101C5600013083120310BE0CBD0CFF3E031D2D2E5A
:101C6600013083160313C302031D0F2E83160313BD
:101C7600450883120313BE00831603134408831218
:101C86000313BD000800831203134E08031908004E
:101C96000A30F8000030F9004508FB004408FA0055
:101CA6000A128A15D3220A128A1578088312031398
:101CB600B1003108B6000A30F0000030F1004508E6
:101CC600F3004408F2000A128A1505230A128A153F
:101CD600700883120313B1003108B7000F30B1004A
:101CE6003108A0003708B200B3013208A10033085A
:101CF600A2003608B400B5013408A3003508A400D4
:101D0600A1300A128A11BB210A128A1540300A1222
:101D16008A155F240A128A15A1300A128A155F21D4
:101D26000A128A1500300A128A155F240A128A15C9
:101D3600B2300A128A155F21080000300A128A158D
:101D460007210A128A1583120313BE003E08C20039
:101D560001300A128A1507210A128A158312031303
:101D6600BE003E08C300C401C5014208BE00BF0153
:101D76004308C000C1014008C100C0013E0840043C
:101D8600C4003F084104C50002300A128A15072123
:101D96000A128A1583120313BE003E08CA000330D6
:101DA6000A128A1507210A128A1583120313BE0026
:101DB6003E08C90004300A128A1507210A128A153C
:101DC60083120313BE003E08C80005300A128A15A6
:101DD60007210A128A1583120313BE003E08C700A4
:101DE60006300A128A15072183120313BE003E0825
:101DF600CF00080000300A128A11AE270A128A158F
:101E060065300A128A154C220A128A150A30831680
:101E16000313C6000030C700831203134508831658
:101E26000313C90083120313440883160313C8005F
:101E36000A128A1541230A128A15831603134608C5
:101E4600DB005B08E0000A3083120313BD0000309C
:101E5600BE004508C0004408BF000A128A15EF25D7
:101E66000A128A15831203133D0883160313DB0037
:101E76005B08E1000F30DB005B08CA006108DC008C
:101E8600DD015C08CB005D08CC006008DE00DF01E8
:101E96005E08CD005F08CE00A1300A128A113320F9
:101EA6000A128A1540300A128A11AE270A128A15BA
:101EB600A1300A128A15BA2108008230831603134C
:101EC600E300DD30E200E20B662FE30B662F0A1219
:101ED6008A1576220A128A15823083160313E300C6
:101EE600DD30E200E20B752FE30B752F64308316AD
:101EF6000313C3000030C4000A128A1514240A1200
:101F06008A150A128A15A0260A128A150A3083161D
:101F16000313C3000030C4000A128A1514240A12DF
:101F26008A1583120313051AAC2F21308316031367
:101F3600E3007530E200E20B9E2FE30B9E2FA32FEA
:101F460083120313051AAC2F0A128A114D240A12A2
:101F56008A150A128A1123230A128A150A128A1569
:101F6600A4220A128A158312031345088316031343
:101F7600C60083120313440883160313C5000A120E
:101F86008A1165250A128A150A128A15FD260A1271
:101F96008A1583120313051ACC2F033083160313F5
:101FA600E4008A30E3005530E200E20BD82FE30B61
:101FB600D82FE40BD82F83160313A0010A30200272
:101FC6000318F62F823083160313E300DD30E20098
:101FD600E20BEB2FE30BEB2F013083160313E2002A
:101FE6006208A007E12F83120313051ACC2F0A12E9
:0A1FF6008A114D240A128A15C72F24
:04400E0031E0FFFF9F
:10420000D3000300000000000000000001000000D7
:10421000D3000300000000000000000001000000C7
:10422000D3000300000000000000000001000000B7
:10423000D3000300000000000000000001000000A7
:10424000D300030000000000000000000100000097
:00000001FF
