:020000040000FA
:0600000000F047EF00F0E4
:10000800FFFF7F82E1CF70F0E2CF71F0D9CF72F0BD
:10001800DACF73F0F3CF74F0F4CF75F0F6CF76F053
:10002800F7CF77F0F8CF78F0F5CF79F0F29E9EA071
:1000380011D07DC0CFFF7EC0CEFF7C2A2AEC11F004
:100048000A0E7C18D8A404D0000E7C6E79EC10F04F
:10005800FFFF9E90FFFFF28E79C0F5FF78C0F8FF92
:1000680077C0F7FF76C0F6FF75C0F4FF74C0F3FFE2
:1000780073C0DAFF72C0D9FF71C0E2FF70C0E1FF40
:0A0088007F921100FFFF3BEF10F024
:10060000000D060100465245512E20202533642E50
:100610002564204D487A004C4F434B494E472020DB
:100620002020202020202000534554202020465206
:10063000455155454E43592000414D50524F2020C1
:100640002020202045582D464D002020202020200D
:10065000204652455155454E43590000FFFFC1C049
:10066000D9FFC2C0DAFFDECFF6FFDDCFF7FF08000B
:10067000FFFFF550250AD8A414D1C1C0D9FFC2C0CC
:10068000DAFFDE2A000EDD22000E0001F36F000EFD
:10069000F26FF2C0F6F0F3C0F7F0F469F569C1C08B
:1006A000D9FFC2C0DAFFDECFF6FFDDCFF7FF0800CB
:1006B000FFFFF5502A0AD8A423D0C1C0D9FFC2C079
:1006C000DAFFDE2A000EDD22C3C0D9FFC4C0DAFF84
:1006D000DFCFC5F0020EDE26DFCFC6F0000EDD2232
:1006E000C5C0D9FFC6C0DAFFDECFF2F0DDCFF3F030
:1006F000F3AF46D0F681F26DF31FD8B0F32B40D0A4
:10070000FFFFC1C0D9FFC2C0DAFFDECF87F0DDCF67
:1007100088F0C0EC09F087C0F2F088C0F3F008D090
:10072000FFFFC1C0D9FFC2C0DAFFDE2A000EDD2202
:10073000FFFFD00E0001C56FFF0EC66FC1C0D9FF0D
:10074000C2C0DAFFDECFF6FFDDCFF7FF0800FFFF04
:10075000F550C76FC86BC551C727C651C823C851CC
:1007600006E10A0EC75DD8B002D0010E02D0FFFF2D
:10077000000EFFFFD16FD26BD151D211D8A4D0D7C8
:10078000FFFFC1C0D9FFC2C0DAFFDECFF6FFDDCF69
:10079000F7FF0800FFFFF550640AD8B40ED0C1C0BF
:1007A000D9FFC2C0DAFFDECFF6FFDDCFF7FF0800CA
:1007B000FFFFF550690AD8A440D0FFFFC1C0D9FFA0
:1007C000C2C0DAFFDE2A000EDD22C3C0D9FFC4C0DA
:1007D000DAFFDFCFC5F0020EDE26DFCFC6F0000E57
:1007E000DD22C5C0D9FFC6C0DAFFDECFC9F0DDCF3C
:1007F000CAF0000ECABFFF0ECB6FCC6FCD6FCE6FAD
:10080000CF6FD06FBFC09BF0C0C09CF0C9C09DF03F
:10081000CAC09EF0CBC09FF0CCC0A0F0CDC0A1F06C
:10082000CEC0A2F0CFC0A3F0D0C0A4F0B1EC05F0D0
:100830009BC0BFF09CC0C0F051D0FFFFC1C0D9FF2A
:10084000C2C0DAFFDECFF6FFDDCFF7FF0800FFFF03
:10085000F550250AD8A417D0C1C0D9FFC2C0DAFF0D
:10086000DE2A000EDD22000E816F250E806FBFC0D4
:1008700082F0C0C083F0F7EC0EF0FFFF000E000125
:10088000C06F010E0BD0FFFFC1C0D9FFC2C0DAFF9D
:10089000DE2A000EDD22000EC06F000EFFFFBF6FCC
:1008A0001DD0FFFFC1C0D9FFC2C0DAFFDECFF6FF07
:1008B000DDCFF7FF0800FFFFF5500001806F816B6F
:1008C000BFC082F0C0C083F0F7EC0EF0C1C0D9FF0A
:1008D000C2C0DAFFDE2A000EDD22CFD7FFFF1200F2
:1008E000FFFFFFFF42C0D9FF43C0DAFFDECFF6FFB4
:1008F000DDCFF7FF0800FFFFF550250AD8A412D17D
:1009000042C0D9FF43C0DAFFDE2A000EDD22000E0E
:100910000001F36F000EF26FF2C0F6F0F3C0F7F0D3
:10092000F469F56942C0D9FF43C0DAFFDECFF6FFB4
:10093000DDCFF7FF0800FFFFF5502A0AD8A423D027
:1009400042C0D9FF43C0DAFFDE2A000EDD2244C0D8
:10095000D9FF45C0DAFFDFCF46F0020EDE26DFCF3B
:1009600047F0000EDD2246C0D9FF47C0DAFFDECFD8
:10097000F2F0DDCFF3F0F3AF45D0F681F26DF31F67
:10098000D8B0F32B3FD0FFFF42C0D9FF43C0DAFFFE
:10099000DECF08F0DDCF09F075EC0AF008C0F2F008
:1009A00009C0F3F008D0FFFF42C0D9FF43C0DAFF0F
:1009B000DE2A000EDD22FFFFD00E466EFF0E476ED0
:1009C00042C0D9FF43C0DAFFDECFF6FFDDCFF7FF2D
:1009D0000800FFFFF550486E496A465048264750C8
:1009E0004922495006E10A0E485CD8B002D0010EF7
:1009F00002D0FFFF000EFFFF526E536A5250531099
:100A0000D8A4D1D7FFFF42C0D9FF43C0DAFFDECF61
:100A1000F6FFDDCFF7FF0800FFFFF550640AD8B4FA
:100A20000ED042C0D9FF43C0DAFFDECFF6FFDDCFE4
:100A3000F7FF0800FFFFF550690AD8A440D0FFFF78
:100A400042C0D9FF43C0DAFFDE2A000EDD2244C0D7
:100A5000D9FF45C0DAFFDFCF46F0020EDE26DFCF3A
:100A600047F0000EDD2246C0D9FF47C0DAFFDECFD7
:100A70004AF0DDCF4BF0000E4BBEFF0E4C6E4D6EBC
:100A80004E6E4F6E506E516E40C01CF041C01DF056
:100A90004AC01EF04BC01FF04CC020F04DC021F0EA
:100AA0004EC022F04FC023F050C024F051C025F0BA
:100AB000E7EC06F01CC040F01DC041F04FD0FFFF36
:100AC00042C0D9FF43C0DAFFDECFF6FFDDCFF7FF2C
:100AD0000800FFFFF550250AD8A416D042C0D9FF60
:100AE00043C0DAFFDE2A000EDD22000E026E250E64
:100AF000016E40C003F041C004F04EEC0FF0FFFF68
:100B0000000E416E010E0BD0FFFF42C0D9FF43C063
:100B1000DAFFDE2A000EDD22000E416E000EFFFF1E
:100B2000406E1CD0FFFF42C0D9FF43C0DAFFDECFCA
:100B3000F6FFDDCFF7FF0800FFFFF550016E026AF8
:100B400040C003F041C004F04EEC0FF042C0D9FFAA
:100B500043C0DAFFDE2A000EDD22D1D7FFFF1200EC
:100B6000FFFFFFFF9DC0B5F09EC0B6F09FC0B7F07D
:100B7000A0C0B8F0A1C0B9F0A2C0BAF0A3C0BBF049
:100B8000A4C0BCF00001BCAF02D0010E02D0FFFF38
:100B9000000EFFFFB36FB46BB351B411D8B410D0D3
:100BA000BC1FBB1FBA1FB91FB81FB71FB61FB56D3B
:100BB000000EB623B723B823B923BA23BB23BC2323
:100BC000FFFFF5AFF693F5BF05D0F55109E1F40548
:100BD000D8B006D0FFFF000EB06F010EAF6F05D08A
:100BE000FFFFF4C0AFF0F5C0B0F0FFFFF2C0B1F00E
:100BF000F3C0B2F0B351B411D8A402D0F6A504D01A
:100C0000FFFFB107D8A0B207FFFF000EBE6F1F0E97
:100C1000BD6F000E0101236F7ED0FFFFBD07D8A07E
:100C2000BE07040EBD25D96E010EBE21DA6EB5C019
:100C300080F0B6C081F0B7C082F0B8C083F0B9C010
:100C400084F0BAC085F0BBC086F0BCC087F00A0E45
:100C5000886F000E896F000E8A6F000E8B6F000E7A
:100C60008C6F000E8D6F000E8E6F000E8F6F85ECF7
:100C70000CF080C0A5F081C0A6F082C0A7F083C0B0
:100C8000A8F084C0A9F085C0AAF086C0ABF087C0E8
:100C9000ACF0A5C092F0A7C093F0EDEC14F0000109
:100CA0009251300FDF6EAF07D8A0B007B107D8A0C0
:100CB000B207B5C080F0B6C081F0B7C082F0B8C04E
:100CC00083F0B9C084F0BAC085F0BBC086F0BCC068
:100CD00087F00A0E886F000E896F000E8A6F000E73
:100CE0008B6F000E8C6F000E8D6F000E8E6F000EDE
:100CF0008F6F28EC0BF080C0B5F081C0B6F082C0D9
:100D0000B7F083C0B8F084C0B9F085C0BAF086C02F
:100D1000BBF087C0BCF0FFFF0001BEBF20D0BE51BA
:100D200003E1BD05D8A01BD0B551B611B711B8115C
:100D3000B911BA11BB11BC11D8A46FD7B0BF05D07F
:100D4000B05102E1AF05D8B068D7FFFFB2BF07D0FE
:100D5000B25103E1B105D8A002D0F6B35ED7FFFFD0
:100D6000B351B411D8A402D0F6A51AD0FFFFBD0725
:100D7000D8A0BE07B351B411D8A404D0000EAE6FF2
:100D80002B0E04D0FFFF000EAE6F2D0EFFFFAD6FD8
:100D9000040EBD25D96E010EBE21DA6EADC0DFFF97
:100DA000FFFF9BC090F09CC091F0040EBD25926F98
:100DB000010EBE21936FB1C094F0B2C095F0A0ECCB
:100DC0000EF090C09BF091C09CF01200FFFFFFFF5F
:100DD0001EC036F01FC037F020C038F021C039F0F7
:100DE00022C03AF023C03BF024C03CF025C03DF0C7
:100DF0003DAE02D0010E02D0FFFF000EFFFF346EA9
:100E0000356A34503510D8B410D03D1E3C1E3B1E00
:100E10003A1E391E381E371E366C000E3722382215
:100E200039223A223B223C223D22FFFF0001F5AF4E
:100E3000F693F5BF05D0F55109E1F405D8B006D019
:100E4000FFFF000E316E010E306E05D0FFFFF4C0C3
:100E500030F0F5C031F0FFFFF2C032F0F3C033F0F4
:100E600034503510D8A402D0F6A504D0FFFF3206C6
:100E7000D8A03306FFFF000E3F6E1F0E3E6E000E21
:100E80000101236F7DD0FFFF3E06D8A03F06040E70
:100E90003E24D96E010E3F20DA6E36C001F037C015
:100EA00002F038C003F039C004F03AC005F03BC08E
:100EB00006F03CC007F03DC008F00A0E096E000EB7
:100EC0000A6E000E0B6E000E0C6E000E0D6E000E04
:100ED0000E6E000E0F6E000E106E22EC0DF001C0B3
:100EE00026F002C027F003C028F004C029F005C096
:100EF0002AF006C02BF007C02CF008C02DF026C049
:100F000013F028C014F00CEC15F01350300FDF6E06
:100F10003006D8A031063206D8A0330636C001F01C
:100F200037C002F038C003F039C004F03AC005F011
:100F30003BC006F03CC007F03DC008F00A0E096E49
:100F4000000E0A6E000E0B6E000E0C6E000E0D6E83
:100F5000000E0E6E000E0F6E000E106ED7EC0BF032
:100F600001C036F002C037F003C038F004C039F0D9
:100F700005C03AF006C03BF007C03CF008C03DF0A9
:100F8000FFFF3FBE21D03F5003E13E04D8A01CD05C
:100F900036503710381039103A103B103C103D10C5
:100FA000D8A471D731BE05D0315002E13004D8B099
:100FB0006AD7FFFF33BE08D0335003E13204D8A014
:100FC00003D00001F6B35FD7FFFF34503510D8A42B
:100FD00003D00001F6A51AD0FFFF3E06D8A03F06B9
:100FE00034503510D8A404D0000E2F6E2B0E04D030
:100FF000FFFF000E2F6E2D0EFFFF2E6E040E3E24FF
:10100000D96E010E3F20DA6E2EC0DFFFFFFF1CC03D
:1010100011F01DC012F0040E3E24136E010E3F208D
:10102000146E32C015F033C016F0A4EC0FF011C0EE
:101030001CF012C01DF01200FFFFFFFF010E0101A6
:10104000036F350E0001DB6F010EDC6F280EDD6FC4
:10105000060EDE6FEAEC12F0000E0001876FC80E7C
:10106000866FBEEC12F0FFFF82A0FDD7FFFF82B2B9
:1010700051D0380E0001F85D040EF959D8B002D0F5
:10108000F84BF92BFFFF390EF85D040EF959D8A083
:1010900004D0040EF96F380EF86FFFFF000E876F53
:1010A000640E866FBEEC12F0060E0001EE6FB60EF7
:1010B000ED6FF80EFFFFE82EFDD7ED2FFBD7EE2FDB
:1010C000F9D700D023D0FFFF380E0001F85D040EE1
:1010D000F959D8B002D0F84BF92BFFFF390EF85D63
:1010E000040EF959D8A004D0040EF96F380EF86F29
:1010F000FFFF020E0001EE6F250EED6F630EFFFF86
:10110000E82EFDD7ED2FFBD7EE2FF9D7FFFF00F02C
:1011100082A2D9D7FFFF82B453D0710E0001F85DCF
:10112000030EF959D8A003D0F807D8A0F907FFFF9C
:10113000700EF85D030EF959D8B004D0030EF96FA4
:10114000700EF86FFFFF000E876F640E866FBEECA7
:1011500012F0060E0001EE6FB60EED6FF80EFFFFF7
:10116000E82EFDD7ED2FFBD7EE2FF9D700D024D0F6
:10117000FFFF710E0001F85D030EF959D8A003D0EE
:10118000F807D8A0F907FFFF700EF85D030EF959B4
:10119000D8B004D0030EF96F700EF86FFFFF020E87
:1011A0000001EE6F250EED6F630EFFFFE82EFDD7F9
:1011B000ED2FFBD7EE2FF9D7FFFF00F082A4D8D791
:1011C000FFFF82B053D7060E0001EE6FB60EED6F33
:1011D000F80EFFFFE82EFDD7ED2FFBD7EE2FF9D746
:1011E00000D000F082B042D7010EB6EC10F0030E32
:1011F0000001876FE80E866FBEEC12F0F8C082F037
:10120000F9C083F03DEC0EF0000E0101036F1200F7
:10121000FFFFFFFF000E0001F16F020E0001F06FF3
:10122000250EEF6F630EFFFFE82EFDD7EF2FFBD7E4
:10123000F02FF9D700F08FEC12F0818261EC11F001
:10124000000E0001876F0A0E866FBEEC12F082B0AE
:101250000DD04A0E0001EF6F180EFFFFE82EFDD7EC
:10126000EF2FFBD700F082A01DEC08F0FFFF81926A
:10127000020E0001F06F250EEF6F630EFFFFE82EE8
:10128000FDD7EF2FFBD7F02FF9D700F0F8C082F091
:10129000F9C083F03DEC0EF0000E0001876F640E84
:1012A000866FBEEC12F0F29EFFFF350E0001DB6F81
:1012B000010EDC6F170EDD6F060EDE6FEAEC12F02A
:1012C000240E0001DB6F010EDC6F4A0EDD6F060E8F
:1012D000DE6FEAEC12F0000EB4EC13F0350E0001F4
:1012E000816F010E826F2AEC15F0400EB4EC13F002
:1012F000240E0001816F010E826F2AEC15F0020EA0
:101300000001F06F080EEF6F250EFFFFE82EFDD7EE
:10131000EF2FFBD7F02FF9D700D000F00001F12B11
:10132000310EF165C1D7F28E350EDB6F010EDC6F29
:10133000390EDD6F060EDE6FEAEC12F0F9EC0FF0FD
:10134000FFFF0001FA05D8A407D0000E8D6F010E33
:101350008C6FCAEC11F007D0FFFF000E8D6F000EEE
:101360008C6FCAEC11F0FFFF930E0001EF6F310E8E
:10137000FFFFE82EFDD7EF2FFBD700D000F0E0D71E
:10138000FFFF000E0001956F000E946F000E8E6F30
:10139000000E8D6F03D0FFFF874B882BFFFF010EE0
:1013A000936F87C0F6FF88C0F7FF0800FFFFF55076
:1013B000200AD8B419D0F70E896FFF0E8A6F87C044
:1013C000F6FF88C0F7FF0800FFFFF5508B6F8C6BAE
:1013D00089518B278A518C238C5104E1050E8B5D3A
:1013E000D8A002D0000E936FFFFF93C08FF0906BD8
:1013F0008F519011D8B40AD0CED7FFFF000E8E6F58
:10140000010E8D6FFFFF874B882B33D0FFFF87C006
:10141000F6FF88C0F7FF0800FFFFF550896F8A6B61
:101420008A51000AD8A425D089512B0AD8B4EAD70A
:10143000060AD8B4E2D71DD0FFFF94C080F095C053
:1014400081F0000E836F0A0E826FE7EC15F087C003
:10145000F6FF88C0F7FF0800FFFFF5500001805F2E
:10146000000E815B300E8025946F000E8121956FF8
:10147000C9D7FFFFD00E896FFF0E8A6F87C0F6FFB6
:1014800088C0F7FF0800FFFFF5508B6F8C6B895108
:101490008B278A518C238C5106E10A0E8B5DD8B0C4
:1014A00002D0010E02D0FFFF000EFFFF916F926B82
:1014B00091519211D8A4C0D78D518E11D8A40DD0BE
:1014C00094C089F095C08AF0891F8A1F894B8A2BA6
:1014D00089C087F08AC088F005D0FFFF94C087F0EC
:1014E00095C088F0FFFF1200FFFFFFFF000E166E91
:1014F000000E156E000E0F6E000E0E6E03D0FFFF75
:10150000084A092AFFFF010E146E08C0F6FF09C041
:10151000F7FF0800FFFFF550200AD8B419D0F70EE6
:101520000A6EFF0E0B6E08C0F6FF09C0F7FF080039
:10153000FFFFF5500C6E0D6A0A500C260B500D2261
:101540000D5004E1050E0C5CD8A002D0000E146E04
:10155000FFFF14C010F0116A10501110D8B40AD057
:10156000CED7FFFF000E0F6E010E0E6EFFFF084A72
:10157000092A32D0FFFF08C0F6FF09C0F7FF0800B4
:10158000FFFFF5500A6E0B6A0B50000AD8A424D056
:101590000A502B0AD8B4EAD7060AD8B4E2D71CD02E
:1015A000FFFF15C001F016C002F0000E046E0A0E17
:1015B000036E13EC16F008C0F6FF09C0F7FF080031
:1015C000FFFFF550015E000E025A300E0124156E29
:1015D000000E0220166ECAD7FFFFD00E0A6EFF0E55
:1015E0000B6E08C0F6FF09C0F7FF0800FFFFF550BB
:1015F0000C6E0D6A0A500C260B500D220D5006E1A0
:101600000A0E0C5CD8B002D0010E02D0FFFF000E13
:10161000FFFF126E136A12501310D8A4C1D70E50D8
:101620000F10D8A40DD015C00AF016C00BF00A1E7A
:101630000B1E0A4A0B2A0AC008F00BC009F005D09D
:10164000FFFF15C008F016C009F0FFFF1200FFFFF2
:10165000FFFF000E0001916F8FAF12D08F1F8E1F02
:101660008D1F8C1F8B1F8A1F891F886D000E892379
:101670008A238B238C238D238E238F23010E916F3E
:10168000FFFF87AF12D0871F861F851F841F831F10
:10169000821F811F806D000E812382238323842378
:1016A000852386238723010E911BFFFF20EE92F0F6
:1016B000070EDE6AE806FDE2885189118A118B1156
:1016C0008C118D118E118F11D8B44AD0010E906FEC
:1016D0000BD0FFFFD890883789378A378B378C3704
:1016E0008D378E378F37902BFFFF8FAFF2D7FFFFED
:1016F000D8909237933794379537963797379837EE
:1017000099378851805D895181598A5182598B510D
:1017100083598C5184598D5185598E5186598F51D9
:101720008759D8A011D08851805F8951815B8A5137
:10173000825B8B51835B8C51845B8D51855B8E51B9
:10174000865B8F51875B9281FFFFD8908F338E33FA
:101750008D338C338B338A3389338833902FC7D7BB
:10176000FFFF9151D8B410D0991F981F971F961F53
:10177000951F941F931F926D000E9323942395231E
:101780009623972398239923FFFF92C080F093C05C
:1017900081F094C082F095C083F096C084F097C029
:1017A00085F098C086F099C087F01200FFFFFFFF18
:1017B000000E126E10AE12D0101E0F1E0E1E0D1E49
:1017C0000C1E0B1E0A1E096C000E0A220B220C2294
:1017D0000D220E220F221022010E126EFFFF08AE04
:1017E00012D0081E071E061E051E041E031E021E22
:1017F000016C000E02220322042205220622072287
:101800000822010E121AFFFF20EE13F0070EDE6A07
:10181000E806FDE209500A100B100C100D100E1016
:101820000F101010D8B44AD0010E116E0BD0FFFF6C
:10183000D89009360A360B360C360D360E360F3672
:101840001036112AFFFF10AEF2D7FFFFD8901336E3
:101850001436153616361736183619361A36095014
:10186000015C0A5002580B5003580C5004580D509C
:1018700005580E5006580F50075810500858D8A059
:1018800011D00950015E0A50025A0B50035A0C50F5
:10189000045A0D50055A0E50065A0F50075A105050
:1018A000085A1380FFFFD89010320F320E320D32DB
:1018B0000C320B320A320932112EC7D7FFFF1250F9
:1018C000D8B410D01A1E191E181E171E161E151E6B
:1018D000141E136C000E1422152216221722182231
:1018E00019221A22FFFF13C001F014C002F015C024
:1018F00003F016C004F017C005F018C006F019C0B8
:1019000007F01AC008F01200FFFFFFFF000E0001F1
:10191000916F87AF12D0871F861F851F841F831F7B
:10192000821F811F806D000E8123822383238423E5
:10193000852386238723010E916FFFFF8FAF10D081
:101940008F1F8E1F8D1F8C1F8B1F8A1F891F886DF5
:10195000000E89238A238B238C238D238E238F23B0
:10196000FFFF885189118A118B118C118D118E11F5
:101970008F11D8B440D0010E906F0BD0FFFFD890DC
:10198000883789378A378B378C378D378E378F3743
:10199000902BFFFF8FAFF2D7FFFF8851805D8951F9
:1019A00081598A5182598B5183598C5184598D5157
:1019B00085598E5186598F518759D8A010D088519A
:1019C000805F8951815B8A51825B8B51835B8C5133
:1019D000845B8D51855B8E51865B8F51875BFFFFEA
:1019E000D8908F338E338D338C338B338A33893356
:1019F0008833902FD1D7FFFF9151D8B410D0871FD3
:101A0000861F851F841F831F821F811F806D000E0C
:101A10008123822383238423852386238723FFFF37
:101A200080C080F081C081F082C082F083C083F0EA
:101A300084C084F085C085F086C086F087C087F0BA
:101A40001200FFFFFFFF000E126E08AE12D0081E3C
:101A5000071E061E051E041E031E021E016C000E3C
:101A60000222032204220522062207220822010E56
:101A7000126EFFFF10AE10D0101E0F1E0E1E0D1E98
:101A80000C1E0B1E0A1E096C000E0A220B220C22D1
:101A90000D220E220F221022FFFF09500A100B10F8
:101AA0000C100D100E100F101010D8B440D0010EF5
:101AB000116E0BD0FFFFD89009360A360B360C3664
:101AC0000D360E360F361036112AFFFF10AEF2D744
:101AD000FFFF0950015C0A5002580B5003580C508C
:101AE00004580D5005580E5006580F500758105006
:101AF0000858D8A010D00950015E0A50025A0B5065
:101B0000035A0C50045A0D50055A0E50065A0F50E5
:101B1000075A1050085AFFFFD89010320F320E3279
:101B20000D320C320B320A320932112ED1D7FFFF9F
:101B30001250D8B410D0081E071E061E051E041E23
:101B4000031E021E016C000E022203220422052243
:101B5000062207220822FFFF01C001F002C002F0A6
:101B600003C003F004C004F005C005F006C006F091
:101B700007C007F008C008F01200FFFFFFFF0001D8
:101B8000826F0F0E83160F0E95169594959695926B
:101B900083948396839254EC16F0300EFDEC13F090
:101BA0000F0E0001816F9D0EFFFFE82EFDD7812FE4
:101BB000FBD700D000F0300EFDEC13F0030E000157
:101BC000816FEB0EFFFFE82EFDD7812FFBD700D0F2
:101BD00000F0320EFDEC13F0FFFF37EC16F00009B9
:101BE000D8A4FAD7FFFF37EC16F00009D8A4FAD72B
:101BF00000018251FDEC13F0FFFF37EC16F00009F5
:101C0000D8A4FAD7080EFDEC13F0FFFF37EC16F05E
:101C10000009D8A4FAD70F0EFDEC13F0FFFF37EC44
:101C200016F00009D8A4FAD7010EFDEC13F0FFFF5F
:101C300037EC16F00009D8A4FAD7050EFDEC13F026
:101C4000FFFF37EC16F00009D8A4FAD7060EFDEC1A
:101C500013F0FFFF37EC16F00009D8A4FAD7800E76
:101C6000B4EC13F0FFFF37EC16F00009D8A4FAD754
:101C70000D0EFDEC13F01200FFFFFFFF82C080F09D
:101C800083C081F046EC16F080C087F081C088F0F8
:101C90008480030E0001846FEB0EFFFFE82EFDD75A
:101CA000842FFBD700D000F0000E00018B6FFFFFE8
:101CB0008BC084F087C085F088C086F0842B04D068
:101CC000FFFFD89086338533FFFF842FF9D7010EAD
:101CD00000018515896F8A6B89058A11D8A402D005
:101CE000848402D0FFFF8494FFFF030E0001846F01
:101CF000EB0EFFFFE82EFDD7842FFBD700D000F0BE
:101D00008482030E0001846FEB0EFFFFE82EFDD7E7
:101D1000842FFBD700D000F0849200018B2B0F0E94
:101D20008B65C5D7030E0001846FEB0EFFFFE82E15
:101D3000FDD7842FFBD700D000F084901200FFFF66
:101D4000FFFF0001F6A10AD092C089F093C08AF08B
:101D500090C08BF091C08CF021EC14F0FFFF0001DB
:101D600095BF05D094C099F095C09AF005D0FFFFBB
:101D7000000E9A6F000E996FFFFF000E986F000E15
:101D8000976F0ED0FFFF000E816F200E806F90C006
:101D900082F091C083F0F7EC0EF00001974B982B86
:101DA000FFFF9951975D9851800A966F9A51800A6A
:101DB0009659D8A0E7D7F6B10AD092C089F093C05F
:101DC0008AF090C08BF091C08CF021EC14F0FFFFF2
:101DD00092C080F093C081F09CEC15F00001995105
:101DE0008025906F9A518121916F1200FFFFFFFFB4
:101DF000000182518311D8B404D082518311D8A438
:101E000005D0FFFF805189EC16F045D0FFFF20EE92
:101E100004F08251D9268351DA22DE50DE10D8B484
:101E200016D020EE04F08251D9268351DA2210EE2A
:101E300002F08251E1268351E222DE50E65CE65058
:101E4000800A886FDE50800A8859D8B024D0FFFFFE
:101E500020EE02F08251D9268351DA22DECF84F0BF
:101E6000DDCF85F082C0D9FF83C0DAFFDECF86F0F8
:101E7000DDCF87F084518625D96E85518721DA6EB2
:101E800080C0DFFF20EE02F08251D9268351DA2292
:101E9000DE2A000EDD22FFFF1200FFFFFFFF0350CE
:101EA0000410D8B404D003500410D8A405D0FFFF08
:101EB00001508CEC16F045D0FFFF20EE04F00350EB
:101EC000D9260450DA22DE50DE10D8B416D020EE27
:101ED00004F00350D9260450DA2210EE02F0035029
:101EE000E1260450E222DE50E65CE650800A096EEC
:101EF000DE50800A0958D8B024D0FFFF20EE02F04F
:101F00000350D9260450DA22DECF05F0DDCF06F0EB
:101F100003C0D9FF04C0DAFFDECF07F0DDCF08F041
:101F200005500724D96E06500820DA6E01C0DFFF85
:101F300020EE02F00350D9260450DA22DE2A000EE9
:101F4000DD22FFFF1200FFFFFFFF0001F6A10AD014
:101F500013C00AF014C00BF011C00CF012C00DF049
:101F6000ABEC14F0FFFF16BE05D015C01AF016C07A
:101F70001BF005D0FFFF000E1B6E000E1A6EFFFF58
:101F8000000E196E000E186E0DD0FFFF000E026ECF
:101F9000200E016E11C003F012C004F04EEC0FF0E1
:101FA000184A192AFFFF1A50185C1950800A176E38
:101FB0001B50800A1758D8A0E8D70001F6B10AD004
:101FC00013C00AF014C00BF011C00CF012C00DF0D9
:101FD000ABEC14F0FFFF13C001F014C002F0B7EC3B
:101FE00015F01A500124116E1B500220126E1200BF
:101FF000FFFFFFFFF8C080F0F9C081F0000E000184
:10200000836F0A0E826F15EC13F000018051ED6FA3
:10201000F8C080F0F9C081F0000E836F0A0E826F65
:10202000FEEC11F000018051EE6F240EDB6F010E0B
:10203000DC6F050EDD6F060EDE6FEEC0DFF0E06BCD
:10204000EDC0E1F0E26BEAEC12F0400EB4EC13F0FC
:10205000240E0001816F010E826F2AEC15F0000E34
:10206000B4EC13F0350E0001816F010E826F2AEC83
:1020700015F01200FFFF250EF66E2D0EF76E000E06
:10208000F86E0900F5CF46F10900F5CF47F11E0EB5
:10209000F66E2D0EF76E000EF86E00EEFBF010EEF1
:1020A00005F00900F5CFEEFFE550E150FAE1230E0F
:1020B000F66E2D0EF76E000EF86E0900F5CF7DF06E
:1020C0000900F5CF7EF001EE00F0460EEE6AE8065C
:1020D000FDE100EEF2F0090EEE6AE806FDE17C6A31
:1020E0007B6A7A6A7F907F92000EF86E000109EF9A
:1020F00009F0FFFFF8C001F0F9C002F0000E046E15
:102100000A0E036E67EC13F001506E6EF8C001F01A
:10211000F9C002F0000E046E0A0E036E5FEC12F0BE
:1021200001506F6E240E5C6E010E5D6E050E5E6ECC
:10213000060E5F6E6FC060F0616A6EC062F0636A27
:102140003EEC13F0400E89EC14F0240E026E010EEA
:10215000036E80EC15F0000E89EC14F0350E026E63
:10216000010E036E80EC15F01200FFFFFFFF00016F
:10217000846FF8C082F00001F951836F8451D8B4A4
:1021800005D0000E806F8251D0EC15F0FFFF0001EA
:102190008451D8B405D0010E806F8351D0EC15F076
:1021A000FFFF020E0001806FFE51D0EC15F0030E10
:1021B0000001806FFD51D0EC15F0040E0001806F1E
:1021C000FC51D0EC15F0050E0001806FFB51D0ECF6
:1021D00015F0060E0001806FFA51D0EC15F01200D8
:1021E000FFFFFFFF056EF8C003F00001F951046E18
:1021F0000550D8B405D0000E016E0350FDEC15F06B
:10220000FFFF0550D8B405D0010E016E0450FDEC5F
:1022100015F0FFFF020E016E0001FE51FDEC15F0FE
:10222000030E016E0001FD51FDEC15F0040E016E70
:102230000001FC51FDEC15F0050E016E0001FB5193
:10224000FDEC15F0060E016E0001FA51FDEC15F0E3
:102250001200FFFFFFFF7A2A090E7A642FD0000ECA
:102260007A6E7B2A3B0E7B6429D0000E7B6E0001C8
:10227000FB2B000EF1EC10F03B0E0001FB651ED0B5
:10228000000EFB6FFC2B170EFC6518D0000EFC6FC8
:10229000FD2B1D0EFD6503D0000EFD6FFE2BFFFF15
:1022A0000D0EFD19D8A406D0060EFE19D8A402D032
:1022B000000E02D0FFFF010EFFFFFA6FFFFF1200BA
:1022C000FFFFFFFF000E6EEC16F00001836F010EA2
:1022D0006EEC16F00001846F000EF96F000EF86FBF
:1022E000835184C081F0826B81C082F0816B811147
:1022F000F86F8251F96F020E6EEC16F00001FE6F5E
:10230000030E6EEC16F00001FD6F040E6EEC16F07D
:102310000001FC6F050E6EEC16F00001FB6F060E5F
:102320006EEC16F00001FA6F1200FFFFFFFFD5C040
:10233000D9F0D6C0DAF0000E0101016F000E006F77
:1023400018D0FFFFD3C0BFF0D4C0C0F0D90E000139
:10235000C16F000EC26FD7C0C3F0D8C0C4F02EEC5E
:1023600003F00001BF51010100270001C05101012C
:102370000123FFFFD9C0F6FFDAC0F7FF0800FFFF17
:10238000F5500009D8A4DDD700C1D3F001C1D4F0C5
:102390001200FFFFFFFF00018C058D11D8A415D09E
:1023A00081868188819A819C060E00018E6FD80EED
:1023B000FFFFE82EFDD78E2FFBD700F0F8C082F08C
:1023C000F9C083F03DEC0EF016D0FFFF81968198A6
:1023D000818A818C060E00018E6FD80EFFFFE82ED9
:1023E000FDD78E2FFBD700F0020E0001836FDA0EAF
:1023F000826F3DEC0EF0FFFF1200FFFFFFFF000EAB
:102400000001856F000E846F82518311D8B420D0F3
:10241000010E866F05D0FFFFD89082378337862B59
:10242000FFFF83AFF8D7FFFFD890843785378251FD
:10243000805D83518159D8A005D08251805F83513E
:10244000815B8481FFFFD89083338233862FEBD763
:10245000FFFF84C080F085C081F01200FFFFFFFF06
:1024600056C05AF057C05BF0000E0101016F000E1C
:10247000006F14D0FFFF54C040F055C041F05A0E19
:10248000426E000E436E58C044F059C045F071ECE6
:1024900004F040500101002741500123FFFF5AC0C2
:1024A000F6FF5BC0F7FF0800FFFFF5500009D8A456
:1024B000E1D700C154F001C155F01200FFFFFFFF4A
:1024C000000E066E000E056E03500410D8B420D026
:1024D000010E076E05D0FFFFD89003360436072A99
:1024E000FFFF04AEF8D7FFFFD8900536063603503D
:1024F000015C04500258D8A005D00350015E04507E
:10250000025A0580FFFFD89004320332072EEBD722
:10251000FFFF05C001F006C002F01200FFFFFFFF41
:10252000000ED36E400EF26E010E9D6E1F0E926E67
:10253000000E936E9468000E956E080E966E000E57
:10254000806E000E816E000E826E000E836E000E95
:10255000846EB10ECD6E800ED56EC10EC26E4D0E64
:10256000C16E8FEC13F0CD80F28E000E00018D6FE6
:10257000000E8C6FCAEC11F01200FFFFFFFF86C047
:1025800080F087C081F0000E0001836F050E826F1E
:10259000E7EC15F080C086F081C087F000010FD015
:1025A000FFFF83804B0EFFFFE82EFDD783904B0E7D
:1025B000FFFFE82EFDD700018607D8A08707FFFFA1
:1025C00087BF05D08751ECE18605D8B0E9D7FFFF7A
:1025D0001200FFFFFFFFDF0E0001E56F000EE66F48
:1025E000DBC0E7F0DCC0E8F0000EEA6F000EE96F38
:1025F000000EEC6F000EEB6FE70ED36F000ED46F82
:10260000DDC0D5F0DEC0D6F0E50ED76F000ED86F76
:1026100096EC11F00001E951DB25D96EEA51DC217D
:10262000DA6E000EDF6E1200FFFFFFFF0001825125
:102630008311D8B41CD0010E846F05D0FFFFD89051
:1026400082378337842BFFFF83AFF8D7FFFF825198
:10265000805D83518159D8A004D08251805F83511D
:10266000815BFFFFD89083338233842FEFD7FFFF46
:1026700080C080F081C081F01200FFFFFFFF600E7C
:10268000666E000E676E5CC068F05DC069F0000E9B
:102690006B6E000E6A6E000E6D6E000E6C6E680E34
:1026A000546E000E556E5EC056F05FC057F0660E59
:1026B000586E000E596E2FEC12F06A505C24D96EE1
:1026C0006B505D20DA6E000EDF6E1200FFFFFFFF21
:1026D00003500410D8B41CD0010E056E05D0FFFFC6
:1026E000D89003360436052AFFFF04AEF8D7FFFF63
:1026F0000350015C04500258D8A004D00350015E7E
:102700000450025AFFFFD89004320332052EEFD74F
:10271000FFFF01C001F002C002F01200FFFFFFFF47
:10272000280EBEEC0DF0020E0001846F250E836FA3
:10273000630EFFFFE82EFDD7832FFBD7842FF9D739
:1027400000F00D0E28EC16F0060E28EC16F0930E95
:102750000001836F310EFFFFE82EFDD7832FFBD7DB
:1027600000D000F01200FFFFFFFF0001806F0F0E8E
:1027700095160F0E8316000180518009F00B83120D
:102780008394839679EC16F0838279EC16F0839229
:102790000F0E831600018039F00BF00B831279ECD9
:1027A00016F0838279EC16F08392F00E95121200E7
:1027B000FFFFFFFF0001806F0F0E95160F0E8316AF
:1027C00000018051F00B83128386839479EC16F01C
:1027D000838279EC16F083920F0E83160001803904
:1027E000F00BF00B831279EC16F0838279EC16F083
:1027F0008392F00E95121200FFFFFFFF0001806F21
:102800000F0E95160F0E831600018051F00B8312E8
:102810008394839679EC16F0838279EC16F0839298
:102820000F0E831600018039F00BF00B831279EC48
:1028300016F0838279EC16F08392F00E9512120056
:10284000FFFFFFFF000E00018F6F000E8E6F0DD097
:10285000FFFF8DC080F0816B8BC082F08CC083F055
:10286000F7EC0EF000018E4B8F2BFFFF8E51892568
:10287000D96E8F518A21DA6EDF508D6F8D51D8B4A9
:102880001200FFFFE5D7FFFFFFFF010E0001866F7B
:10289000200E80198111D8B414D0F70E826FFF0E6C
:1028A000836F80C084F081C085F08251842783517A
:1028B0008523855104E1050E845DD8A002D0000E69
:1028C000866FFFFF86C080F0816B1200FFFFFFFF65
:1028D000010E076E200E01180210D8B414D0F70EA6
:1028E000036EFF0E046E01C005F002C006F0035037
:1028F000052604500622065004E1050E055CD8A00A
:1029000002D0000E076EFFFF07C001F0026A12003E
:10291000FFFFFFFF016E0F0E95160F0E831601507D
:102920008009F00B83128394839681EC16F08382E6
:1029300081EC16F083920F0E83160138F00BF00B2A
:10294000831281EC16F0838281EC16F08392F00EF4
:1029500095121200FFFFFFFF000E106E000E0F6EAB
:102960000CD0FFFF0EC001F0026A0CC003F00DC0D6
:1029700004F04EEC0FF00F4A102AFFFF0F500A240C
:10298000D96E10500B20DA6EDF500E6E0E50D8B498
:102990001200FFFFE6D7FFFFFFFF016E0F0E951637
:1029A0000F0E83160150F00B83128386839481EC03
:1029B00016F0838281EC16F083920F0E8316013895
:1029C000F00BF00B831281EC16F0838281EC16F091
:1029D0008392F00E95121200FFFFFFFF000193BFDC
:1029E00005D0935111E19205D8B00ED0FFFF92C0EF
:1029F00094F093C095F0941F951F944B952B94C021
:102A000092F095C093F005D0FFFF92C092F093C072
:102A100093F0FFFF1200FFFFFFFF14BE05D014501C
:102A200011E11304D8B00ED0FFFF13C015F014C08D
:102A300016F0151E161E154A162A15C013F016C0DC
:102A400014F005D0FFFF13C013F014C014F0FFFF03
:102A50001200FFFFFFFF10D0FFFF37EC16F0000958
:102A6000D8A4FAD781C0D9FF82C0DAFFDF50D9ECF1
:102A700013F00001814B822BFFFF81C0D9FF82C080
:102A8000DAFFDF50D8B41200FFFFE6D7FFFFFFFFE9
:102A9000D00E0001826FFF0E836F80C084F081C072
:102AA00085F08251842783518523855106E10A0EE2
:102AB000845DD8B002D0010E02D0FFFF000EFFFFF0
:102AC000806F816B1200FFFFFFFFD00E036EFF0EC1
:102AD000046E01C005F002C006F003500526045044
:102AE0000622065006E10A0E055CD8B002D0010E9F
:102AF00002D0FFFF000EFFFF016E026A1200FFFF0F
:102B0000FFFF0FD0FFFF62EC16F00009D8A4FAD740
:102B100002C0D9FF03C0DAFFDF50CCEC14F0024A48
:102B2000032AFFFF02C0D9FF03C0DAFFDF50D8B489
:102B30001200FFFFE7D7FFFFFFFF80C082F081C0D8
:102B400083F004D0FFFF0001804B812BFFFF80C08A
:102B5000D9FF81C0DAFFDF50D8A4F4D70001825139
:102B6000805D806F83518159816F1200FFFFFFFFED
:102B700001C003F002C004F003D0FFFF014A022AA3
:102B8000FFFF01C0D9FF02C0DAFFDF50D8A4F5D79C
:102B90000350015C016E04500258026E1200FFFFE8
:102BA000FFFF0001816F80C0A9FF81C0A8FFA69E22
:102BB000A69CA684F29E550EA76EAA0EA76EA682AC
:102BC000F28EFFFFA1B81200FFFFFBD7FFFFFFFF50
:102BD000000180518203F3CF84F0F4CF85F080515F
:102BE0008303F350852781518203F350852784C0E6
:102BF00080F085C081F01200FFFFFFFF026E01C070
:102C0000A9FF02C0A8FFA69EA69CA684F29E550E10
:102C1000A76EAA0EA76EA682F28EFFFFA1B81200C1
:102C2000FFFFFBD7FFFFFFFF01500302F3CF05F0CB
:102C3000F4CF06F001500402F350062602500302BE
:102C4000F350062605C001F006C002F01200FFFF97
:102C5000FFFF0001816FFFFF37EC16F00009D8A4D9
:102C6000FAD700018151FDEC13F01200FFFFFFFFC6
:102C70000F0E0001806F9D0EFFFFE82EFDD7802F05
:102C8000FBD700D000F0000E1200FFFFFFFF000E88
:102C900000018011806F480E8111816F80C080F02B
:102CA00081C081F01200FFFFFFFF3B0E0001806F2B
:102CB000790EFFFFE82EFDD7802FFBD700D000F064
:102CC0001200FFFFFFFF0F0E016E9E0EFFFFE82EAA
:102CD000FDD7012EFBD7000E1200FFFFFFFF000102
:102CE000806F80C0A9FFA69EA69CA680A850120057
:102CF000FFFFFFFF0D0EFFFFE82EFDD700D01200F3
:102D0000FFFFFFFF0D0EFFFFE82EFDD700D01200E2
:102D1000FFFFFFFF1200FFFFFFFF1200FFFF0F1674
:072D20001303686D8401C577
:022D2800FFFFAB
:020000040020DA
:08000000FFFFFFFFFFFFFFFF00
:020000040030CA
:0E000000FF220C0EFF0081FF0FC00FE00F402B
:0200000400F00A
:100000007E030000000001007E03000000000100EC
:100010007E030000000001007E03000000000100DC
:080020007E0300000000010056
:00000001FF
