:020000040000FA
:060000000A128A11122809
:10000800FE00030E83120313B9000408BA000A089D
:10001800BB007F08BC000A128A15E72B0A128A1156
:10002800152883135330FD000A30FE007C30FF0092
:100038004C3084000A128A15E8220A128A11A0306C
:100048008400C2300A128A1583220A128A114430A7
:1000580084004C300A128A15832283010A128A11FD
:100068002A2C83160313D800CA30CE004E08D100BC
:100078000130C907FF30490784000A128A113D265A
:100088000A128A11CE004E08D90059080319B82956
:100098002530590603195C285908CE0058088400F1
:1000A8004E08831380000130CE004E08D8073C2844
:1000B800D601D701D301490884000A128A113D26C6
:1000C8000A128A110A128A15D4220A128A11031CEA
:1000D800B92883160313D601D7010A3083120313F4
:1000E800BD000030BE0083160313570883120313A4
:1000F800C00083160313560883120313BF000A12A5
:100108008A1579230A128A11831203133E0883166B
:100118000313D700831203133D0883160313D60075
:10012800490884000A128A113D260A128A11D03E13
:10013800CE00FF3003180030CF004E08D607031852
:10014800D70A4F08D7070130CE004E08C90749081B
:1001580084000A128A113D260A128A110A128A1587
:10016800D4220A128A110318712801308316031346
:10017800C907FF30490784000A128A113D260A126E
:100188008A11D900CE00CF014F08003A0319CD28B3
:100198003C284E08003A0319B829643A0319D828AC
:1001A8000D3A0319D8283C28510884008313000805
:1001B800D400840A0008D5000230CE004E08D107CA
:1001C800D51FEF280330CE004E08D304D409D50933
:1001D800D40A0319D50AD901D90A5908CE004E07FD
:1001E800013E84000A128A113D260A128A11CF00A4
:1001F8000A128A113D260A128A11D00050085502A7
:10020800031D08294F085402031C12290130CE008F
:100218004E08D90705305906031DF128560857041A
:10022800031920295308033903192029FF30D60759
:100238000318D70AFF30D7075708803A803C031DB8
:100248002729560859020318352983160313590814
:10025800CE00CF014E08D6024F08031CD703D702A1
:10026800392983160313D601D701560857040319F1
:1002780052292030CE00580884004E08831380008D
:100288000130CE004E08D807FF30D6070318D70A2A
:10029800FF30D70756085704031D3D295308033973
:1002A800031961292D30CE00580884004E088313A5
:1002B80080000130CE004E08D8075908CE004E08FD
:1002C800D200FF30CE004E08D207520A03193C284C
:1002D8000A30C5000030C6005208CE004E07013E65
:1002E80084000A128A113D260A128A118312031306
:1002F800BD000A128A113D260A128A11BE00831611
:100308000313550883120313C000831603135408FC
:1003180083120313BF000A128A154E270A128A1184
:10032800831203133E0883160313C80083120313B2
:100338003D0883160313C7000A128A15A5240A125A
:100348008A11831603134508303ECF004F08D900A1
:100358005908CE00580884004E08831380000130E5
:10036800CE004E08D80765295808840083138001F9
:10037800080083120313AD002130A5002508A8004A
:100388000130A007FF30200784000A128A113D2699
:100398000A128A11A5002508B00030080319202B7D
:1003A800253030060319E4293008A5002D088400FB
:1003B8002508831380000130A5002508AD07C4294E
:1003C800AE01AF01AA01200884000A128A113D2655
:1003D8000A128A110A128A15B7220A128A11031CF4
:1003E800332A83120313AE01AF010A30F000003044
:1003F800F100831203132F08F3002E08F2000A12EB
:100408008A1558230A128A11710883120313AF0040
:100418007008AE00200884000A128A113D260A12CC
:100428008A11D03EA500FF3003180030A600250829
:10043800AE070318AF0A2608AF070130A500250844
:10044800A007200884000A128A113D260A128A1180
:100458000A128A15B7220A128A110318F9290130DB
:1004680083120313A007FF30200784000A128A11A1
:100478003D260A128A11B000A500A6012608003AF6
:100488000319472AC4292508003A0319202B643A7E
:100498000319522A0D3A0319522AC429280884003C
:1004A80083130008AB00840A0008AC000230A500E2
:1004B8002508A807AC1F692A0330A5002508AA0447
:1004C800AB09AC09AB0A0319AC0AB001B00A300891
:1004D800A5002507013E84000A128A113D260A124A
:1004E8008A11A6000A128A113D260A128A11A7004B
:1004F80027082C02031D822A26082B02031C8C2A9B
:100508000130A5002508B00705303006031D6B2A09
:100518002E082F0403199A2A2A08033903199A2A3C
:10052800FF30AE070318AF0AFF30AF072F08803A35
:10053800803C031DA12A2E0830020318AF2A83121B
:1005480003133008A500A6012508AE022608031CDF
:10055800AF03AF02B32A83120313AE01AF012E0813
:100568002F040319CC2A2030A5002D088400250863
:10057800831380000130A5002508AD07FF30AE07C2
:100588000318AF0AFF30AF072E082F04031DB72A40
:100598002A0803390319DB2A2D30A5002D08840009
:1005A8002508831380000130A5002508AD07300811
:1005B800A5002508A900FF30A5002508A907290AD4
:1005C8000319C4290A30F8000030F9002908A500E9
:1005D8002507013E84000A128A113D260A128A1153
:1005E800F0000A128A113D260A128A11F1002C081D
:1005F800F3002B08F2000A128A11C4270A128A1182
:100608007108FB007008FA000A128A153D240A12C4
:100618008A117808303E83120313A6002608B0001A
:100628003008A5002D0884002508831380000130B8
:10063800A5002508AD07DF2A2D0884008313800153
:10064800080083120313C701C70A32308316031345
:10065800DA005A08C900B1300A128A1135200A1284
:100668008A11C83083160313C2000030C3000A126F
:100678008A1578250A128A1183120313051E402B46
:10068800851A9E2B0430450238300319440203189A
:10069800532B0130C4070318C50A0030C5070430BE
:1006A8004502393003194402031C5E2B3830C4005C
:1006B8000430C500643083160313C2000030C30041
:1006C8000A128A1578250A128A1103308316031331
:1006D800DC008A30DB005530DA00DA0B712BDB0BDB
:1006E800712BDC0B712B83120313851A9E2B04309C
:1006F80045023830031944020318882B0130C40717
:100708000318C50A0030C5070430450239300319FB
:100718004402031C932B3830C4000430C5008230D7
:1007280083160313DB00DD30DA00DA0B992BDB0BC1
:10073800992B772B8519F82B033045027130031953
:100748004402031CAD2B0130C4020030031CC50356
:10075800C502033045027030031944020318B82B50
:100768007030C4000330C500643083160313C20020
:100778000030C3000A128A1578250A128A1103303C
:1007880083160313DC008A30DB005530DA00DA0BFD
:10079800CB2BDB0BCB2BDC0BCB2B83120313851959
:1007A800F82B03304502713003194402031CE22B75
:1007B8000130C4020030031CC503C50203304502E2
:1007C8007030031944020318ED2B7030C400033055
:1007D800C500823083160313DB00DD30DA00DA0B44
:1007E800F32BDB0BF32BD12B051A442B0330831689
:1007F8000313DC008A30DB005530DA00DA0B022CF8
:10080800DB0B022CDC0B022C83120313051A442B7E
:1008180001300A128A110A270A128A11E83083164F
:100828000313C2000330C3000A128A1578250A127E
:100838008A11831203134508C0004408BF000A1236
:100848008A11BF2583120313C701080083160313F7
:10085800E301823083160313E200DD30E100E10B8F
:10086800332CE20B332C0A128A1512240A128A112D
:10087800643083160313C2000030C3000A128A15BD
:1008880078250A128A110A128A1167270A128A1110
:100898000A3083160313C2000030C3000A128A15F7
:1008A80078250A128A1183120313051A6F2C213036
:1008B80083160313E2007530E100E10B612CE20BB3
:1008C800612C662C83120313051A6F2C0A128A11E5
:1008D80025230A128A11823083160313E200DD30C1
:1008E800E100E10B752CE20B752C8312031345080C
:1008F800C0004408BF000A128A11BF250A128A11D3
:10090800643083160313C2000030C3000A128A152C
:1009180078250A128A118B13213083160313E100FC
:100928006108C900B1300A128A1135200A128A11E9
:10093800543083160313E1006108C900A0300A127D
:100948008A1135200A128A1100300A128A15A9263E
:100958000A128A11B1300A128A159C230A128A11C6
:1009680040300A128A15A9260A128A11A0300A12E2
:100978008A159C230A128A11753083160313E20024
:10098800E030E100E10BC62CE20BC62C0000013080
:1009980083160313E1006108E30732306302031C86
:1009A800902C8B174330E1006108C900B1300A125E
:1009B8008A1135200A128A110A128A11A7260A12E8
:1009C8008A11831203134803031DF12C0130831687
:1009D8000313C7000030C800F62C00308316031339
:1009E800C700C8000A128A156F240A128A114130FA
:1009F80083160313E200ED30E100E10B012DE20B59
:100A0800012D062DE52C83120313C3000F30C100FE
:100A1800410886050F30C100410883160313860577
:100A2800061186108611831203130611861086118B
:100A38000A128A159E220A128A1130300A128A1561
:100A48000F260A128A11073083120313C2007C3062
:100A5800C100C10B2D2DC20B2D2D000030300A1204
:100A68008A150F260A128A11C73083120313C10090
:100A78003D2DC10B3C2D402D32300A128A150F2610
:100A88000A128A110A128A15AA220A128A11003A2F
:100A9800031D462D0A128A15AA220A128A11003A43
:100AA800031D4E2D8312031343080A128A150F26BD
:100AB8000A128A110A128A15AA220A128A11003AFF
:100AC800031D5E2D08300A128A150F260A128A1194
:100AD8000A128A15AA220A128A11003A031D6C2DDD
:100AE8000F300A128A150F260A128A110A128A155D
:100AF800AA220A128A11003A031D7A2D01300A121D
:100B08008A150F260A128A110A128A15AA220A12AF
:100B18008A11003A031D882D05300A128A150F26FE
:100B28000A128A110A128A15AA220A128A11003A8E
:100B3800031D962D06300A128A150F260A128A11ED
:100B48000A128A15AA220A128A11003A031DA42D34
:100B580080300A128A15A9260A128A110A128A15E1
:100B6800AA220A128A11003A031DB22D0D300A1268
:100B78008A150F260800831203134008BE003F0899
:100B8800BD000A128A158B220A128A1183120313D6
:100B98003E0883160313C300831203133D0883160C
:100BA8000313C200831203130715C73083120313FC
:100BB800C100DE2DC10BDD2DE12D83160313C60107
:100BC800430883120313C2008316031342088312D7
:100BD8000313C10083160313460AF72D8312031368
:100BE8000310C20CC10CFF3E031DF22D013041055C
:100BF80083160313C40000308312031342058316BF
:100C08000313C50044034504031D0E2E831203136A
:100C18000716112E831203130712C730831203130A
:100C2800C100162EC10B152E192E8312031387151A
:100C3800C73083120313C100212EC10B202E242E8E
:100C48008312031387110130C1004108831603136F
:100C5800C60710304602031CE42DC7308312031365
:100C6800C100362EC10B352E392E831203130711FE
:100C7800080006308A000408840A82070034013418
:100C880000340A34003464340034E8340334103453
:100C980027340D3406340134003446345234453494
:100CA80051342E34203420342534333464342E34F3
:100CB8002534643420344D3448347A3400344C3488
:100CC8004F3443344B3449344E3447342034203481
:100CD800203420342034203420342034203400348C
:100CE8005334453454342034203420344634523478
:100CF80045345134553445344E3443345934203412
:100D0800003441344D34503452344F34203420347C
:100D18002034203420342034453458342D3446349B
:100D28004D3400342034203420342034203420340E
:100D380020344634523445345134553445344E34D5
:100D48004334593400340A3083160313C500003085
:100D5800C60083120313450883160313C8008312C1
:100D68000313440883160313C7000A128A15A5241F
:100D78000A128A11831603134508DA005A08DF009D
:100D88000A3083120313BD000030BE004508C000BE
:100D98004408BF000A128A154E270A128A118312C4
:100DA80003133D0883160313DA005A08E0000F30D6
:100DB800DA005A08C9006008DB00DC015B08CA00D9
:100DC8005C08CB005F08DD00DE015D08CC005E0832
:100DD800CD00A0300A128A1135200A128A1140303B
:100DE8000A128A15A9260A128A11A0300A128A152F
:100DF8009C230A128A1100300A128A15A9260A129F
:100E08008A11B1300A128A159C2308008312031331
:100E1800C2004408BF003F08C0004508BF003F08A3
:100E2800C100420803191F2FBD0140080A128A1584
:100E38003B230A128A1183120313420803192C2F29
:100E4800BD01BD0A41080A128A153B230A128A11FC
:100E5800023083120313BF003F08BD0050080A1276
:100E68008A153B230A128A11033083120313BF0029
:100E78003F08BD004F080A128A153B230A128A113F
:100E8800043083120313BF003F08BD004E080A1246
:100E98008A153B230A128A11053083120313BF00F7
:100EA8003F08BD004D080A128A153B230A128A1111
:100EB800063083120313BF003F08BD0048080A121A
:100EC8008A153B23080000300A128A15C5220A1227
:100ED8008A1183120313BE003E08C20001300A12B1
:100EE8008A15C5220A128A1183120313BE003E080E
:100EF800C300C401C5014208BE00BF014308C000C9
:100F0800C1014008C100C0013E084004C4003F08B8
:100F18004104C50002300A128A15C5220A128A1134
:100F280083120313BE003E08D00003300A128A154C
:100F3800C5220A128A1183120313BE003E08CF008D
:100F480004300A128A15C5220A128A118312031361
:100F5800BE003E08CE0005300A128A15C5220A12C4
:100F68008A1183120313BE003E08CD0006300A1210
:100F78008A15C52283120313BE003E08C800080064
:100F8800F501F601700871040319FB2FF701F70A40
:100F9800F11BDA2F01300310F00DF10DFF3E031D98
:100FA800CF2F0130F4007408F707CC2F013003105D
:100FB800F50DF60DFF3E031DDB2F71087302031DAF
:100FC800E72F70087202031CF02F7008F2027108F4
:100FD800031CF303F302751401300310F10CF00C39
:100FE800FF3E031DF12F0130F702031DDA2F7608AB
:080FF800F1007508F00008008B
:1014DE000530F000F00B712A742A080005308312D3
:1014EE000313BD00BD0B792A080001340F341634E6
:1014FE00133403343C34B03464008001840A04068F
:10150E00031900340406842A0030831203133D04A9
:10151E00BD0048303E04BE0008000730F1007D30AB
:10152E00F000F00B982AF10B982A003008001A30C0
:10153E0083120313BE00F730BD00BD0BA42ABE0BF1
:10154E00A42AA92A0800073083120313BE007C3098
:10155E00BD00BD0BB02ABE0BB02A00000030080043
:10156E00F100F0013A3071020318C32A30307102D3
:10157E00031CC32AF001F00A700C08008312031337
:10158E00BD003D08831203178D00831603178C13BD
:10159E000C14831203170C08080083120313BE00E9
:1015AE00BD013A303E020318E22A30303E02031CDF
:1015BE00E22ABD01BD0A3D0C08007E088A007F08A4
:1015CE008200E4220A128A158000840A04087D062D
:1015DE0003190034FF0A0319FE0AE82A83120313C3
:1015EE00C1000A128A15AA220A128A15003A031D90
:1015FE00F82A8312031341080A128A150F260800CF
:10160E00F1007008831203178D0071088C00831689
:10161E0003178C130C158B1355308D00AA308D00CB
:10162E008C148B17831203130D1A0800192BF50057
:10163E007508840083130008031908000A128A151E
:10164E0094220A128A15003A031D252B7508840070
:10165E00831300080A128A152D250A128A150130E5
:10166E00F4007408F5071F2B83120313BE003D0808
:10167E00831203178D00831203133E088312031780
:10168E008C00831603178C130C158B1355308D009D
:10169E00AA308D008C148B17831203130D1A0800B9
:1016AE00532BF401F501701C622B7208F40703181A
:1016BE00F50A7308F50701300310F20DF30DFF3E26
:1016CE00031D632B01300310F10CF00CFF3E031DC4
:1016DE006A2B70087104031D5A2B7508F1007408EB
:1016EE00F000080083120313C101C2013D1C852BBB
:1016FE003F08C1070318C20A4008C2070130031091
:10170E00BF0DC00DFF3E031D862B01300310BE0C16
:10171E00BD0CFF3E031D8D2B3D083E04031D7D2B8E
:10172E004208BE004108BD00080083120313C20028
:10173E004208840083130008031908000A128A1550
:10174E00AA220A128A15003A031DA52B831203132F
:10175E0042088400831300080A128A155C260A12B6
:10176E008A15013083120313C1004108C2079F2B53
:10177E0028300A128A1107250A128A15823083161A
:10178E000313C300DD30C200C20BCB2BC30BCB2B1C
:10179E000D300A128A15F5220A128A1506300A121F
:1017AE008A15F5220A128A15413083160313C300D7
:1017BE00ED30C200C20BE12BC30BE12BE62B080070
:1017CE008B130C1C062C51088F0052088E00013012
:1017DE00B8003808CB070A128A15E5240A128A15B2
:1017EE000A30831203134B06031D032CCB010A127E
:1017FE008A15F7260A128A15831203130C108B17FB
:10180E003C08FF003B088A003A088400390E83002A
:10181E00FE0E7E0E090040308B000130831603133E
:10182E008C003830850086018701831203138501F1
:10183E0086018701113090009F01831603139F01CB
:10184E0083160317880189010A128A15BF230A120B
:10185E008A158312031310148B170030831603138B
:10186E00C700C8000A128A156F2408007808790488
:10187E0003196A2CFD01FD0AF91B512C01300310CE
:10188E00F80DF90DFF3E031D462C0130FC007C08BF
:10189E00FD07432C79087B02031D572C78087A022A
:1018AE00031C5F2C7808FA027908031CFB03FB0269
:1018BE0001300310F90CF80CFF3E031D602C0130B3
:1018CE00FD02031D512C7B08F9007A08F800080070
:1018DE008316031347034804031D8D2C8312031331
:1018EE0007148710033083160313CA009730C900FC
:1018FE00C90B7F2CCA0B7F2C831203134508C00023
:10190E004408BF000A128A11BF2508008312031370
:10191E0007108714033083160313CA009730C900CB
:10192E00C90B972CCA0B972CDA3083120313BF0006
:10193E000230C0000A128A11BF2508008316031355
:10194E00450846040319DE2C83120313C301C30A90
:10195E0083160313C61BC12C01300310C50DC60D13
:10196E00FF3E031DB42C013083120313C200420844
:10197E00C307AF2C8316031346084802031DC92C58
:10198E0045084702031CD12C4508C7024608031C14
:10199E00C803C80201300310C60CC50CFF3E031D60
:1019AE00D22C013083120313C302031DC12C8316E4
:1019BE0003134808C6004708C50008000130F600AA
:1019CE00760883120313C9070A304902031C080064
:1019DE00C9010130F6007608CA073C304A02031CE2
:1019EE000800CA010130F6007608CD0700300A1251
:1019FE008A15A5270A128A153C30831203134D024D
:101A0E00031C0800CD010130F6007608CE07183011
:101A1E004E02031C0800CE010130F6007608CF07F7
:101A2E001E304F02031C202DCF010130F600760828
:101A3E00D0070D304F06031D2A2D06305006031D0C
:101A4E002A2DC8010800C801C80A0800F3000F308B
:101A5E00F10071088316031386050F30F10071082B
:101A6E008312031386057308F039F100710886049A
:101A7E00861406110A128A156F220A128A1583120B
:101A8E00031386150A128A156F220A128A158312FB
:101A9E00031386110F30F100710886057308F100EB
:101AAE0003300310F10DFF3E031D582D0310710D71
:101ABE00F039F200720886040A128A156F220A1291
:101ACE008A158312031386150A128A156F22831242
:101ADE0003138611F030F100710883160313860488
:101AEE000800053083120313BD000030BE008316BC
:101AFE000313430883120313C00083160313420813
:101B0E0083120313BF000A128A1579230A128A154B
:101B1E00831203133E0883160313C30083120313A9
:101B2E003D0883160313C2004308803AFF0080303D
:101B3E007F02031DA42D01304202031C08008312F4
:101B4E0003130614203083120313C300C30BAD2DF1
:101B5E000000831203130610203083120313C300F8
:101B6E00C30BB72D0000FF3083160313C2070318F3
:101B7E00C30AFF30C3079B2DF3000F30F10071082D
:101B8E008316031386050F30F100710883120313B9
:101B9E00860573088038F039F10071088604061145
:101BAE0086100A128A156F220A128A1583120313DF
:101BBE0086150A128A156F220A128A1583120313CA
:101BCE0086110F30F100710886057308F10003309D
:101BDE000310F10DFF3E031DEF2D0310710DF039B3
:101BEE00F200720886040A128A156F220A128A15EA
:101BFE008312031386150A128A156F22831203139A
:101C0E008611F030F1007108831603138604080064
:101C1E0083120313C0000F30BE003E088316031359
:101C2E0086050F3083120313BE003E08860540085A
:101C3E00F039BE003E088604061186100A128A1577
:101C4E0075220A128A158312031386150A128A1533
:101C5E0075220A128A158312031386110F30BE00E5
:101C6E003E0886054008BE0003300310BE0DFF3E41
:101C7E00031D3C2E03103E0DF039BF003F088604B5
:101C8E000A128A1575220A128A15831203138615F3
:101C9E000A128A157522831203138611F030BE00C4
:101CAE003E08831603138604080083120313C00034
:101CBE000F30BE003E088316031386050F308312C5
:101CCE000313BE003E0886054008F039BE003E08EC
:101CDE008604861406110A128A1575220A128A15AE
:101CEE008312031386150A128A1575220A128A1593
:101CFE008312031386110F30BE003E08860540087E
:101D0E00BE0003300310BE0DFF3E031D892E0310CF
:101D1E003E0DF039BF003F0886040A128A1575225F
:101D2E000A128A158312031386150A128A15752252
:101D3E00831203138611F030BE003E088316031380
:101D4E008604080083120313C0000F30BE003E0845
:101D5E008316031386050F3083120313BE003E084D
:101D6E00860540088038F039BE003E08860406110C
:101D7E0086100A128A1575220A128A158312031307
:101D8E0086150A128A1575220A128A1583120313F2
:101D9E0086110F30BE003E0886054008BE00033097
:101DAE000310BE0DFF3E031DD72E03103E0DF0395E
:101DBE00BF003F0886040A128A1575220A128A1578
:101DCE008312031386150A128A15752283120313C2
:101DDE008611F030BE003E088316031386040800F9
:101DEE000A30F8000030F900831203134508FB0097
:101DFE004408FA000A128A153D240A128A15780838
:101E0E0083120313B1003108B6000A30F00000301F
:101E1E00F1004508F3004408F2000A128A11C427A3
:101E2E000A128A15700883120313B1003108B70025
:101E3E000F30B1003108A0003708B200B3013208EC
:101E4E00A1003308A2003608B400B5013408A3007F
:101E5E003508A400A0300A128A11BD210A128A1573
:101E6E0040300A128A15C3250A128A15A0300A12AA
:101E7E008A151E230A128A1500300A128A15C325E6
:101E8E000A128A15B1300A128A151E23080083160B
:101E9E000313C301C401831203133D083E04031947
:101EAE00982F83160313C201C20A83120313BE1B9B
:101EBE006E2F01300310BD0DBE0DFF3E031D612FB1
:101ECE000130C100410883160313C2075C2F013095
:101EDE00831603130310C30DC40DFF3E031D712F94
:101EEE00831203133E084002031D7F2F3D083F025D
:101EFE00031C8A2F3D08BF023E08031CC003C0020C
:101F0E00831603134314013083120310BE0CBD0C51
:101F1E00FF3E031D8C2F013083160313C202031DD7
:101F2E006E2F83160313440883120313BE00831609
:101F3E000313430883120313BD000800F500831238
:101F4E0003134408F2007208F3004508F200720809
:101F5E00F40075080319BA2FF00173080A128A15D6
:101F6E0007230A128A1575080319C52FF001F00A06
:101F7E0074080A128A1507230A128A150230F20013
:101F8E007208F0008312031350080A128A150723F1
:101F9E000A128A150330F2007208F000831203133E
:101FAE004F080A128A1507230A128A150430F20006
:101FBE007208F000831203134E080A128A150723C3
:101FCE000A128A150530F2007208F000831203130C
:101FDE004D080A128A1507230A128A150630F200D6
:101FEE007208F0008312031348080A128A15072399
:021FFE000800D9
:04400E0031E0FFFF9F
:104200007E0003000000000000000000010000002C
:104210007E0003000000000000000000010000001C
:104220007E0003000000000000000000010000000C
:104230007E000300000000000000000001000000FC
:104240007E000300000000000000000001000000EC
:00000001FF
