:020000040000FA
:060000000A128A11122809
:10000800FE00030E83120313B9000408BA000A089D
:10001800BB007F08BC000A128A15A22A0A128A119C
:10002800152883135330FD000930FE007130FF009E
:100038004C3084000A128A15DD210A128A11A03078
:100048008400C3300A128A1578210A128A114430B2
:1000580084004C300A128A15782183010A128A1109
:100068009B2D83160313D900CB30CF004F08D20045
:100078000130CA07FF304A0784000A128A15002097
:100088000A128A11CF004F08DA005A080319B82952
:1000980025305A0603195C285A08CF0059088400ED
:1000A8004F08831380000130CF004F08D9073C2840
:1000B800D701D801D4014A0884000A128A15002001
:1000C8000A128A110A128A15C9210A128A11031CF6
:1000D800B92883160313D701D8010A3083120313F2
:1000E800BD000030BE0083160313580883120313A3
:1000F800C00083160313570883120313BF000A12A4
:100108008A155C220A128A11831203133E08831689
:100118000313D800831203133D0883160313D70073
:100128004A0884000A128A1500200A128A11D03E51
:10013800CF00FF3003180030D0004F08D70703184E
:10014800D80A5008D8070130CF004F08CA074A0814
:1001580084000A128A1500200A128A110A128A15C6
:10016800C9210A128A110318712801308316031352
:10017800CA07FF304A0784000A128A1500200A12AB
:100188008A11DA00CF00D0015008003A0319CD28AF
:100198003C284F08003A0319B829643A0319D828AB
:1001A8000D3A0319D8283C28520884008313000804
:1001B800D500840A0008D6000230CF004F08D207C5
:1001C800D61FEF280330CF004F08D404D509D6092D
:1001D800D50A0319D60ADA01DA0A5A08CF004F07F6
:1001E800013E84000A128A1500200A128A11D000E2
:1001F8000A128A1500200A128A11D10051085602E3
:10020800031D082950085502031C12290130CF008C
:100218004F08DA0705305A06031DF1285708580415
:10022800031920295408033903192029FF30D70757
:100238000318D80AFF30D8075808803A803C031DB5
:10024800272957085A0203183529831603135A0811
:10025800CF00D0014F08D7025008031CD803D8029A
:10026800392983160313D701D801570858040319ED
:1002780052292030CF00590884004F08831380008A
:100288000130CF004F08D907FF30D7070318D80A25
:10029800FF30D80757085804031D3D29540803396F
:1002A800031961292D30CF00590884004F088313A2
:1002B80080000130CF004F08D9075A08CF004F08F7
:1002C800D300FF30CF004F08D307530A03193C2847
:1002D8000A30C6000030C7005308CF004F07013E60
:1002E80084000A128A1500200A128A118312031345
:1002F800BD000A128A1500200A128A11BE00831650
:100308000313560883120313C000831603135508FA
:1003180083120313BF000A128A153A260A128A1199
:10032800831203133E0883160313C90083120313B1
:100338003D0883160313C8000A128A15E8230A1217
:100348008A11831603134608303ED0005008DA009D
:100358005A08CF00590884004F08831380000130E1
:10036800CF004F08D90765295908840083138001F5
:10037800080083120313AD002130A5002508A8004A
:100388000130A007FF30200784000A128A150020D8
:100398000A128A11A5002508B00030080319202B7D
:1003A800253030060319E4293008A5002D088400FB
:1003B8002508831380000130A5002508AD07C4294E
:1003C800AE01AF01AA01200884000A128A15002094
:1003D8000A128A110A128A15AC210A128A11031C00
:1003E800332A83120313AE01AF010A30F000003044
:1003F800F100831203132F08F3002E08F2000A12EB
:100408008A153B220A128A11710883120313AF005E
:100418007008AE00200884000A128A1500200A120B
:100428008A11D03EA500FF3003180030A600250829
:10043800AE070318AF0A2608AF070130A500250844
:10044800A007200884000A128A1500200A128A11BF
:100458000A128A15AC210A128A110318F9290130E7
:1004680083120313A007FF30200784000A128A159D
:1004780000200A128A11B000A500A6012608003A39
:100488000319472AC4292508003A0319202B643A7E
:100498000319522A0D3A0319522AC429280884003C
:1004A80083130008AB00840A0008AC000230A500E2
:1004B8002508A807AC1F692A0330A5002508AA0447
:1004C800AB09AC09AB0A0319AC0AB001B00A300891
:1004D800A5002507013E84000A128A1500200A1289
:1004E8008A11A6000A128A1500200A128A11A7008A
:1004F80027082C02031D822A26082B02031C8C2A9B
:100508000130A5002508B00705303006031D6B2A09
:100518002E082F0403199A2A2A08033903199A2A3C
:10052800FF30AE070318AF0AFF30AF072F08803A35
:10053800803C031DA12A2E0830020318AF2A83121B
:1005480003133008A500A6012508AE022608031CDF
:10055800AF03AF02B32A83120313AE01AF012E0813
:100568002F040319CC2A2030A5002D088400250863
:10057800831380000130A5002508AD07FF30AE07C2
:100588000318AF0AFF30AF072E082F04031DB72A40
:100598002A0803390319DB2A2D30A5002D08840009
:1005A8002508831380000130A5002508AD07300811
:1005B800A5002508A900FF30A5002508A907290AD4
:1005C8000319C4290A30F8000030F9002908A500E9
:1005D8002507013E84000A128A1500200A128A1192
:1005E800F0000A128A1500200A128A11F1002C085C
:1005F800F3002B08F2000A128A15AC230A128A119A
:100608007108FB007008FA000A128A1544230A12BE
:100618008A117808303E83120313A6002608B0001A
:100628003008A5002D0884002508831380000130B8
:10063800A5002508AD07DF2A2D0884008313800153
:10064800080083120313C701C70A43308316031334
:10065800DB005B08CA00B2300A128A1135200A1280
:100668008A11C83083160313C3000030C4000A126D
:100678008A15BB240A128A1183120313051E402B04
:1006880085199E2B0430450238300319440203189B
:10069800532B0130C4070318C50A0030C5070430BE
:1006A8004502393003194402031C5E2B3830C4005C
:1006B8000430C500643083160313C3000030C4003F
:1006C8000A128A15BB240A128A11033083160313EF
:1006D800DD008A30DC005530DB00DB0B712BDC0BD6
:1006E800712BDD0B712B8312031385199E2B04309C
:1006F80045023830031944020318882B0130C40717
:100708000318C50A0030C5070430450239300319FB
:100718004402031C932B3830C4000430C5008230D7
:1007280083160313DC00DD30DB00DB0B992BDC0BBD
:10073800992B772B851AF82B033045027130031952
:100748004402031CAD2B0130C4020030031CC50356
:10075800C502033045027030031944020318B82B50
:100768007030C4000330C500643083160313C3001F
:100778000030C4000A128A15BB240A128A110330F9
:1007880083160313DD008A30DC005530DB00DB0BF9
:10079800CB2BDC0BCB2BDD0BCB2B83120313851A56
:1007A800F82B03304502713003194402031CE22B75
:1007B8000130C4020030031CC503C50203304502E2
:1007C8007030031944020318ED2B7030C400033055
:1007D800C500823083160313DC00DD30DB00DB0B41
:1007E800F32BDC0BF32BD12B051A442B0330831688
:1007F8000313DD008A30DC005530DB00DB0B022CF4
:10080800DC0B022CDD0B022C83120313051A442B7C
:1008180001300A128A15A3270A128A11E8308316B2
:100828000313C3000330C4000A128A15BB240A123A
:100838008A11831203134508C0004408BF000A1236
:100848008A116C270A128A1183120313C7011930FF
:10085800831603132002031808002130DB005B080D
:10086800CA00B2300A128A1135200A128A1187305A
:1008780083160313DB005B08CA00A1300A128A1131
:1008880035200A128A1100300A128A15EC250A123C
:100898008A11B2300A128A157F220A128A11403050
:1008A8000A128A15EC250A128A11A1300A128A1531
:1008B8007F220A128A11753083160313DC00E03098
:1008C800DB00DB0B652CDC0B652C0000013083168C
:1008D8000313DB005B08A0072B2C8B138316031371
:1008E800DE01031083120313871C0314031C802CDE
:1008F800831203138714832C831203138710323057
:1009080083160313DB005B08CA00B2300A128A118F
:1009180035200A128A11983083160313DB005B080E
:10092800CA00A1300A128A1135200A128A11003031
:100938000A128A15EC250A128A11B2300A128A158F
:100948007F220A128A1140300A128A15EC250A12EF
:100958008A11A1300A128A157F220A128A1182305E
:1009680083160313DC00DD30DB00DB0BB92CDC0B5A
:10097800B92C013083160313DB005B08DE070A304D
:100988005E02031C762C831203138710831603134D
:10099800DE01031083120313871D0314031CD82CD4
:1009A800831203138715DB2C83120313871132304C
:1009B80083160313DB005B08CA00B2300A128A11DF
:1009C80035200A128A11543083160313DB005B08A2
:1009D800CA00A1300A128A1135200A128A11003081
:1009E8000A128A15EC250A128A11B2300A128A15DF
:1009F8007F220A128A1140300A128A15EC250A123F
:100A08008A11A1300A128A157F220A128A118230AD
:100A180083160313DC00DD30DB00DB0B112DDC0B50
:100A2800112D013083160313DB005B08DE0712303B
:100A38005E02031CCE2C8312031387118316031343
:100A4800DE01031083120313071D0314031C302D4A
:100A5800831203130715332D831203130711323042
:100A680083160313DB005B08CA00B2300A128A112E
:100A780035200A128A11763083160313DB005B08CF
:100A8800CA00A1300A128A1135200A128A110030D0
:100A98000A128A15EC250A128A11B2300A128A152E
:100AA8007F220A128A1140300A128A15EC250A128E
:100AB8008A11A1300A128A157F220A128A118230FD
:100AC80083160313DC00DD30DB00DB0B692DDC0B48
:100AD800692D013083160313DB005B08DE070F3036
:100AE8005E02031C262D831203130711FA308316A6
:100AF8000313C3000030C4000A128A15BB240A126B
:100B08008A118B17033083160313DD008A30DC004B
:100B18005530DB00DB0B8E2DDC0B8E2DDD0B8E2D87
:100B2800831203138714871507158B170800823063
:100B380083160313E000DD30DF00DF0BA12DE00B8F
:100B4800A12D0A128A1518230A128A1164308316F5
:100B58000313C3000030C4000A128A15BB240A120A
:100B68008A110A128A1546270A128A110A30831630
:100B78000313C3000030C4000A128A15BB240A12EA
:100B88008A1183120313051ADD2D213083160313EE
:100B9800E0007530DF00DF0BCF2DE00BCF2DD42D1B
:100BA80083120313051ADD2D0A128A1125230A124E
:100BB8008A11823083160313E000DD30DF00DF0B7B
:100BC800E32DE00BE32D831203134508C00044080E
:100BD800BF000A128A116C270A128A110A128A1196
:100BE80071240A128A1100300A128A15EC250A1299
:100BF8008A1165300A128A15EE220A128A110A3001
:100C080083160313C6000030C70083120313450878
:100C180083160313C90083120313440883160313AE
:100C2800C8000A128A15E8230A128A1183160313C8
:100C38004608DF005F08E4000A3083120313BD0092
:100C48000030BE004508C0004408BF000A128A15DB
:100C58003A260A128A11831203133D0883160313D6
:100C6800DF005F08E5000F30DF005F08CA00650895
:100C7800E000E1016008CB006108CC006408E200F4
:100C8800E3016208CD006308CE00A1300A128A1180
:100C980035200A128A1140300A128A15EC250A12E8
:100CA8008A11A1300A128A157F220A128A11831228
:100CB80003134508C0004408BF000A128A116C27B4
:100CC8000A128A11831203134803031D722E01307E
:100CD80083160313C8000030C900772E003083162E
:100CE8000313C800C9000A128A1576230A128A114A
:100CF80083120313051A662E213083160313E000AE
:100D08007530DF00DF0B862EE00B862E8B2E8316C8
:100D18000313A00165302002031CAC2E83120313B9
:100D2800051EA52E213083160313E0007530DF0061
:100D3800DF0B9C2EE00B9C2EA12E83120313051AA9
:100D4800AC2E013083160313DF005F08A0078E2E38
:100D58008B130A128A1125230A128A118B178B2EDC
:100D680083120313C3000F30C100410886050F30FA
:100D7800C1004108831603138605061186108611E3
:100D8800831203130611861086110A128A159321FD
:100D98000A128A1130300A128A1552250A128A114B
:100DA800073083120313C2007C30C100C10BDA2E56
:100DB800C20BDA2E000030300A128A1552250A12A8
:100DC8008A11C73083120313C100EA2EC10BE92E22
:100DD800ED2E32300A128A1552250A128A110A1289
:100DE8008A159F210A128A11003A031DF32E0A124E
:100DF8008A159F210A128A11003A031DFB2E8312BD
:100E0800031343080A128A1552250A128A110A1274
:100E18008A159F210A128A11003A031D0B2F0830E8
:100E28000A128A1552250A128A110A128A159F2156
:100E38000A128A11003A031D192F0F300A128A1557
:100E480052250A128A110A128A159F210A128A113A
:100E5800003A031D272F01300A128A1552250A125B
:100E68008A110A128A159F210A128A11003A031D53
:100E7800352F05300A128A1552250A128A110A12CC
:100E88008A159F210A128A11003A031D432F063042
:100E98000A128A1552250A128A110A128A159F21E6
:100EA8000A128A11003A031D512F80300A128A153E
:100EB800EC250A128A110A128A159F210A128A1130
:100EC800003A031D5F2F0D300A128A1552250800BB
:100ED800831203134008BE003F08BD000A128A159A
:100EE80080210A128A11831203133E088316031302
:100EF800C400831203133D0883160313C30083122F
:100F080003138716C73083120313C1008B2FC10B3D
:100F18008A2F8E2F83160313C701440883120313E5
:100F2800C20083160313430883120313C1008316F8
:100F38000313470AA42F831203130310C20CC10C16
:100F4800FF3E031D9F2F0130410583160313C50083
:100F5800003083120313420583160313C6004503AA
:100F68004604031DBB2F831203138717BE2F83125A
:100F780003138713C73083120313C100C32FC10B98
:100F8800C22FC62F831203130717C7308312031308
:100F9800C100CE2FC10BCD2FD12F831203130713FE
:100FA8000130C100410883160313C70710304702F8
:100FB800031C912FC73083120313C100E32FC10B09
:100FC800E22FE62F831203138712080083120313FC
:100FD800C1000A128A159F210A128A11003A031DBC
:100FE800ED2F8312031341080A128A1552250800AF
:1010000008308A000408840A82070034013400345E
:101010000A34003464340034E834033410342734A0
:101020000D340634013400344634523445345134DE
:101030002E34203420342534333464342E34253493
:10104000643420344D3448347A3400344C344F34D2
:1010500043344B3449344E34473420342034203424
:1010600020342034203420342034203400345434CC
:1010700045345334543449344E34473420342034C6
:1010800020342034203420342034203420340034E0
:1010900053344534543420342034203446345234CC
:1010A00045345134553445344E3443345934203466
:1010B0000034203420342034203420345434453457
:1010C0004D34503445345234413454345534523410
:1010D0004534003441344D34503452344F3420348C
:1010E00020342034203420342034453458342D34F6
:1010F00046344D340034203420342034203420341D
:10110000203420342034203420342034203420343F
:1011100053345734523400342034203420342034B3
:10112000203420342034463452344534513455343C
:1011300045344E3443345934003420342034203480
:1011400020342034203420342034203420345334CC
:0C1150005534503450344C3459340034C1
:1012C8000530F000F00B6629692908000530831203
:1012D8000313BD00BD0B6E29080001340F3416340A
:1012E800133403343C34B03464008001840A0406A7
:1012F80003190034040679290030831203133D04CE
:10130800BD0048303E04BE0008000730F1007D30C3
:10131800F000F00B8D29F10B8D29003008001A30F0
:1013280083120313BE00F730BD00BD0B9929BE0B15
:1013380099299E290800073083120313BE007C30C8
:10134800BD00BD0BA529BE0BA52900000030080073
:10135800F100F0013A3071020318B82930307102F7
:10136800031CB829F001F00A700C0800831203135B
:10137800BD003D08831203178D00831603178C13D5
:101388000C14831203170C08080083120313BE0001
:10139800BD013A303E020318D72930303E02031C03
:1013A800D729BD01BD0A3D0C08007E088A007F08C8
:1013B8008200D9210A128A158000840A04087D0651
:1013C80003190034FF0A0319FE0ADD29F100700829
:1013D800831203178D0071088C00831603178C1372
:1013E8000C158B1355308D00AA308D008C148B177B
:1013F800831203130D1A0800FC29F50075088400F0
:1014080083130008031908000A128A1589210A1291
:101418008A15003A031D082A7508840083130008FA
:101428000A128A1570240A128A150130F400740809
:10143800F507022A83120313BE003D08831203171F
:101448008D00831203133E08831203178C00831642
:1014580003178C130C158B1355308D00AA308D0093
:101468008C148B17831203130D1A0800362AF40103
:10147800F501701C452A7208F4070318F50A730869
:10148800F50701300310F20DF30DFF3E031D462A48
:1014980001300310F10CF00CFF3E031D4D2A7008BB
:1014A8007104031D3D2A7508F1007408F000080056
:1014B80083120313C101C2013D1C682A3F08C107FA
:1014C8000318C20A4008C20701300310BF0DC00D3F
:1014D800FF3E031D692A01300310BE0CBD0CFF3E00
:1014E800031D702A3D083E04031D602A4208BE0001
:1014F8004108BD00080083120313C200420884009B
:1015080083130008031908000A128A159F210A127A
:101518008A15003A031D882A83120313420884009F
:10152800831300080A128A159F250A128A150130AA
:1015380083120313C1004108C207822A8B130C1CB3
:10154800BA2A51088F0052088E000130B8003808B6
:10155800CB070A128A1528240A128A150A128A1534
:1015680091260A128A15831203130C108B173C0854
:10157800FF003B088A003A088400390E8300FE0EFB
:101588007E0E090028300A128A11B4260A128A151A
:10159800823083160313C400DD30C300C30BD22A84
:1015A800C40BD22A0D300A128A11EA270A128A15A8
:1015B80006300A128A11EA270A128A154130831660
:1015C8000313C400ED30C300C30BE82AC40BE82A98
:1015D800ED2A080083120313C200420884000A128D
:1015E8008A1500200A128A15003A031908000A12FF
:1015F8008A159F210A128A15003A031DFB2A8312B5
:101608000313420884000A128A1500200A128A1558
:101618000A128A159F250A128A15013083120313AC
:10162800C1004108C207F12A40308B0001308316FF
:1016380003138C0038308500860187018312031359
:10164800850186010E308700113090009F018316B6
:1016580003139F0183160317880189010A128A154B
:10166800C6220A128A158312031310148B1700302E
:1016780083160313C800C9000A128A1576230800C6
:10168800780879040319712BFD01FD0AF91B582B01
:1016980001300310F80DF90DFF3E031D4D2B0130ED
:1016A800FC007C08FD074A2B79087B02031D5E2B92
:1016B80078087A02031C662B7808FA027908031C5A
:1016C800FB03FB0201300310F90CF80CFF3E031D6D
:1016D800672B0130FD02031D582B7B08F9007A089F
:1016E800F80008008316031348034904031D942BCC
:1016F8008312031307140712033083160313CB0056
:101708009730CA00CA0B862BCB0B862B8312031388
:101718004508C0004408BF000A128A116C27080057
:101728008312031307100716033083160313CB0025
:101738009730CA00CA0B9E2BCB0B9E2BDA30831234
:101748000313BF000230C0000A128A116C27080078
:10175800F501F601700871040319E32BF701F70A84
:10176800F11BC22B01300310F00DF10DFF3E031DDC
:10177800B72B0130F4007408F707B42B01300310BD
:10178800F50DF60DFF3E031DC32B71087302031DF3
:10179800CF2B70087202031CD82B7008F202710854
:1017A800031CF303F302751401300310F10CF00C61
:1017B800FF3E031DD92B0130F702031DC22B76080B
:1017C800F1007508F0000800831603134608470463
:1017D8000319212C83120313C301C30A83160313AD
:1017E800C71B042C01300310C60DC70DFF3E031D97
:1017F800F72B013083120313C2004208C307F22BF0
:101808008316031347084902031D0C2C4608480297
:10181800031C142C4608C8024708031CC903C90244
:1018280001300310C70CC60CFF3E031D152C0130F8
:1018380083120313C302031D042C831603134908E0
:10184800C7004808C60008000130F6007608831271
:101858000313C9070A304902031C0800C9010130F3
:10186800F6007608CA073C304A02031C0800CA0181
:101878000130F6007608CD0700300A128A15EB26EB
:101888000A128A153C30831203134D02031C080008
:10189800CD010130F6007608CE0718304E02031C41
:1018A8000800CE010130F6007608CF071E304F023F
:1018B800031C632CCF010130F6007608D0070D30E9
:1018C8004F06031D6D2C06305006031D6D2CC801F4
:1018D8000800C801C80A0800F3000F30F1007108B9
:1018E8008316031386050F30F10071088312031362
:1018F80086057308F039F10071088604861406110C
:101908000A128A1564210A128A158312031386158E
:101918000A128A1564210A128A1583120313861182
:101928000F30F100710886057308F10003300310C9
:10193800F10DFF3E031D9B2C0310710DF039F200D1
:10194800720886040A128A1564210A128A158312FB
:10195800031386150A128A1564218312031386114C
:10196800F030F1007108831603138604080005306F
:1019780083120313BD000030BE008316031344080E
:1019880083120313C000831603134308831203133F
:10199800BF000A128A155C220A128A1583120313E1
:1019A8003E0883160313C400831203133D088316ED
:1019B8000313C3004408803AFF0080307F02031DF0
:1019C800E72C01304302031C08008312031306149A
:1019D800203083120313C300C30BF02C00008312C2
:1019E80003130610203083120313C300C30BFA2C11
:1019F8000000FF3083160313C3070318C40AFF301F
:101A0800C407DE2CF3000F30F100710883160313AE
:101A180086050F30F10071088312031386057308D9
:101A28008038F039F10071088604061186100A1210
:101A38008A1564210A128A158312031386150A125D
:101A48008A1564210A128A158312031386110F302E
:101A5800F100710886057308F10003300310F10DD9
:101A6800FF3E031D322D0310710DF039F20072088C
:101A780086040A128A1564210A128A15831203132E
:101A880086150A128A156421831203138611F03011
:101A9800F1007108831603138604080083120313E8
:101AA800C0000F30BE003E088316031386050F30B2
:101AB80083120313BE003E0886054008F039BE00B5
:101AC8003E088604061186100A128A156A210A122F
:101AD8008A158312031386150A128A156A210A12B7
:101AE8008A158312031386110F30BE003E0886053F
:101AF8004008BE0003300310BE0DFF3E031D7F2DBE
:101B080003103E0DF039BF003F0886040A128A15FB
:101B18006A210A128A158312031386150A128A1576
:101B28006A21831203138611F030BE003E08831623
:101B380003138604080083120313C0000F30BE008D
:101B48003E088316031386050F3083120313BE0065
:101B58003E0886054008F039BE003E088604861413
:101B680006110A128A156A210A128A1583120313AA
:101B780086150A128A156A210A128A158312031316
:101B880086110F30BE003E0886054008BE000330AF
:101B98000310BE0DFF3E031DCC2D03103E0DF03982
:101BA800BF003F0886040A128A156A210A128A159C
:101BB8008312031386150A128A156A2183120313E6
:101BC8008611F030BE003E08831603138604080011
:101BD80083120313C0000F30BE003E0883160313A0
:101BE80086050F3083120313BE003E0886054008A1
:101BF8008038F039BE003E088604061186100A12A5
:101C08008A156A210A128A158312031386150A1285
:101C18008A156A210A128A158312031386110F3056
:101C2800BE003E0886054008BE0003300310BE0D06
:101C3800FF3E031D1A2E03103E0DF039BF003F086A
:101C480086040A128A156A210A128A158312031356
:101C580086150A128A156A21831203138611F03039
:101C6800BE003E0883160313860408008316031378
:101C7800C401C501831203133D083E040319842ED1
:101C880083160313C301C30A83120313BE1B5A2E00
:101C980001300310BD0DBE0DFF3E031D4D2E01305A
:101CA800C100410883160313C307482E0130831669
:101CB80003130310C40DC50DFF3E031D5D2E8312D3
:101CC80003133E084002031D6B2E3D083F02031C10
:101CD800762E3D08BF023E08031CC003C0028316CF
:101CE80003134414013083120310BE0CBD0CFF3ED5
:101CF800031D782E013083160313C302031D5A2EC9
:101D080083160313450883120313BE0083160313B7
:101D1800440883120313BD00080083120313470805
:101D2800031908000A30F8000030F9004508FB00E4
:101D38004408FA000A128A1544230A128A157808F8
:101D480083120313B1003108B6000A30F0000030E6
:101D5800F1004508F3004408F2000A128A15AC2382
:101D68000A128A15700883120313B1003108B700EC
:101D78000F30B1003108A0003708B200B3013208B3
:101D8800A1003308A2003608B400B5013408A30046
:101D98003508A400A1300A128A11BD210A128A1539
:101DA80040300A128A1506250A128A15A1300A122D
:101DB8008A1501220A128A1500300A128A15062588
:101DC8000A128A15B2300A128A1501220800F50093
:101DD800831203134408F2007208F3004508F20066
:101DE8007208F40075080319002FF00173080A122D
:101DF8008A15EA210A128A15750803190B2FF001B2
:101E0800F00A74080A128A15EA210A128A150230A1
:101E1800F2007208F0008312031350080A128A15A0
:101E2800EA210A128A150330F2007208F0008312C0
:101E380003134F080A128A15EA210A128A15043078
:101E4800F2007208F000831203134E080A128A1572
:101E5800EA210A128A150530F2007208F00083128E
:101E680003134D080A128A15EA210A128A15063048
:101E7800F2007208F0008312031348080A128A1548
:101E8800EA21080000300A128A15BA210A128A15B6
:101E980083120313BE003E08C20001300A128A15DD
:101EA800BA210A128A1583120313BE003E08C30022
:101EB800C401C5014208BE00BF014308C000C101FA
:101EC8004008C100C0013E084004C4003F08410466
:101ED800C50002300A128A15BA210A128A1583121D
:101EE8000313BE003E08D00003300A128A15BA2137
:101EF8000A128A1583120313BE003E08CF0004306D
:101F08000A128A15BA210A128A1583120313BE000F
:101F18003E08CE0005300A128A15BA210A128A151F
:101F280083120313BE003E08CD0006300A128A153C
:101F3800BA2183120313BE003E08C80008008312AA
:101F48000313C2004408BF003F08C0004508BF0093
:101F58003F08C10042080319B82FBD0140080A1202
:101F68008A151E220A128A158312031342080319BE
:101F7800C52FBD01BD0A41080A128A151E220A1280
:101F88008A15023083120313BF003F08BD005008B2
:101F98000A128A151E220A128A15033083120313A5
:101FA800BF003F08BD004F080A128A151E220A12F8
:101FB8008A15043083120313BF003F08BD004E0882
:101FC8000A128A151E220A128A1505308312031373
:101FD800BF003F08BD004D080A128A151E220A12CA
:101FE8008A15063083120313BF003F08BD00480856
:081FF8000A128A151E220800DE
:04400E0031E0FFFF9F
:104200007E0003000000000000000000010000002C
:104210007E0003000000000000000000010000001C
:104220007E0003000000000000000000010000000C
:104230007E000300000000000000000001000000FC
:104240007E000300000000000000000001000000EC
:00000001FF
