:020000040000FA
:060000000A128A11122809
:10000800FE00030E83120313B9000408BA000A089D
:10001800BB007F08BC000A128A15EB290A128A1154
:10002800152883135330FD000830FE00A430FF006C
:100038004C3084000A128A1514210A128A11A03041
:100048008400C3300A128A15AB200A128A11443080
:1000580084004C300A128A15AB2083010A128A15D3
:100068005F2F83160313D900CB30CF004F08D2007F
:100078000130CA07FF304A0784000A128A11002794
:100088000A128A11CF004F08DA005A080319B82952
:1000980025305A0603195C285A08CF0059088400ED
:1000A8004F08831380000130CF004F08D9073C2840
:1000B800D701D801D4014A0884000A128A110027FE
:1000C8000A128A110A128A1500210A128A11031CBF
:1000D800B92883160313D701D8010A3083120313F2
:1000E800BD000030BE0083160313580883120313A3
:1000F800C00083160313570883120313BF000A12A4
:100108008A15C8210A128A11831203133E0883161E
:100118000313D800831203133D0883160313D70073
:100128004A0884000A128A1100270A128A11D03E4E
:10013800CF00FF3003180030D0004F08D70703184E
:10014800D80A5008D8070130CF004F08CA074A0814
:1001580084000A128A1100270A128A110A128A15C3
:1001680000210A128A11031871280130831603131B
:10017800CA07FF304A0784000A128A1100270A12A8
:100188008A11DA00CF00D0015008003A0319CD28AF
:100198003C284F08003A0319B829643A0319D828AB
:1001A8000D3A0319D8283C28520884008313000804
:1001B800D500840A0008D6000230CF004F08D207C5
:1001C800D61FEF280330CF004F08D404D509D6092D
:1001D800D50A0319D60ADA01DA0A5A08CF004F07F6
:1001E800013E84000A128A1100270A128A11D000DF
:1001F8000A128A1100270A128A11D10051085602E0
:10020800031D082950085502031C12290130CF008C
:100218004F08DA0705305A06031DF1285708580415
:10022800031920295408033903192029FF30D70757
:100238000318D80AFF30D8075808803A803C031DB5
:10024800272957085A0203183529831603135A0811
:10025800CF00D0014F08D7025008031CD803D8029A
:10026800392983160313D701D801570858040319ED
:1002780052292030CF00590884004F08831380008A
:100288000130CF004F08D907FF30D7070318D80A25
:10029800FF30D80757085804031D3D29540803396F
:1002A800031961292D30CF00590884004F088313A2
:1002B80080000130CF004F08D9075A08CF004F08F7
:1002C800D300FF30CF004F08D307530A03193C2847
:1002D8000A30C6000030C7005308CF004F07013E60
:1002E80084000A128A1100270A128A118312031342
:1002F800BD000A128A1100270A128A11BE0083164D
:100308000313560883120313C000831603135508FA
:1003180083120313BF000A128A1530250A128A11A4
:10032800831203133E0883160313C90083120313B1
:100338003D0883160313C8000A128A152C230A12D3
:100348008A11831603134608303ED0005008DA009D
:100358005A08CF00590884004F08831380000130E1
:10036800CF004F08D90765295908840083138001F5
:10037800080083120313AD002130A5002508A8004A
:100388000130A007FF30200784000A128A110027D5
:100398000A128A11A5002508B00030080319202B7D
:1003A800253030060319E4293008A5002D088400FB
:1003B8002508831380000130A5002508AD07C4294E
:1003C800AE01AF01AA01200884000A128A11002791
:1003D8000A128A110A128A15E3200A128A11031CCA
:1003E800332A83120313AE01AF010A30F000003044
:1003F800F100831203132F08F3002E08F2000A12EB
:100408008A1584210A128A11710883120313AF0016
:100418007008AE00200884000A128A1100270A1208
:100428008A11D03EA500FF3003180030A600250829
:10043800AE070318AF0A2608AF070130A500250844
:10044800A007200884000A128A1100270A128A11BC
:100458000A128A15E3200A128A110318F9290130B1
:1004680083120313A007FF30200784000A128A11A1
:1004780000270A128A11B000A500A6012608003A32
:100488000319472AC4292508003A0319202B643A7E
:100498000319522A0D3A0319522AC429280884003C
:1004A80083130008AB00840A0008AC000230A500E2
:1004B8002508A807AC1F692A0330A5002508AA0447
:1004C800AB09AC09AB0A0319AC0AB001B00A300891
:1004D800A5002507013E84000A128A1100270A1286
:1004E8008A11A6000A128A1100270A128A11A70087
:1004F80027082C02031D822A26082B02031C8C2A9B
:100508000130A5002508B00705303006031D6B2A09
:100518002E082F0403199A2A2A08033903199A2A3C
:10052800FF30AE070318AF0AFF30AF072F08803A35
:10053800803C031DA12A2E0830020318AF2A83121B
:1005480003133008A500A6012508AE022608031CDF
:10055800AF03AF02B32A83120313AE01AF012E0813
:100568002F040319CC2A2030A5002D088400250863
:10057800831380000130A5002508AD07FF30AE07C2
:100588000318AF0AFF30AF072E082F04031DB72A40
:100598002A0803390319DB2A2D30A5002D08840009
:1005A8002508831380000130A5002508AD07300811
:1005B800A5002508A900FF30A5002508A907290AD4
:1005C8000319C4290A30F8000030F9002908A500E9
:1005D8002507013E84000A128A1100270A128A118F
:1005E800F0000A128A1100270A128A11F1002C0859
:1005F800F3002B08F2000A128A15F0220A128A1157
:100608007108FB007008FA000A128A15BE220A1245
:100618008A117808303E83120313A6002608B0001A
:100628003008A5002D0884002508831380000130B8
:10063800A5002508AD07DF2A2D0884008313800153
:1006480008008B1383160313DE01031083120313B0
:10065800871C0314031C342B831203138714372BB2
:10066800831203138710323083160313DB005B08F1
:10067800CA00B2300A128A1135200A128A1198303B
:1006880083160313DB005B08CA00A1300A128A1123
:1006980035200A128A1100300A128A11AE270A126E
:1006A8008A11B2300A128A15A5210A128A1140301D
:1006B8000A128A11AE270A128A11A1300A128A1563
:1006C800A5210A128A11823083160313DC00DD305B
:1006D800DB00DB0B6D2BDC0B6D2B0130831603135A
:1006E800DB005B08DE070A305E02031C2A2B83123C
:1006F8000313871083160313DE01031083120313F9
:10070800871D0314031C8C2B8312031387158F2B4F
:10071800831203138711323083160313DB005B083F
:10072800CA00B2300A128A1135200A128A115430CE
:1007380083160313DB005B08CA00A1300A128A1172
:1007480035200A128A1100300A128A11AE270A12BD
:100758008A11B2300A128A15A5210A128A1140306C
:100768000A128A11AE270A128A11A1300A128A15B2
:10077800A5210A128A11823083160313DC00DD30AA
:10078800DB00DB0BC52BDC0BC52B013083160313F9
:10079800DB005B08DE0712305E02031C822B83122B
:1007A8000313871183160313DE0103108312031347
:1007B800071D0314031CE42B831203130715E72BEF
:1007C800831203130711323083160313DB005B080F
:1007D800CA00B2300A128A1135200A128A117630FC
:1007E80083160313DB005B08CA00A1300A128A11C2
:1007F80035200A128A1100300A128A11AE270A120D
:100808008A11B2300A128A15A5210A128A114030BB
:100818000A128A11AE270A128A11A1300A128A1501
:10082800A5210A128A11823083160313DC00DD30F9
:10083800DB00DB0B1D2CDC0B1D2C01308316031396
:10084800DB005B08DE070F305E02031CDA2B831225
:1008580003130711FA3083160313C3000030C400D2
:100868000A128A15FF230A128A118B17033083167E
:100878000313DD008A30DC005530DB00DB0B422C33
:10088800DC0B422CDD0B422C8312031387148715D3
:1008980007158B17080083120313C701C70A4330D3
:1008A80083160313DC005C08CA00B2300A128A11EE
:1008B80035200A128A1100300A128A11AE270A124C
:1008C8008A11B2300A128A15A5210A128A11C83073
:1008D80083160313C3000030C4000A128A15FF23CD
:1008E8000A128A1183120313051E762C8519D22C3D
:1008F800043045023830031944020318892C0130AA
:10090800C4070318C50A0030C5070430450239304A
:1009180003194402031C942C3830C4000430C50069
:10092800643083160313C3000030C4000A128A150A
:10093800FF230A128A11C33083160313DD00CC305B
:10094800DC00DC0BA52CDD0BA52C000083120313A7
:100958008519D22C04304502383003194402031893
:10096800BB2C0130C4070318C50A0030C507043082
:100978004502393003194402031CC62C3830C40020
:100988000430C500413083160313DD00ED30DC0070
:10099800DC0BCC2CDD0BCC2CD12CAA2C851A2A2DC7
:1009A80003304502713003194402031CE12C013065
:1009B800C4020030031CC503C50203304502703071
:1009C800031944020318EC2C7030C4000330C5002E
:1009D800643083160313C3000030C4000A128A155A
:1009E800FF230A128A11C33083160313DD00CC30AB
:1009F800DC00DC0BFD2CDD0BFD2C00008312031347
:100A0800851A2A2D03304502713003194402031C4C
:100A1800132D0130C4020030031CC503C502033086
:100A2800450270300319440203181E2D7030C400AB
:100A38000330C500413083160313DD00ED30DC00C0
:100A4800DC0B242DDD0B242D292D022D051A7A2CE3
:100A5800033083160313DE008A30DD005530DC00D6
:100A6800DC0B342DDD0B342DDE0B342D83120313F8
:100A7800051A7A2C01300A128A159C260A128A1144
:100A8800E83083160313C3000330C4000A128A1522
:100A9800FF230A128A1183120313C7010A128A1547
:100AA8008F220A128A11831203134508831603132F
:100AB800C60083120313440883160313C5000A12E1
:100AC8008A1167250800831203130712071083167B
:100AD8000313460883120313BE0083160313450845
:100AE80083120313BD000A128A15D6200A128A112E
:100AF800831203133E0883160313CB0083120313D8
:100B08003D0883160313CA008312031307138713C0
:100B18008716C73083160313C700922DC70B912D74
:100B2800952D83160313A001103020020318D82D29
:100B38004B08C8004A08C700200AA52D0310C80C96
:100B4800C70CFF3E031DA22D01304705CC00003025
:100B58004805CD00C73083160313C700B32DC70B54
:100B6800B22DB62D831203130713831603134C03F8
:100B78004D04031DC32D831203138717C62D83123B
:100B880003138713C73083160313C700CB2DC70B76
:100B9800CA2DCE2D831203130717013083160313B2
:100BA800C7004708A007982DC73083160313C7004E
:100BB800DD2DC70BDC2DE02D8312031387121430B3
:100BC80083160313C3000030C4000A128A15FF23DA
:100BD8000A128A11033083160313C9008A30C80029
:100BE8005530C700C70BF62DC80BF62DC90BF62DCF
:100BF800143083160313C3000030C4000A128A1588
:100C0800FF230A128A11033083160313C9008A309E
:100C1800C8005530C700C70B0F2EC80B0F2EC90BC5
:100C28000F2E83160313A0012830200203182D2E3F
:100C3800823083160313C800DD30C700C70B222E8D
:100C4800C80B222E013083160313C7004708A007DC
:100C5800182E8312031307120714080083120313B4
:100C6800C3000F30C100410886050F30C10041089C
:100C78008316031386050611861086118312031343
:100C88000611861086110A128A15BD200A128A11C9
:100C980030300A128A1596240A128A1107308312F4
:100CA8000313C2007C30C100C10B582EC20B582E52
:100CB800000030300A128A1596240A128A11C730A9
:100CC80083120313C100682EC10B672E6B2E3230BE
:100CD8000A128A1596240A128A110A128A15C9203C
:100CE8000A128A11003A031D712E0A128A15C920A8
:100CF8000A128A11003A031D792E8312031343083E
:100D08000A128A1596240A128A110A128A15C9200B
:100D18000A128A11003A031D892E08300A128A1510
:100D280096240A128A110A128A15C9200A128A11EF
:100D3800003A031D972E0F300A128A1596240A12BC
:100D48008A110A128A15C9200A128A11003A031D4B
:100D5800A52E01300A128A1596240A128A110A123F
:100D68008A15C9200A128A11003A031DB32E0530CC
:100D78000A128A1596240A128A110A128A15C9209B
:100D88000A128A11003A031DC12E06300A128A156A
:100D980096240A128A110A128A15C9200A128A117F
:100DA800003A031DCF2E80300A128A11AE270A128C
:100DB8008A110A128A15C9200A128A11003A031DDB
:100DC800DD2E0D300A128A159624080083120313AB
:100DD8003D033E04031DFD2E071407120330831242
:100DE8000313C0009730BF00BF0BF82EC00BF82EBE
:100DF800080007100716F22E07308A000408840A34
:100E080082070034013400340A3400346434003476
:100E1800E8340334103427340D34063401340034F4
:100E280046345234453451342E3420342034253459
:100E3800333464342E342534643420344D34483407
:100E48007A3400344C344F3443344B3449344E34C0
:100E580047342034203420342034203420342034C3
:100E68002034203400345434453453345434493411
:100E78004E34473420342034203420342034203475
:100E8800203420342034003453344534543420344E
:100E980020342034463452344534513455344534A2
:100EA8004E34433459342034003420342034203430
:100EB80020342034543445344D345034453452347D
:100EC80041345434553452344534003441344D346B
:100ED800503452344F3420342034203420342034D9
:100EE8002034453458342D3446344D3400342034BD
:100EF800203420342034203420342034203420344A
:100F080020342034203420345334573452340034BD
:100F18002034203420342034203420342034463403
:100F2800523445345134553445344E3443345934AD
:100F38000034203420342034203420342034203429
:100F480020342034203453345534503450344C3405
:100F58005934003483120313C0000F30BE003E081A
:100F68008316031386050F3083120313BE003E0851
:100F7800860540088038F039BE003E088604061110
:100F880086100A128A159D200A128A1183120313E9
:100F980086150A128A159D200A128A1183120313D4
:100FA80086110F30BE003E0886054008BE0003309B
:100FB8000310BE0DFF3E031DDC2F03103E0DF0395C
:100FC800BF003F0886040A128A159D200A128A115A
:100FD8008312031386150A128A159D2083120313A0
:100FE8008611F030BE003E088316031386040800FD
:10112E000530F000F00B99289C280800053083123A
:10113E000313BD00BD0BA128080001340F34163473
:10114E00133403343C34B03464008001840A040642
:10115E00031900340406AC280730F1007D30F0008E
:10116E00F00BB728F10BB728003008001A308312A5
:10117E000313BE00F730BD00BD0BC328BE0BC32842
:10118E00C8280800073083120313BE007C30BD0050
:10119E00BD0BCF28BE0BCF2800000030080000305A
:1011AE00831203133D04BF0048303E04C0004008C4
:1011BE00BE003F08BD000800F100F0013A30710298
:1011CE000318EF2830307102031CEF28F001F00AEB
:1011DE00700C080083120313BD003D088312031721
:1011EE008D00831603178C130C14831203170C082F
:1011FE00080083120313BE00BD013A303E020318ED
:10120E000E2930303E02031C0E29BD01BD0A3D0CD5
:10121E0008007E088A007F08820010210A128A15B3
:10122E008000840A04087D0603190034FF0A03199E
:10123E00FE0A142983120313C1000A128A15C9204B
:10124E000A128A15003A031D24298312031341083A
:10125E000A128A1596240800F100700883120317EB
:10126E008D0071088C00831603178C130C158B13CD
:10127E0055308D00AA308D008C148B1783120313FA
:10128E000D1A08004529F50075088400831300081F
:10129E00031908000A128A15B3200A128A15003A99
:1012AE00031D512975088400831300080A128A153C
:1012BE00B4230A128A150130F4007408F5074B297D
:1012CE0083120313BE003D08831203178D00831291
:1012DE0003133E08831203178C00831603178C1317
:1012EE000C158B1355308D00AA308D008C148B1776
:1012FE00831203130D1A08007F29F401F501701CE7
:10130E008E297208F4070318F50A7308F5070130E1
:10131E000310F20DF30DFF3E031D8F290130031054
:10132E00F10CF00CFF3E031D962970087104031D8D
:10133E0086297508F1007408F00008008312031363
:10134E00C2004208840083130008031908000A1221
:10135E008A15C9200A128A15003A031DAE29831276
:10136E00031342088400831300080A128A15E3242B
:10137E000A128A15013083120313C1004108C207F5
:10138E00A82983120313C101C2013D1CD4293F08B1
:10139E00C1070318C20A4008C20701300310BF0D6F
:1013AE00C00DFF3E031DD52901300310BE0CBD0C30
:1013BE00FF3E031DDC293D083E04031DCC294208D7
:1013CE00BE004108BD0008008B130C1C032A5108F7
:1013DE008F0052088E000130B8003808CB070A1271
:1013EE008A156C230A128A150A128A1587250A1283
:1013FE008A15831203130C108B173C08FF003B0851
:10140E008A003A088400390E8300FE0E7E0E090013
:10141E0028300A128A1132260A128A158230831651
:10142E000313C400DD30C300C30B1B2AC40B1B2ADD
:10143E000D300A128A1521210A128A1506300A1257
:10144E008A1521210A128A15413083160313C4000E
:10145E00ED30C300C30B312AC40B312A362A0800E3
:10146E0083120313C200420884000A128A11002755
:10147E000A128A15003A031908000A128A15C920A1
:10148E000A128A15003A031D442A831203134208D6
:10149E0084000A128A1100270A128A150A128A1566
:1014AE00E3240A128A15013083120313C100410886
:1014BE00C2073A2A40308B000130831603138C008A
:1014CE00383085008601870183120313850186015A
:1014DE000E308700113090009F01831603139F0179
:1014EE00831603178801890183120313071007124D
:1014FE000A128A150F220A128A1583120313101468
:10150E008B170030BD00BE000A128A11EA260800B1
:10151E00213083160313DB005B08CA00B2300A12B7
:10152E008A1135200A128A15873083160313DB00C1
:10153E005B08CA00A1300A128A1135200A128A15D8
:10154E0000300A128A11AE270A128A15B2300A1218
:10155E008A15A5210A128A1540300A128A11AE2761
:10156E000A128A15A1300A128A15A52108007808D8
:10157E0079040319EB2AFD01FD0AF91BD22A013069
:10158E000310F80DF90DFF3E031DC72A0130FC00B4
:10159E007C08FD07C42A79087B02031DD82A780827
:1015AE007A02031CE02A7808FA027908031CFB036E
:1015BE00FB0201300310F90CF80CFF3E031DE12A6B
:1015CE000130FD02031DD22A7B08F9007A08F800CB
:1015DE000800F501F601700871040319272BF701B5
:1015EE00F70AF11B062B01300310F00DF10DFF3E33
:1015FE00031DFB2A0130F4007408F707F82A0130A6
:10160E000310F50DF60DFF3E031D072B7108730237
:10161E00031D132B70087202031C1C2B7008F202A0
:10162E007108031CF303F302751401300310F10C5F
:10163E00F00CFF3E031D1D2B0130F702031D062B80
:10164E007608F1007508F0000800831603134608AB
:10165E0047040319652B83120313C301C30A8316B0
:10166E000313C71B482B01300310C60DC70DFF3ED9
:10167E00031D3B2B013083120313C2004208C30724
:10168E00362B8316031347084902031D502B4608B9
:10169E004802031C582B4608C8024708031CC903FE
:1016AE00C90201300310C70CC60CFF3E031D592B97
:1016BE00013083120313C302031D482B8316031339
:1016CE004908C7004808C60008000130F600760831
:1016DE0083120313C9070A304902031C0800C9010B
:1016EE000130F6007608CA073C304A02031C080097
:1016FE00CA010130F6007608CD073C304D02031CBE
:10170E000800CD010130F6007608CE0700300A122F
:10171E008A153E260A128A151830831203134E02BA
:10172E00031C0800CE010130F6007608CF071E30EC
:10173E004F02031CA72BCF010130F6007608D0070D
:10174E000D304F06031DB12B06305006031DB12B75
:10175E00C8010800C801C80A0800F3000F30F100E4
:10176E0071088316031386050F30F100710883127A
:10177E00031386057308F039F10071088604861488
:10178E0006110A128A1597200A128A15831203135C
:10179E0086150A128A1597200A128A1583120313C8
:1017AE0086110F30F100710886057308F1000330C1
:1017BE000310F10DFF3E031DDF2B0310710DF039E9
:1017CE00F200720886040A128A1597200A128A15E8
:1017DE008312031386150A128A1597208312031398
:1017EE008611F030F1007108831603138604080089
:1017FE00053083120313BD000030BE0083160313A1
:10180E00440883120313C000831603134308831284
:10181E000313BF000A128A15C8210A128A158312F1
:10182E0003133E0883160313C400831203133D08EB
:10183E0083160313C3004408803AFF0080307F02F2
:10184E00031D2B2C01304302031C080083120313CB
:10185E000614203083120313C300C30B342C000074
:10186E00831203130610203083120313C300C30B1D
:10187E003E2C0000FF3083160313C3070318C40A5F
:10188E00FF30C407222CF3000F30F10071088316CD
:10189E00031386050F30F1007108831203138605BA
:1018AE0073088038F039F10071088604061186102D
:1018BE000A128A1597200A128A15831203138615A7
:1018CE000A128A1597200A128A158312031386119B
:1018DE000F30F100710886057308F1000330031014
:1018EE00F10DFF3E031D762C0310710DF039F20041
:1018FE00720886040A128A1597200A128A15831214
:10190E00031386150A128A15972083120313861164
:10191E00F030F10071088316031386040800831259
:10192E000313C0000F30BE003E0883160313860556
:10193E000F3083120313BE003E0886054008F039AF
:10194E00BE003E088604061186100A128A159D20D6
:10195E000A128A158312031386150A128A159D2000
:10196E000A128A158312031386110F30BE003E0829
:10197E0086054008BE0003300310BE0DFF3E031D5A
:10198E00C32C03103E0DF039BF003F0886040A1227
:10199E008A159D200A128A158312031386150A12C0
:1019AE008A159D20831203138611F030BE003E0867
:1019BE00831603138604080083120313C0000F302E
:1019CE00BE003E088316031386050F3083120313E1
:1019DE00BE003E0886054008F039BE003E0886046B
:1019EE00861406110A128A159D200A128A15831270
:1019FE00031386150A128A159D200A128A15831260
:101A0E00031386110F30BE003E0886054008BE0047
:101A1E0003300310BE0DFF3E031D102D03103E0DAF
:101A2E00F039BF003F0886040A128A159D200A125B
:101A3E008A158312031386150A128A159D208312A6
:101A4E0003138611F030BE003E088316031386047E
:101A5E00080083160313C401C501831203133D0846
:101A6E003E0403197A2D83160313C301C30A83128E
:101A7E000313BE1B502D01300310BD0DBE0DFF3ED6
:101A8E00031D432D0130C100410883160313C30704
:101A9E003E2D0130831603130310C40DC50DFF3EFA
:101AAE00031D532D831203133E084002031D612DA7
:101ABE003D083F02031C6C2D3D08BF023E08031C6F
:101ACE00C003C002831603134414013083120310A3
:101ADE00BE0CBD0CFF3E031D6E2D0130831603138D
:101AEE00C302031D502D83160313450883120313DF
:101AFE00BE0083160313440883120313BD000800AF
:101B0E00831203134708031908000A30F800003047
:101B1E00F9004508FB004408FA000A128A15BE2295
:101B2E000A128A15780883120313B1003108B60021
:101B3E000A30F0000030F1004508F3004408F200CE
:101B4E000A128A15F0220A128A15700883120313DC
:101B5E00B1003108B7000F30B1003108A0003708CE
:101B6E00B200B3013208A1003308A2003608B40057
:101B7E00B5013408A3003508A400A1300A128A1159
:101B8E00BD210A128A1540300A128A154A240A12F9
:101B9E008A15A1300A128A154A210A128A150030B6
:101BAE000A128A154A240A128A15B2300A128A15A6
:101BBE004A21080000300A128A15F1200A128A15ED
:101BCE0083120313BE003E08C20001300A128A15AA
:101BDE00F1200A128A1583120313BE003E08C300B9
:101BEE00C401C5014208BE00BF014308C000C101C7
:101BFE004008C100C0013E084004C4003F08410433
:101C0E00C50002300A128A15F1200A128A158312B3
:101C1E000313BE003E08D00003300A128A15F120CD
:101C2E000A128A1583120313BE003E08CF00043039
:101C3E000A128A15F1200A128A1583120313BE00A6
:101C4E003E08CE0005300A128A15F1200A128A15B6
:101C5E0083120313BE003E08CD0006300A128A1509
:101C6E00F12083120313BE003E08C8000800F500E1
:101C7E00831203134408F2007208F3004508F200C1
:101C8E007208F40075080319532EF00173080A1236
:101C9E008A1533210A128A15750803195E2EF00172
:101CAE00F00A74080A128A1533210A128A150230B4
:101CBE00F2007208F0008312031350080A128A15FC
:101CCE0033210A128A150330F2007208F0008312D3
:101CDE0003134F080A128A1533210A128A1504308B
:101CEE00F2007208F000831203134E080A128A15CE
:101CFE0033210A128A1575080319912E0530F20048
:101D0E007208F000831203134D080A128A1533214C
:101D1E000A128A150630F2007208F00083120313BD
:101D2E0048080A128A153321080083120313C200D1
:101D3E004408BF003F08C0004508BF003F08C1006F
:101D4E0042080319B12EBD0140080A128A156721F7
:101D5E000A128A158312031342080319BE2EBD01FF
:101D6E00BD0A41080A128A1567210A128A15023025
:101D7E0083120313BF003F08BD0050080A128A15D4
:101D8E0067210A128A15033083120313BF003F081E
:101D9E00BD004F080A128A1567210A128A150430EF
:101DAE0083120313BF003F08BD004E080A128A15A6
:101DBE0067210A128A158312031342080319F12EA2
:101DCE000530BF003F08BD004D080A128A15672175
:101DDE000A128A15063083120313BF003F08BD0096
:101DEE0048080A128A156721080000300A128A1163
:101DFE00AE270A128A1565300A128A1537220A1280
:101E0E008A150A3083160313C6000030C7008312EA
:101E1E000313450883160313C900831203134408E2
:101E2E0083160313C8000A128A152C230A128A1568
:101E3E00831603134608DB005B08E0000A308312AA
:101E4E000313BD000030BE004508C0004408BF00AB
:101E5E000A128A1530250A128A15831203133D08B9
:101E6E0083160313DB005B08E1000F30DB005B0819
:101E7E00CA006108DC00DD015C08CB005D08CC0007
:101E8E006008DE00DF015E08CD005F08CE00A130E5
:101E9E000A128A1135200A128A1540300A128A1146
:101EAE00AE270A128A15A1300A128A15A52108003A
:101EBE00823083160313E300DD30E200E20B652F60
:101ECE00E30B652F0A128A1561220A128A156430F5
:101EDE0083160313C3000030C4000A128A15FF23B1
:101EEE000A128A150A128A15E1250A128A150A3073
:101EFE0083160313C3000030C4000A128A15FF2391
:101F0E000A128A1583120313051AA12F2130831684
:101F1E000313E3007530E200E20B932FE30B932FD4
:101F2E00982F83120313051AA12F0A128A114F2418
:101F3E000A128A150A128A1125230A128A150A1202
:101F4E008A158F220A128A158312031345088316E7
:101F5E000313C60083120313440883160313C5002C
:101F6E000A128A1167250A128A150A128A15FC2688
:101F7E000A128A15013083120313BD000030BE0011
:101F8E000A128A11EA260A128A1583120313051AF7
:101F9E00C12F033083160313E4008A30E30055305B
:101FAE00E200E20BD82FE30BD82FE40BD82F8316C9
:101FBE000313A0010A3020020318F62F8230831675
:101FCE000313E300DD30E200E20BEB2FE30BEB2F0C
:101FDE00013083160313E2006208A007E12F83127B
:101FEE000313051AC12F0A128A114F240A128A15D9
:021FFE00AB2F07
:04400E0031E0FFFF9F
:10420000D3000300000000000000000001000000D7
:10421000D3000300000000000000000001000000C7
:10422000D3000300000000000000000001000000B7
:10423000D3000300000000000000000001000000A7
:10424000D300030000000000000000000100000097
:00000001FF
