:020000040000FA
:060000000A128A11122809
:10000800FE00030E83120313B9000408BA000A089D
:10001800BB007F08BC000A128A15112A0A128A112D
:10002800152883134D30FD001730FE00E130FF0026
:10003800443084000A128A15F1200A128A11A0306D
:100048008400C3300A168A11D9270A128A11CD01F1
:10005800CE01CF01D001D101D20183010A128A1148
:10006800232F83160313D900CB30CF004F08D200BB
:10007800C42925305A060319422843284F285A080C
:10008800CF00590884004F08831380000130CF0047
:100098004F08D907C429D701D801D4014A088400D8
:1000A8000A128A1500200A128A110A128A150021DA
:1000B8000A128A11031C61286228B02883160313C8
:1000C800D701D8010A3083120313BD000030BE00E7
:1000D80083160313580883120313C00083160313EF
:1000E800570883120313BF000A128A15C2210A1285
:1000F8008A11831203133E0883160313D800831250
:1001080003133D0883160313D7004A0884000A1214
:100118008A1500200A128A11D03ECF00FF3003183A
:100128000030D0004F08D7070318D80A5008D8075E
:100138000130CF004F08CA074A0884000A128A15FE
:1001480000200A128A110A128A1500210A128A113D
:100158000318AF28B0286628013083160313CA078E
:10016800FF304A0784000A128A1500200A128A11F1
:10017800DA00CF00D0015008003A0319C428C42976
:100188004F08003A0319D629643A0319CF280D3AC3
:100198000319CF28C4295208840083130008D50006
:1001A800840A0008D6000230CF004F08D207D61FB5
:1001B800DE28DF28E8280330CF004F08D404D5090B
:1001C800D609D50A0319D60ADA01DA0A5A08CF007D
:1001D8004F07013E84000A128A1500200A128A116C
:1001E800D0000A128A1500200A128A11D10051087B
:1001F8005602031D01295008550203180429052930
:10020800062910290130CF004F08DA0705305A06B1
:10021800031D0F291029EA2857085804031915291E
:10022800162922295408033903191B291C292229B4
:10023800FF30D7070318D80AFF30D8075808803A84
:10024800803C031D292957085A0203182C292D29F7
:100258003929831603135A08CF00D0014F08D70253
:100268005008031CD803D8023D2983160313D7016D
:10027800D801570858040319422943295A2920301C
:10028800CF00590884004F08831380000130CF0045
:100298004F08D907FF30D7070318D80AFF30D80707
:1002A80057085804031D59295A2943295408033962
:1002B80003195F2960296B292D30CF005908840064
:1002C8004F08831380000130CF004F08D9075A0820
:1002D800CF004F08D300BB290A30C6000030C70042
:1002E8005308CF004F07013E84000A128A150020E8
:1002F8000A128A1183120313BD000A128A150020FC
:100308000A128A11BE0083160313560883120313B8
:10031800C00083160313550883120313BF000A1283
:100328008A153C270A128A11831203133E08831682
:100338000313C900831203133D0883160313C8006F
:100348000A128A155B230A128A11831603134608B8
:10035800303ED0005008DA005A08CF00590884000F
:100368004F08831380000130CF004F08D907FF30B2
:10037800CF004F08D307530A031DC329C429702986
:100388000130CA07FF304A0784000A128A15002084
:100398000A128A11CF004F08DA005A08031DD5291E
:1003A800D6293D2859088400831380010800831248
:1003B8000313AD002130A5002508A8004A2B2530DD
:1003C80030060319E829E929F5293008A5002D0880
:1003D80084002508831380000130A5002508AD0797
:1003E8004A2BAE01AF01AA01200884000A128A151F
:1003F80000200A128A110A128A15DB200A128A11B1
:10040800031C072A082A482A83120313AE01AF01E6
:100418000A30F0000030F100831203132F08F300B4
:100428002E08F2000A128A159D210A128A117108F3
:1004380083120313AF007008AE00200884000A126C
:100448008A1500200A128A11D03EA500FF30031831
:100458000030A6002508AE070318AF0A2608AF0724
:100468000130A5002508A007200884000A128A1573
:1004780000200A128A110A128A15DB200A128A1130
:100488000318472A482A0C2A013083120313A007AD
:10049800FF30200784000A128A1500200A128A11E8
:1004A800B000A500A6012608003A03195C2A4A2BC9
:1004B8002508003A03195C2B643A0319672A0D3A98
:1004C8000319672A4A2B2808840083130008AB0005
:1004D800840A0008AC000230A5002508A807AC1F54
:1004E800762A772A802A0330A5002508AA04AB09B2
:1004F800AC09AB0A0319AC0AB001B00A3008A50070
:100508002507013E84000A128A1500200A128A1162
:10051800A6000A128A1500200A128A11A7002708C5
:100528002C02031D992A26082B0203189C2A9D2AAF
:100538009E2AA82A0130A5002508B00705303006F4
:10054800031DA72AA82A822A2E082F040319AD2AD8
:10055800AE2ABA2A2A0803390319B32AB42ABA2AAE
:10056800FF30AE070318AF0AFF30AF072F08803AF5
:10057800803C031DC12A2E0830020318C42AC52A4C
:10058800D12A831203133008A500A6012508AE025C
:100598002608031CAF03AF02D52A83120313AE014A
:1005A800AF012E082F040319DA2ADB2AF22A203099
:1005B800A5002D0884002508831380000130A500BC
:1005C8002508AD07FF30AE070318AF0AFF30AF07A5
:1005D8002E082F04031DF12AF22ADB2A2A080339E0
:1005E8000319F72AF82A032B2D30A5002D088400BB
:1005F8002508831380000130A5002508AD073008C1
:10060800A5002508A900412B0A30F8000030F900A0
:100618002908A5002507013E84000A128A15002032
:100628000A128A11F0000A128A1500200A128A1189
:10063800F1002C08F3002B08F2000A128A15172380
:100648000A128A117108FB007008FA000A128A154A
:100658009C220A128A117808303E83120313A600DE
:100668002608B0003008A5002D088400250883134B
:1006780080000130A5002508AD07FF30A50025083A
:10068800A907290A031D492B4A2B082B0130A0076B
:10069800FF30200784000A128A1500200A128A11E6
:1006A800A5002508B0003008031D5B2B5C2BE3294F
:1006B8002D08840083138001080083120313CE01E0
:1006C800CE0A433083160313DC005C08CA00B2303C
:1006D8000A128A1135200A128A1100300A128A1564
:1006E8002B250A128A11B2300A128A11D6270A1249
:1006F8008A11C83083160313C3000030C4000A12DD
:100708008A15DC240A128A1183120313051E8D2B05
:100718008E2B882B8519912B922BF22B04304502B6
:100728003A300319440203189A2B9B2BA12B013052
:10073800C4070318C50A0030C507043045023A301B
:1007480003194402031CA92BAA2BAE2B6B30C4003F
:100758000330C500643083160313C3000030C4009F
:100768000A128A15DC240A128A11C330831603136D
:10077800DD00CC30DC00DC0BBF2BDD0BBF2B000019
:10078800EC2B043045023A30031944020318CD2BF0
:10079800CE2BD42B0130C4070318C50A0030C50777
:1007A800043045023A3003194402031CDC2BDD2BCC
:1007B800E12B6B30C4000330C500413083160313AE
:1007C800DD00ED30DC00DC0BE72BDD0BE72BEC2B41
:1007D80083120313851DF12BF22BC52B851AF52BDC
:1007E800F62B562C033045026B3003194402031CC8
:1007F800FE2BFF2B052C0130C4020030031CC5035F
:10080800C502033045026B300319440203180D2C4E
:100818000E2C122C3930C4000430C5006430831605
:100828000313C3000030C4000A128A15DC240A121C
:100838008A11C33083160313DD00CC30DC00DC0BD7
:10084800232CDD0B232C0000502C033045026B3089
:1008580003194402031C312C322C382C0130C402F9
:100868000030031CC503C502033045026B30031971
:1008780044020318402C412C452C3930C400043064
:10088800C500413083160313DD00ED30DC00DC0BBE
:100898004B2CDD0B4B2C502C83120313851E552C2F
:1008A800562C292C051A592C5A2C8E2B03308316BA
:1008B8000313DE008A30DD005530DC00DC0B622CCF
:1008C800DD0B622CDE0B622C83120313051A6D2CD0
:1008D8006E2C8E2B01300A128A1527260A128A11CD
:1008E800E83083160313C3000330C4000A128A15C4
:1008F800DC240A128A1183120313CE010A128A1504
:100908006B220A128A1183120313450883160313F4
:10091800C60083120313440883160313C5000A1282
:100928008A1185250A128A1108008B13831603136E
:10093800DE013230DB005B08CA00B2300A128A11CD
:1009480035200A128A11983083160313DB005B08DE
:10095800CA00A1300A128A1135200A128A11003001
:100968000A128A152B250A128A11B2300A128A1124
:10097800D6270A128A1140300A128A152B250A1224
:100988008A11A1300A128A11D6270A128A118230D6
:1009980083160313DC00DD30DB00DB0BD12CDC0B12
:1009A800D12C013083160313DB005B08DE070A3005
:1009B8005E02031CE02CE12C9D2CDE013230DB00B2
:1009C8005B08CA00B2300A128A1135200A128A114D
:1009D800543083160313DB005B08CA00A1300A12E7
:1009E8008A1135200A128A1100300A128A152B251D
:1009F8000A128A11B2300A128A11D6270A128A11EB
:100A080040300A128A152B250A128A11A1300A12BF
:100A18008A11D6270A128A11823083160313DC0042
:100A2800DD30DB00DB0B162DDC0B162D01308316B9
:100A38000313DB005B08DE0712305E02031C252D62
:100A4800262DE22CDE013230DB005B08CA00B23012
:100A58000A128A1135200A128A1176308316031376
:100A6800DB005B08CA00A1300A128A1135200A127D
:100A78008A1100300A128A152B250A128A11B230FF
:100A88000A128A11D6270A128A1140300A128A15C8
:100A98002B250A128A11A1300A128A11D6270A12A6
:100AA8008A11823083160313DC00DD30DB00DB0B98
:100AB8005B2DDC0B5B2D013083160313DB005B0819
:100AC800DE070F305E02031C6A2D6B2D272DFA30CE
:100AD800C3000030C4000A128A15DC240A128A11E5
:100AE8008B17033083160313DD008A30DC00553082
:100AF800DB00DB0B7D2DDC0B7D2DDD0B7D2D8B17BE
:100B080008008312031307120710831603134608FD
:100B180083120313BE0083160313450883120313BD
:100B2800BD000A128A15BF200A128A118312031304
:100B38003E0883160313CB00831203133D08831664
:100B48000313CA0083120313071187118714C730D0
:100B580083160313C700B02DC70BAF2DB32D831613
:100B68000313A00110302002031CBB2DBC2DBD2D8A
:100B7800FB2D4B08C8004A08C700200AC62D0310E1
:100B8800C80CC70CFF3E031DC32D01304705CC0020
:100B980000304805CD00C73083160313C700D42D95
:100BA800C70BD32DD72D83120313071183160313F5
:100BB8004C034D04031DE12DE22DE62D8312031392
:100BC8008715E92D831203138711C7308316031382
:100BD800C700EE2DC70BED2DF12D8312031307155A
:100BE800013083160313C7004708A007B62DC73086
:100BF80083160313C700002EC70BFF2D032E831285
:100C080003138710143083160313C3000030C40085
:100C18000A128A15DC240A128A1103308316031378
:100C2800C9008A30C8005530C700C70B192EC80B39
:100C3800192EC90B192E143083160313C300003064
:100C4800C4000A128A15DC240A128A11033083169A
:100C58000313C9008A30C8005530C700C70B322EAD
:100C6800C80B322EC90B322E83160313A001643031
:100C78002002031C402E412E422E532E8230831612
:100C88000313C800DD30C700C70B482EC80B482E19
:100C9800013083160313C7004708A0073B2E8312B1
:100CA80003130714080083120313C3000F30C10095
:100CB800410886050F30C1004108831603138605D5
:100CC80006118610861183120313061186108611E9
:100CD8000A168A11F4270A128A1130300A128A1564
:100CE8003E240A128A11073083120313C2007C3093
:100CF800C100C10B7D2EC20B7D2E000030300A12C0
:100D08008A153E240A128A11C73083120313C100C0
:100D18008D2EC10B8C2E902E32300A128A153E244D
:100D28000A128A110A128A15B2200A128A11003A86
:100D3800031D9F2EA02E962E0A128A15B2200A1283
:100D48008A11003A031DA92EAA2EA02E831203137E
:100D580043080A128A153E240A128A110A128A15B1
:100D6800B2200A128A11003A031DBB2EBC2EB22EE5
:100D780008300A128A153E240A128A110A128A15A4
:100D8800B2200A128A11003A031DCB2ECC2EC22E95
:100D98000F300A128A153E240A128A110A128A157D
:100DA800B2200A128A11003A031DDB2EDC2ED22E45
:100DB80001300A128A153E240A128A110A128A156B
:100DC800B2200A128A11003A031DEB2EEC2EE22EF5
:100DD80005300A128A153E240A128A110A128A1547
:100DE800B2200A128A11003A031DFB2EFC2EF22EA5
:100DF80006300A128A153E240A128A110A128A1526
:100E0800B2200A128A11003A031D0B2F0C2F022F51
:100E180080300A128A152B250A128A110A128A159D
:100E2800B2200A128A11003A031D1B2F1C2F122F01
:100E38000D300A128A153E240A128A1108008230DF
:100E480083160313E300DD30E200E20B292FE30BE6
:100E5800292F0A128A15D6220A128A11823083167D
:100E68000313E300DD30E200E20B382FE30B382FE9
:100E7800643083160313C3000030C4000A128A15B5
:100E8800DC240A128A110A128A15DD260A128A112E
:100E98000A3083160313C3000030C4000A128A15EF
:100EA800DC240A128A1183120313051A5C2F5D2FA2
:100EB800732F213083160313E3007530E200E20B31
:100EC800632FE30B632F682F83120313051A6D2F0B
:100ED8006E2F732F0A128A1161230A128A110A12BD
:100EE8008A1199240A128A110A128A156B220A1287
:100EF8008A1183120313450883160313C60083124D
:100F08000313440883160313C5000A128A118525A2
:100F18000A128A110A128A159B270A128A11831249
:100F28000313051A982F992F932F03308316031351
:100F3800E4008A30E3005530E200E20BA12FE30B16
:100F4800A12FE40BA12F83160313A0010A3020025E
:100F5800031CAF2FB02FB12FC22F8230831603137B
:100F6800E300DD30E200E20BB72FE30BB72F0130CF
:100F780083160313E2006208A007AA2F8312031343
:100F8800051AC72FC82F932F0A128A1161230A1234
:100F98008A110A128A159B270A128A11932F0A129C
:100FA8008A11122883120313C200F52F0A128A1518
:100FB800B2200A128A11003A031DE32FE42FDA2F18
:100FC8008312031342088400831300080A128A1547
:100FD8008D240A128A11013083120313C1004108BB
:100FE800C2074208840083130008031DFC2FFD2F4D
:040FF800DA2F0800E4
:1010000008308A000408840A82070034013400345E
:101010000A34003464340034E834033410342734A0
:101020000D340634013400344634523445345134DE
:101030002E34203420342534333464342E34253493
:10104000643420344D3448347A3400344C344F34D2
:1010500043344B3449344E34473420342034203424
:1010600020342034203420342034203400345434CC
:1010700045345334543449344E34473420342034C6
:1010800020342034203420342034203420340034E0
:1010900053344534543420342034203446345234CC
:1010A00045345134553445344E3443345934203466
:1010B0000034203420342034203420345434453457
:1010C0004D34503445345234413454345534523410
:1010D0004534003441344D34503452344F3420348C
:1010E00020342034203420342034453458342D34F6
:1010F00046344D340034203420342034203420341D
:10110000203420342034203420342034203420343F
:1011100053345734523400342034203420342034B3
:10112000203420342034463452344534513455343C
:1011300045344E3443345934003420342034203480
:1011400020342034203420342034203420345334CC
:0C1150005534503450344C3459340034C1
:10116400073083120313BE007C30BD00BD0BB828CA
:10117400BE0BB828000000300800003083120313AF
:101184003D04BF0048303E04C0004008BE003F0894
:10119400BD00080083120313BD003D08831203172A
:1011A4008D00831603178C130C14831203170C0879
:1011B4000800F100F0013A3071020318E228E32834
:1011C400EB2830307102031CE828E928EB28F001F1
:1011D400F00A700C08007E088A007F0882000A1258
:1011E4008A15ED200A128A158000840A04087D06F7
:1011F40003190034FF0A0319FE0AF12883120313AA
:10120400BE00BD013A303E02031809290A291229F9
:1012140030303E02031C0F2910291229BD01BD0ADA
:101224003D0C080083120313C1000A128A15B22070
:101234000A128A15003A031D20292129172983122D
:10124400031341080A128A153E240A128A1508005B
:10125400F1007008831203178D0071088C00831647
:1012640003178C130C158B1355308D00AA308D0089
:101274008C148B17831203130D1E412942293C2918
:101284000800831203133D033E04031D4A294B291E
:10129400582907140712033083120313C000973030
:1012A400BF00BF0B5329C00B53295B290710071636
:1012B4004D29080083120313BE003D08831203174F
:1012C4008D00831203133E08831203178C008316C8
:1012D40003178C130C158B1355308D00AA308D0019
:1012E4008C148B17831203130D1E79297A29742900
:1012F4000800F50094290A168A11EA270A128A15A9
:10130400003A031D862987297D29750884008313E3
:1013140000080A128A15A3230A128A150130F40060
:101324007408F5077508840083130008031D9B29BE
:101334009C297D290800F401F501701CA229A32928
:10134400A9297208F4070318F50A7308F507013090
:101354000310F20DF30DFF3E031DAA290130031003
:10136400F10CF00CFF3E031DB12970087104031D3C
:10137400BC29BD299F297508F1007408F0000800F4
:1013840083120313C101C2013D1CC929CA29D029F2
:101394003F08C1070318C20A4008C20701300310FE
:1013A400BF0DC00DFF3E031DD12901300310BE0C3B
:1013B400BD0CFF3E031DD8293D083E04031DE3294F
:1013C400E429C6294208BE004108BD0008002830AF
:1013D4000A128A1157260A128A15823083160313B9
:1013E400C400DD30C300C30BF529C40BF5290D304F
:1013F4000A128A1514210A128A1506300A128A154D
:1014040014210A128A15413083160313C400ED30E7
:10141400C300C30B0B2AC40B0B2A102A08008B131E
:101424000C1C152A162A2B2A4B088F004C088E00F8
:101434000130B8003808D2070A128A15D1250A12D9
:101444008A150A128A157F260A128A158312031333
:101454000C108C1E2E2A2F2A302A1A088B173C08AF
:10146400FF003B088A003A088400390E8300FE0E10
:101474007E0E090083120313C2005E2A0A128A1523
:10148400B2200A128A15003A031D492A4A2A402A20
:1014940083120313420884000A128A1500200A12D8
:1014A4008A150A128A158D240A128A1501308312AC
:1014B4000313C1004108C207420884000A128A15B6
:1014C40000200A128A15003A031D692A6A2A402A52
:1014D4000800213083160313DB005B08CA00B23016
:1014E4000A128A1135200A128A15873083160313CB
:1014F400DB005B08CA00A1300A128A1135200A12E7
:101504008A1500300A128A152B250A128A15B23060
:101514000A128A11D6270A128A1540300A128A152D
:101524002B250A128A15A1300A128A11D6270A120B
:101534008A150800780879040319A12AA22AD12A55
:10154400FD01FD0AB02A01300310F80DF90DFF3E2C
:10155400031DA62A0130FC007C08FD07F91FB32AED
:10156400B42AA52A79087B02031DBA2A78087A02CC
:10157400031CBD2ABE2AC42A7808FA027908031C6F
:10158400FB03FB0201300310F90CF80CFF3E031DB2
:10159400C52A0130FD02031DD02AD12AB42A7B08B2
:1015A400F9007A08F800080040308B0021308316D7
:1015B40003138C0038308500860180308700831245
:1015C4000313850186010E308700113090009F01BE
:1015D400831603139F01831603178801890124309E
:1015E4008316031398009030831203139800083075
:1015F4008316031787001930831603139900831287
:101604000313071007160A128A15E9210A128A150C
:101614008312031310148B170030BD00BE000A128E
:101624008A1543210A128A150800F501F60170088B
:10163400710403191E2B1F2B562BF701F70A2D2BB0
:1016440001300310F00DF10DFF3E031D232B01307B
:10165400F4007408F707F11F302B312B222B0130D3
:101664000310F50DF60DFF3E031D322B71087302B6
:10167400031D3E2B70087202031C412B422B492B85
:101684007008F2027108031CF303F30275140130AD
:101694000310F10CF00CFF3E031D4A2B0130F7023E
:1016A400031D552B562B312B7608F1007508F000DD
:1016B400080083160313460847040319622B632B9F
:1016C4009C2B83120313C301C30A752B013003102F
:1016D400C60DC70DFF3E031D692B01308312031392
:1016E400C2004208C30783160313C71F7A2B7B2B40
:1016F400682B8316031347084902031D832B4608EE
:101704004802031C862B872B8D2B4608C8024708EA
:10171400031CC903C90201300310C70CC60CFF3EE9
:10172400031D8E2B013083120313C302031D9B2B55
:101734009C2B7B2B831603134908C7004808C6005B
:101744000800F3000F30F1007108831603138605B7
:101754000F30F10071088312031386057308F03902
:10176400F10071088604861406110A168A11CC2722
:101774000A128A158312031386150A168A11CC27B6
:101784000A128A158312031386110F30F1007108AF
:1017940086057308F10003300310F10DFF3E031DAD
:1017A400CE2B0310710DF039F200720886040A166C
:1017B4008A11CC270A128A158312031386150A1676
:1017C4008A11CC270A128A15831203138611F0306A
:1017D400F10071088316031386040800F3000F3028
:1017E400F10071088316031386050F30F1007108A8
:1017F40083120313860573088038F039F1007108E9
:101804008604061186100A168A11CC270A128A1534
:101814008312031386150A168A11CC270A128A1515
:101824008312031386110F30F100710886057308C3
:10183400F10003300310F10DFF3E031D1C2C0310B7
:10184400710DF039F200720886040A168A11CC2749
:101854000A128A158312031386150A168A11CC27D5
:101864000A128A15831203138611F030F1007108ED
:10187400831603138604080083120313C0000F3079
:10188400BE003E088316031386050F30831203132C
:10189400BE003E0886054008F039BE003E088604B6
:1018A400061186100A168A11D2270A128A15831283
:1018B400031386150A168A11D2270A128A1583126F
:1018C400031386110F30BE003E0886054008BE0093
:1018D40003300310BE0DFF3E031D6B2C03103E0DA1
:1018E400F039BF003F0886040A168A11D2270A126B
:1018F4008A158312031386150A168A11D2270A122F
:101904008A15831203138611F030BE003E08831635
:1019140003138604080083120313C0000F30BE00B3
:101924003E088316031386050F3083120313BE008B
:101934003E0886054008F039BE003E088604861439
:1019440006110A168A11D2270A128A158312031362
:1019540086150A168A11D2270A128A1583120313CE
:1019640086110F30BE003E0886054008BE000330D5
:101974000310BE0DFF3E031DBA2C03103E0DF039BB
:10198400BF003F0886040A168A11D2270A128A1554
:101994008312031386150A168A11D2270A128A158E
:1019A400831203138611F030BE003E08831603131E
:1019B40086040800053083120313BD000030BE0006
:1019C40083160313440883120313C00083160313FE
:1019D400430883120313BF000A128A15C2210A1294
:1019E4008A15831203133E0883160313C40083125B
:1019F40003133D0883160313C3004408803AFF0011
:101A040080307F02031D082D0130430203180B2D83
:101A14000C2D0D2D2A2D831203130614203083124E
:101A24000313C300C30B142D000083120313061009
:101A3400203083120313C300C30B1E2D0000FF309C
:101A440083160313C3070318C40AFF30C407FF2C0B
:101A5400080083120313C0000F30BE003E08831633
:101A6400031386050F3083120313BE003E08860558
:101A740040088038F039BE003E08860406118610FE
:101A84000A168A11D2270A128A158312031386159D
:101A94000A168A11D2270A128A1583120313861191
:101AA4000F30BE003E0886054008BE000330031018
:101AB400BE0DFF3E031D592D03103E0DF039BF002E
:101AC4003F0886040A168A11D2270A128A1583123D
:101AD400031386150A168A11D2270A128A1583124D
:101AE40003138611F030BE003E08831603138604E8
:101AF4000800831203134408F2007208F300450837
:101B0400F2007208F400F00173080A128A152A21FF
:101B14000A128A15F001F00A74080A128A152A2199
:101B24000A128A150230F2007208F00083120313BD
:101B34004A080A128A152A210A128A150330F20069
:101B44007208F0008312031349080A128A152A2125
:101B54000A128A150430F2007208F000831203138B
:101B640048080A128A152A210A128A150530F20039
:101B74007208F0008312031347080A128A152A21F7
:101B84000A128A150630F2007208F0008312031359
:101B94004F080A128A152A210A128A1508000130F0
:101BA400F500750883120313D0070A305002031C92
:101BB400DC2DDD2D262ED0010130F5007508D1076E
:101BC4003C305102031CE72DE82D262ED1010130B3
:101BD400F5007508C7073C304702031CF22DF32DAE
:101BE400262EC7010130F5007508C80700300A1217
:101BF4008A157B250A128A151830831203134802AA
:101C0400031C052E062E262EC8010130F50075088A
:101C1400C9071E304902031C102E112E162EC901AD
:101C24000130F5007508CA070D304906031D1B2E47
:101C34001C2E242E06304A06031D212E222E242E6D
:101C4400CF01262ECF01CF0A0800831203134408C4
:101C5400BF003F08C0004508BF003F08C100BD01E8
:101C640040080A128A155C210A128A15831203138A
:101C7400BD01BD0A41080A128A155C210A128A159F
:101C8400023083120313BF003F08BD004A080A1242
:101C94008A155C210A128A15033083120313BF00CC
:101CA4003F08BD0049080A128A155C210A128A15E8
:101CB400043083120313BF003F08BD0048080A1212
:101CC4008A155C210A128A15053083120313BF009A
:101CD4003F08BD0047080A128A155C210A128A15BA
:101CE400063083120313BF003F08BD004F080A12D9
:101CF4008A155C210A128A150800831203134E0800
:101D04000319852E862EDC2E0A30F8000030F900E7
:101D14004508FB004408FA000A128A159C220A129C
:101D24008A15780883120313B1003108B6000A300B
:101D3400F0000030F1004508F3004408F2000A12F4
:101D44008A1517230A128A15700883120313B10027
:101D54003108B7000F30B1003108A0003708B200D5
:101D6400B3013208A1003308A2003608B400B5015B
:101D74003408A3003508A400A1300A128A11DB211B
:101D84000A128A1540300A128A15F0230A128A159B
:101D9400A1300A128A157B210A128A1500300A1210
:101DA4008A15F0230A128A15B2300A128A157B2189
:101DB4000A128A15080000300A128A15CC200A1269
:101DC4008A1583120313BE003E08C20001300A12B2
:101DD4008A15CC200A128A1583120313BE003E080A
:101DE400C300C401C5014208BE00BF014308C000CE
:101DF400C1014008C100C0013E084004C4003F08BE
:101E04004104C50002300A128A15CC200A128A1530
:101E140083120313BE003E08CA0003300A128A1557
:101E2400CC200A128A1583120313BE003E08C9008F
:101E340004300A128A15CC200A128A15831203135D
:101E4400BE003E08C80005300A128A15CC200A12CA
:101E54008A1583120313BE003E08C70006300A1217
:101E64008A15CC200A128A1583120313BE003E0879
:101E7400CF00080083160313C401C50183120313A2
:101E84003D083E040319472F482F8E2F8316031352
:101E9400C301C30A5A2F01300310BD0DBE0DFF3E0E
:101EA400031D4E2F0130C100410883160313C307DD
:101EB40083120313BE1F5F2F602F4D2F0130831633
:101EC40003130310C40DC50DFF3E031D632F8312BE
:101ED40003133E084002031D712F3D083F02031CFB
:101EE400742F752F7E2F3D08BF023E08031CC003CC
:101EF400C002831603134414013083120310BE0C72
:101F0400BD0CFF3E031D802F013083160313C30253
:101F1400031D8D2F8E2F602F831603134508831204
:101F24000313BE0083160313440883120313BD0076
:101F3400080000300A128A152B250A128A1565300A
:101F44000A128A153C220A128A150A3083160313D0
:101F5400C6000030C7008312031345088316031319
:101F6400C90083120313440883160313C8000A121A
:101F74008A155B230A128A15831603134608DB00AD
:101F84005B08E0000A3083120313BD000030BE007A
:101F94004508C0004408BF000A128A153C270A12EB
:101FA4008A15831203133D0883160313DB005B08B1
:101FB400E1000F30DB005B08CA006108DC00DD01D2
:101FC4005C08CB005D08CC006008DE00DF015E0821
:101FD400CD005F08CE00A1300A128A1135200A1202
:101FE4008A1540300A128A152B250A128A15A13047
:0C1FF4000A128A11D6270A128A1508006A
:102F98000530F000F00BCE2FD12F0800053083123A
:102FA8000313BD00BD0BD62F080064008001840AFE
:102FB8000406031900340406DA2F6F340034013490
:102FC8000F341634133403343C34B0340730F10072
:102FD8007D30F000F00BEE2FF10BEE2F00300800E3
:102FE8001A3083120313BE00F730BD00BD0BFA2F51
:082FF800BE0BFA2FFF2F0800A9
:04400E0031E0FFFF9F
:10420000D1000300000000000000000001000000D9
:10421000D1000300000000000000000001000000C9
:10422000D1000300000000000000000001000000B9
:10423000D1000300000000000000000001000000A9
:10424000D100030000000000000000000100000099
:10425000D100030000000000000000000100000089
:00000001FF
