:020000040000FA
:0600000000F050EF00F0DB
:10000800FFFF7F82E1CF70F0E2CF71F0D9CF72F0BD
:10001800DACF73F0F3CF74F0F4CF75F0F6CF76F053
:10002800F7CF77F0F8CF78F0F5CF79F0F29E9EA071
:1000380011D07CC0CFFF7DC0CEFF7E2A8DEC10F0A2
:100048000A0E7E18D8A404D0000E7E6EDCEC0FF0E9
:10005800FFFF9E90FFFFF2A406D07AC0D7FF7BC0B7
:10006800D6FFC284F294FFFFF28E79C0F5FF78C004
:10007800F8FF77C0F7FF76C0F6FF75C0F4FF74C0CD
:10008800F3FF73C0DAFF72C0D9FF71C0E2FF70C01E
:0C009800E1FF7F921100FFFFF9EF10F074
:10060000000D060100466369612E20202533642E0B
:100610002564204D487A0046696A616E646F204601
:100620006369612E2020200053656C656363696FE8
:100630006E6520466369612E00414D50524F202067
:0B0640002020202045582D464D0000D2
:10064C00FFFFC1C0D9FFC2C0DAFFDECFF6FFDDCF9E
:10065C00F7FF0800FFFFF550250AD8A414D1C1C03C
:10066C00D9FFC2C0DAFFDE2A000EDD22000E000127
:10067C00EF6F000EEE6FEEC0F2F0EFC0F3F0F0692A
:10068C00F169C1C0D9FFC2C0DAFFDECFF6FFDDCF02
:10069C00F7FF0800FFFFF5502A0AD8A423D0C1C0E9
:1006AC00D9FFC2C0DAFFDE2A000EDD22C3C0D9FF9B
:1006BC00C4C0DAFFDFCFC5F0020EDE26DFCFC6F0F6
:1006CC00000EDD22C5C0D9FFC6C0DAFFDECFEEF0CA
:1006DC00DDCFEFF0EFAF46D0F281EE6DEF1FD8B06B
:1006EC00EF2B40D0FFFFC1C0D9FFC2C0DAFFDECF75
:1006FC0087F0DDCF88F0EDEC08F087C0EEF088C015
:10070C00EFF008D0FFFFC1C0D9FFC2C0DAFFDE2A6C
:10071C00000EDD22FFFFD00E0001C56FFF0EC66F6D
:10072C00C1C0D9FFC2C0DAFFDECFF6FFDDCFF7FFC5
:10073C000800FFFFF550C76FC86BC551C727C651DE
:10074C00C823C85106E10A0EC75DD8B002D0010E0D
:10075C0002D0FFFF000EFFFFD16FD26BD151D2112F
:10076C00D8A4D0D7FFFFC1C0D9FFC2C0DAFFDECFFB
:10077C00F6FFDDCFF7FF0800FFFFF550640AD8B491
:10078C000ED0C1C0D9FFC2C0DAFFDECFF6FFDDCF7D
:10079C00F7FF0800FFFFF550690AD8A440D0FFFF0F
:1007AC00C1C0D9FFC2C0DAFFDE2A000EDD22C3C0F1
:1007BC00D9FFC4C0DAFFDFCFC5F0020EDE26DFCFD3
:1007CC00C6F0000EDD22C5C0D9FFC6C0DAFFDECFF1
:1007DC00C9F0DDCFCAF0000ECABFFF0ECB6FCC6FD5
:1007EC00CD6FCE6FCF6FD06FBFC09BF0C0C09CF0F1
:1007FC00C9C09DF0CAC09EF0CBC09FF0CCC0A0F089
:10080C00CDC0A1F0CEC0A2F0CFC0A3F0D0C0A4F058
:10081C00A9EC05F09BC0BFF09CC0C0F051D0FFFF0D
:10082C00C1C0D9FFC2C0DAFFDECFF6FFDDCFF7FFC4
:10083C000800FFFFF550250AD8A417D0C1C0D9FF76
:10084C00C2C0DAFFDE2A000EDD22000E816F250EFB
:10085C00806FBFC082F0C0C083F091EC0EF0FFFF40
:10086C00000E0001C06F010E0BD0FFFFC1C0D9FFFD
:10087C00C2C0DAFFDE2A000EDD22000EC06F000EB1
:10088C00FFFFBF6F1DD0FFFFC1C0D9FFC2C0DAFF91
:10089C00DECFF6FFDDCFF7FF0800FFFFF5500001BC
:1008AC00806F816BBFC082F0C0C083F091EC0EF002
:1008BC00C1C0D9FFC2C0DAFFDE2A000EDD22CFD7BD
:1008CC00FFFF1200FFFFFFFF42C0D9FF43C0DAFF5A
:1008DC00DECFF6FFDDCFF7FF0800FFFFF550250A4E
:1008EC00D8A412D142C0D9FF43C0DAFFDE2A000ED1
:1008FC00DD22000E0001EF6F000EEE6FEEC0F2F085
:10090C00EFC0F3F0F069F16942C0D9FF43C0DAFFE0
:10091C00DECFF6FFDDCFF7FF0800FFFFF5502A0A08
:10092C00D8A423D042C0D9FF43C0DAFFDE2A000E80
:10093C00DD2244C0D9FF45C0DAFFDFCF46F0020EFE
:10094C00DE26DFCF47F0000EDD2246C0D9FF47C0C0
:10095C00DAFFDECFEEF0DDCFEFF0EFAF45D0F28176
:10096C00EE6DEF1FD8B0EF2B3FD0FFFF42C0D9FF89
:10097C0043C0DAFFDECF08F0DDCF09F0A2EC09F0BE
:10098C0008C0EEF009C0EFF008D0FFFF42C0D9FF5D
:10099C0043C0DAFFDE2A000EDD22FFFFD00E466ECA
:1009AC00FF0E476E42C0D9FF43C0DAFFDECFF6FF21
:1009BC00DDCFF7FF0800FFFFF550486E496A46503F
:1009CC00482647504922495006E10A0E485CD8B0E7
:1009DC0002D0010E02D0FFFF000EFFFF526E536AD1
:1009EC0052505310D8A4D1D7FFFF42C0D9FF43C0F7
:1009FC00DAFFDECFF6FFDDCFF7FF0800FFFFF55083
:100A0C00640AD8B40ED042C0D9FF43C0DAFFDECF9F
:100A1C00F6FFDDCFF7FF0800FFFFF550690AD8A4F9
:100A2C0040D0FFFF42C0D9FF43C0DAFFDE2A000EE0
:100A3C00DD2244C0D9FF45C0DAFFDFCF46F0020EFD
:100A4C00DE26DFCF47F0000EDD2246C0D9FF47C0BF
:100A5C00DAFFDECF4AF0DDCF4BF0000E4BBEFF0EBF
:100A6C004C6E4D6E4E6E4F6E506E516E40C01CF003
:100A7C0041C01DF04AC01EF04BC01FF04CC020F00E
:100A8C004DC021F04EC022F04FC023F050C024F0D6
:100A9C0051C025F0DFEC06F01CC040F01DC041F049
:100AAC004FD0FFFF42C0D9FF43C0DAFFDECFF6FFC5
:100ABC00DDCFF7FF0800FFFFF550250AD8A416D0AC
:100ACC0042C0D9FF43C0DAFFDE2A000EDD22000E41
:100ADC00026E250E016E40C003F041C004F0E8EC3C
:100AEC000EF0FFFF000E416E010E0BD0FFFF42C057
:100AFC00D9FF43C0DAFFDE2A000EDD22000E416E64
:100B0C00000EFFFF406E1CD0FFFF42C0D9FF43C058
:100B1C00DAFFDECFF6FFDDCFF7FF0800FFFFF55061
:100B2C00016E026A40C003F041C004F0E8EC0EF024
:100B3C0042C0D9FF43C0DAFFDE2A000EDD22D1D736
:100B4C00FFFF1200FFFFFFFF9DC0B5F09EC0B6F087
:100B5C009FC0B7F0A0C0B8F0A1C0B9F0A2C0BAF065
:100B6C00A3C0BBF0A4C0BCF00001BCAF02D0010E0E
:100B7C0002D0FFFF000EFFFFB36FB46BB351B41183
:100B8C00D8B410D0BC1FBB1FBA1FB91FB81FB71FDA
:100B9C00B61FB56D000EB623B723B823B923BA23FD
:100BAC00BB23BC23FFFFF1AFF293F1BF05D0F15192
:100BBC0009E1F005D8B006D0FFFF000EB06F010EB2
:100BCC00AF6F05D0FFFFF0C0AFF0F1C0B0F0FFFF8A
:100BDC00EEC0B1F0EFC0B2F0B351B411D8A402D052
:100BEC00F2A504D0FFFFB107D8A0B207FFFF000E9B
:100BFC00BE6F1F0EBD6F000E0101216F7ED0FFFF77
:100C0C00BD07D8A0BE07020EBD25D96E010EBE21B0
:100C1C00DA6EB5C080F0B6C081F0B7C082F0B8C053
:100C2C0083F0B9C084F0BAC085F0BBC086F0BCC0FC
:100C3C0087F00A0E886F000E896F000E8A6F000E07
:100C4C008B6F000E8C6F000E8D6F000E8E6F000E72
:100C5C008F6FB2EC0BF080C0A5F081C0A6F082C003
:100C6C00A7F083C0A8F084C0A9F085C0AAF086C004
:100C7C00ABF087C0ACF0A5C092F0A7C093F0A3EC8A
:100C8C0013F000019251300FDF6EAF07D8A0B00700
:100C9C00B107D8A0B207B5C080F0B6C081F0B7C01C
:100CAC0082F0B8C083F0B9C084F0BAC085F0BBC084
:100CBC0086F0BCC087F00A0E886F000E896F000E9C
:100CCC008A6F000E8B6F000E8C6F000E8D6F000EF6
:100CDC008E6F000E8F6F55EC0AF080C0B5F081C09E
:100CEC00B6F082C0B7F083C0B8F084C0B9F085C04C
:100CFC00BAF086C0BBF087C0BCF0FFFF0001BEBFDE
:100D0C0020D0BE5103E1BD05D8A01BD0B551B61102
:100D1C00B711B811B911BA11BB11BC11D8A46FD746
:100D2C00B0BF05D0B05102E1AF05D8B068D7FFFF16
:100D3C00B2BF07D0B25103E1B105D8A002D0F2B3D3
:100D4C005ED7FFFFB351B411D8A402D0F2A51AD0CC
:100D5C00FFFFBD07D8A0BE07B351B411D8A404D06F
:100D6C00000EAE6F2B0E04D0FFFF000EAE6F2D0EDB
:100D7C00FFFFAD6F020EBD25D96E010EBE21DA6EDE
:100D8C00ADC0DFFFFFFF9BC090F09CC091F0020E46
:100D9C00BD25926F010EBE21936FB1C094F0B2C00D
:100DAC0095F03AEC0EF090C09BF091C09CF01200C4
:100DBC00FFFFFFFF1EC036F01FC037F020C038F019
:100DCC0021C039F022C03AF023C03BF024C03CF0E3
:100DDC0025C03DF03DAE02D0010E02D0FFFF000E4B
:100DEC00FFFF346E356A34503510D8B410D03D1E28
:100DFC003C1E3B1E3A1E391E381E371E366C000E2A
:100E0C003722382239223A223B223C223D22FFFF54
:100E1C000001F1AFF293F1BF05D0F15109E1F005FA
:100E2C00D8B006D0FFFF000E316E010E306E05D02B
:100E3C00FFFFF0C030F0F1C031F0FFFFEEC032F038
:100E4C00EFC033F034503510D8A402D0F2A504D042
:100E5C00FFFF3206D8A03306FFFF000E3F6E1F0EB9
:100E6C003E6E000E0101216F7DD0FFFF3E06D8A023
:100E7C003F06020E3E24D96E010E3F20DA6E36C0BC
:100E8C0001F037C002F038C003F039C004F03AC0AA
:100E9C0005F03BC006F03CC007F03DC008F00A0E60
:100EAC00096E000E0A6E000E0B6E000E0C6E000E1C
:100EBC000D6E000E0E6E000E0F6E000E106E4FECCF
:100ECC000CF001C026F002C027F003C028F004C0CB
:100EDC0029F005C02AF006C02BF007C02CF008C082
:100EEC002DF026C013F028C014F0E1EC13F01350D1
:100EFC00300FDF6E3006D8A031063206D8A033068C
:100F0C0036C001F037C002F038C003F039C004F02D
:100F1C003AC005F03BC006F03CC007F03DC008F0FD
:100F2C000A0E096E000E0A6E000E0B6E000E0C6E91
:100F3C00000E0D6E000E0E6E000E0F6E000E106E7B
:100F4C0004EC0BF001C036F002C037F003C038F0EF
:100F5C0004C039F005C03AF006C03BF007C03CF0C5
:100F6C0008C03DF0FFFF3FBE21D03F5003E13E04DF
:100F7C00D8A01CD036503710381039103A103B100E
:100F8C003C103D10D8A471D731BE05D0315002E1D0
:100F9C003004D8B06AD7FFFF33BE08D0335003E11A
:100FAC003204D8A003D00001F2B35FD7FFFF345056
:100FBC003510D8A403D00001F2A51AD0FFFF3E06CD
:100FCC00D8A03F0634503510D8A404D0000E2F6E94
:100FDC002B0E04D0FFFF000E2F6E2D0EFFFF2E6E7A
:100FEC00020E3E24D96E010E3F20DA6E2EC0DFFFBA
:100FFC00FFFF1CC011F01DC012F0020E3E24136E38
:10100C00010E3F20146E32C015F033C016F03EECCA
:10101C000FF011C01CF012C01DF01200FFFFFFFFFB
:10102C00330E0001DB6F010EDC6F280EDD6F060E38
:10103C00DE6FEDEC11F0000E0001876FC80E866FAD
:10104C00C1EC11F0FFFF82A0FDD7FFFF82B24AD0A6
:10105C00380E0001F45D040EF559D8B002D0F44BF3
:10106C00F52BFFFF390EF45D040EF559D8A004D012
:10107C00040EF56F380EF46FFFFF000E876F640ED1
:10108C00866FC1EC11F0060E0001EA6FB60EE96F27
:10109C00F80EFFFFE82EFDD7E92FFBD7EA2FF9D783
:1010AC0000D000F01CD0FFFF380E0001F45D040EE0
:1010BC00F559D8B002D0F44BF52BFFFF390EF45D87
:1010CC00040EF559D8A004D0040EF56F380EF46F49
:1010DC00FFFF000E876F640E866FC1EC11F0FFFFEF
:1010EC0082A2E1D7FFFF82B44CD0710E0001F45DF7
:1010FC00030EF559D8A003D0F407D8A0F507FFFFCD
:10110C00700EF45D030EF559D8B004D0030EF56FD4
:10111C00700EF46FFFFF000E876F640E866FC1ECCC
:10112C0011F0060E0001EA6FB60EE96FF80EFFFF24
:10113C00E82EFDD7E92FFBD7EA2FF9D700D000F026
:10114C001DD0FFFF710E0001F45D030EF559D8A000
:10115C0003D0F407D8A0F507FFFF700EF45D030E63
:10116C00F559D8B004D0030EF56F700EF46FFFFF75
:10117C00000E876F640E866FC1EC11F0FFFF82A426
:10118C00E0D7FFFF82B061D7060E0001EA6FB60E02
:10119C00E96FF80EFFFFE82EFDD7E92FFBD7EA2FFA
:1011AC00F9D700D000F082B050D7010E19EC10F036
:1011BC00030E0001876FE80E866FC1EC11F0F4C0CE
:1011CC0082F0F5C083F0D7EC0DF01200FFFFFFFFAB
:1011DC00000E0001956F000E946F000E8E6F000EC6
:1011EC008D6F03D0FFFF874B882BFFFF010E936F92
:1011FC0087C0F6FF88C0F7FF0800FFFFF550200AF4
:10120C00D8B419D0F70E896FFF0E8A6F87C0F6FF1E
:10121C0088C0F7FF0800FFFFF5508B6F8C6B89516E
:10122C008B278A518C238C5104E1050E8B5DD8A041
:10123C0002D0000E936FFFFF93C08FF0906B8F5115
:10124C009011D8B40AD0CED7FFFF000E8E6F010ECE
:10125C008D6FFFFF874B882B33D0FFFF87C0F6FFC6
:10126C0088C0F7FF0800FFFFF550896F8A6B8A5121
:10127C00000AD8A425D089512B0AD8B4EAD7060A7B
:10128C00D8B4E2D71DD0FFFF94C080F095C081F098
:10129C00000E836F0A0E826F9FEC14F087C0F6FF6E
:1012AC0088C0F7FF0800FFFFF5500001805F000EBB
:1012BC00815B300E8025946F000E8121956FC9D70C
:1012CC00FFFFD00E896FFF0E8A6F87C0F6FF88C0B4
:1012DC00F7FF0800FFFFF5508B6F8C6B89518B2744
:1012EC008A518C238C5106E10A0E8B5DD8B002D04A
:1012FC00010E02D0FFFF000EFFFF916F926B915118
:10130C009211D8A4C0D78D518E11D8A40DD094C0F1
:10131C0089F095C08AF0891F8A1F894B8A2B89C056
:10132C0087F08AC088F005D0FFFF94C087F095C085
:10133C0088F0FFFF1200FFFFFFFF000E166E000E7D
:10134C00156E000E0F6E000E0E6E03D0FFFF084AD6
:10135C00092AFFFF010E146E08C0F6FF09C0F7FF43
:10136C000800FFFFF550200AD8B419D0F70E0A6E0A
:10137C00FF0E0B6E08C0F6FF09C0F7FF0800FFFF59
:10138C00F5500C6E0D6A0A500C260B500D220D50A8
:10139C0004E1050E0C5CD8A002D0000E146EFFFF09
:1013AC0014C010F0116A10501110D8B40AD0CED756
:1013BC00FFFF000E0F6E010E0E6EFFFF084A092A8A
:1013CC0032D0FFFF08C0F6FF09C0F7FF0800FFFF8F
:1013DC00F5500A6E0B6A0B50000AD8A424D00A50A0
:1013EC002B0AD8B4EAD7060AD8B4E2D71CD0FFFF30
:1013FC0015C001F016C002F0000E046E0A0E036E4A
:10140C00CBEC14F008C0F6FF09C0F7FF0800FFFF93
:10141C00F550015E000E025A300E0124156E000EBE
:10142C000220166ECAD7FFFFD00E0A6EFF0E0B6E8F
:10143C0008C0F6FF09C0F7FF0800FFFFF5500C6E5F
:10144C000D6A0A500C260B500D220D5006E10A0EA7
:10145C000C5CD8B002D0010E02D0FFFF000EFFFFD3
:10146C00126E136A12501310D8A4C1D70E500F105D
:10147C00D8A40DD015C00AF016C00BF00A1E0B1E16
:10148C000A4A0B2A0AC008F00BC009F005D0FFFF6E
:10149C0015C008F016C009F0FFFF1200FFFFFFFF98
:1014AC00000E0001916F8FAF12D08F1F8E1F8D1FFA
:1014BC008C1F8B1F8A1F891F886D000E89238A231E
:1014CC008B238C238D238E238F23010E916FFFFF93
:1014DC0087AF12D0871F861F851F841F831F821F13
:1014EC00811F806D000E8123822383238423852317
:1014FC0086238723010E911BFFFF20EE92F0070E2F
:10150C00DE6AE806FDE2885189118A118B118C1173
:10151C008D118E118F11D8B44AD0010E906F0BD053
:10152C00FFFFD890883789378A378B378C378D37C0
:10153C008E378F37902BFFFF8FAFF2D7FFFFD890EE
:10154C00923793379437953796379737983799372B
:10155C008851805D895181598A5182598B518359A7
:10156C008C5184598D5185598E5186598F5187597B
:10157C00D8A011D08851805F8951815B8A51825BE0
:10158C008B51835B8C51845B8D51855B8E51865B5B
:10159C008F51875B9281FFFFD8908F338E338D33C1
:1015AC008C338B338A3389338833902FC7D7FFFF23
:1015BC009151D8B410D0991F981F971F961F951F43
:1015CC00941F931F926D000E9323942395239623BF
:1015DC00972398239923FFFF92C080F093C081F04A
:1015EC0094C082F095C083F096C084F097C085F0CB
:1015FC0098C086F099C087F01200FFFFFFFF000E25
:10160C00126E10AE12D0101E0F1E0E1E0D1E0C1ED2
:10161C000B1E0A1E096C000E0A220B220C220D2234
:10162C000E220F221022010E126EFFFF08AE12D0F6
:10163C00081E071E061E051E041E031E021E016C3C
:10164C00000E02220322042205220622072208226F
:10165C00010E121AFFFF20EE13F0070EDE6AE806E9
:10166C00FDE209500A100B100C100D100E100F108B
:10167C001010D8B44AD0010E116E0BD0FFFFD890C9
:10168C0009360A360B360C360D360E360F3610363A
:10169C00112AFFFF10AEF2D7FFFFD8901336143685
:1016AC00153616361736183619361A360950015CA7
:1016BC000A5002580B5003580C5004580D50055842
:1016CC000E5006580F50075810500858D8A011D07B
:1016DC000950015E0A50025A0B50035A0C50045A1E
:1016EC000D50055A0E50065A0F50075A1050085AF2
:1016FC001380FFFFD89010320F320E320D320C32A5
:10170C000B320A320932112EC7D7FFFF1250D8B450
:10171C0010D01A1E191E181E171E161E151E141E6A
:10172C00136C000E142215221622172218221922CD
:10173C001A22FFFF13C001F014C002F015C003F011
:10174C0016C004F017C005F018C006F019C007F059
:10175C001AC008F01200FFFFFFFF000E0001916F8E
:10176C0087AF12D0871F861F851F841F831F821F80
:10177C00811F806D000E8123822383238423852384
:10178C0086238723010E916FFFFF8FAF10D08F1F21
:10179C008E1F8D1F8C1F8B1F8A1F891F886D000E3B
:1017AC0089238A238B238C238D238E238F23FFFF66
:1017BC00885189118A118B118C118D118E118F11F9
:1017CC00D8B440D0010E906F0BD0FFFFD890883763
:1017DC0089378A378B378C378D378E378F37902BED
:1017EC00FFFF8FAFF2D7FFFF8851805D8951815980
:1017FC008A5182598B5183598C5184598D518559F9
:10180C008E5186598F518759D8A010D08851805F3E
:10181C008951815B8A51825B8B51835B8C51845BD8
:10182C008D51855B8E51865B8F51875BFFFFD89006
:10183C008F338E338D338C338B338A3389338833A8
:10184C00902FD1D7FFFF9151D8B410D0871F861F8E
:10185C00851F841F831F821F811F806D000E8123B3
:10186C00822383238423852386238723FFFF80C041
:10187C0080F081C081F082C082F083C083F084C08C
:10188C0084F085C085F086C086F087C087F0120092
:10189C00FFFFFFFF000E126E08AE12D0081E071ECF
:1018AC00061E051E041E031E021E016C000E0222E3
:1018BC00032204220522062207220822010E126EA0
:1018CC00FFFF10AE10D0101E0F1E0E1E0D1E0C1E94
:1018DC000B1E0A1E096C000E0A220B220C220D2272
:1018EC000E220F221022FFFF09500A100B100C10B1
:1018FC000D100E100F101010D8B440D0010E116E38
:10190C000BD0FFFFD89009360A360B360C360D3645
:10191C000E360F361036112AFFFF10AEF2D7FFFF2E
:10192C000950015C0A5002580B5003580C500458D3
:10193C000D5005580E5006580F50075810500858A7
:10194C00D8A010D00950015E0A50025A0B50035A0D
:10195C000C50045A0D50055A0E50065A0F50075A87
:10196C001050085AFFFFD89010320F320E320D3241
:10197C000C320B320A320932112ED1D7FFFF125022
:10198C00D8B410D0081E071E061E051E041E031E0A
:10199C00021E016C000E02220322042205220622E2
:1019AC0007220822FFFF01C001F002C002F003C0B1
:1019BC0003F004C004F005C005F006C006F007C033
:1019CC0007F008C008F01200FFFFFFFF0001826F54
:1019DC000F0E83160F0E95169594959695928394EB
:1019EC00839683920CEC15F0300EB3EC12F00F0EC4
:1019FC000001816F9D0EFFFFE82EFDD7812FFBD7D5
:101A0C0000D000F0300EB3EC12F0030E0001816F29
:101A1C00EB0EFFFFE82EFDD7812FFBD700D000F097
:101A2C00320EB3EC12F0FFFFEFEC14F00009D8A467
:101A3C00FAD7FFFFEFEC14F00009D8A4FAD7000195
:101A4C008251B3EC12F0FFFFEFEC14F00009D8A4B4
:101A5C00FAD7080EB3EC12F0FFFFEFEC14F000090C
:101A6C00D8A4FAD70F0EB3EC12F0FFFFEFEC14F082
:101A7C000009D8A4FAD7010EB3EC12F0FFFFEFEC7B
:101A8C0014F00009D8A4FAD7050EB3EC12F0FFFF3E
:101A9C00EFEC14F00009D8A4FAD7060EB3EC12F050
:101AAC00FFFFEFEC14F00009D8A4FAD7800E8EECEF
:101ABC0012F0FFFFEFEC14F00009D8A4FAD70D0ECA
:101ACC00B3EC12F01200FFFFFFFF000E0001ED6FF0
:101ADC00809A020E0001EC6F250EEB6F630EFFFF78
:101AEC00E82EFDD7EB2FFBD7EC2FF9D700F0C2EC8B
:101AFC0013F0C4EC10F0000E0001876F0A0E866F15
:101B0C00C1EC11F082B00DD04A0E0001EB6F180E33
:101B1C00FFFFE82EFDD7EB2FFBD700F082A015ECD2
:101B2C0008F0FFFF000E0001876F640E866FC1EC9A
:101B3C0011F0FFFF330E0001DB6F010EDC6F170E8F
:101B4C00DD6F060EDE6FEDEC11F0020E0001EC6F96
:101B5C00080EEB6F250EFFFFE82EFDD7EB2FFBD702
:101B6C00EC2FF9D700D000F00001ED2B310EED6514
:101B7C00E0D7330EDB6F010EDC6F390EDD6F060E16
:101B8C00DE6FEDEC11F0FFFF0001F605D8A402D0DA
:101B9C00808A02D0FFFF809AFFFFC45093EC0FF0B5
:101BAC00F2D7FFFF82C080F083C081F0FEEC14F00E
:101BBC0080C087F081C088F08480030E0001846FA0
:101BCC00EB0EFFFFE82EFDD7842FFBD700D000F0E3
:101BDC00000E00018B6FFFFF8BC084F087C085F077
:101BEC0088C086F0842B04D0FFFFD89086338533D1
:101BFC00FFFF842FF9D7010E00018515896F8A6BC1
:101C0C0089058A11D8A402D0848402D0FFFF849461
:101C1C00FFFF030E0001846FEB0EFFFFE82EFDD7D4
:101C2C00842FFBD700D000F08482030E0001846F58
:101C3C00EB0EFFFFE82EFDD7842FFBD700D000F072
:101C4C00849200018B2B0F0E8B65C5D7030E000100
:101C5C00846FEB0EFFFFE82EFDD7842FFBD700D04F
:101C6C0000F084901200FFFFFFFF0001F2A10AD0E8
:101C7C0092C089F093C08AF090C08BF091C08CF028
:101C8C00D7EC12F0FFFF000195BF05D094C099F07E
:101C9C0095C09AF005D0FFFF000E9A6F000E996F59
:101CAC00FFFF000E986F000E976F0ED0FFFF000E17
:101CBC00816F200E806F90C082F091C083F091EC08
:101CCC000EF00001974B982BFFFF9951975D98519F
:101CDC00800A966F9A51800A9659D8A0E7D7F2B12C
:101CEC000AD092C089F093C08AF090C08BF091C05A
:101CFC008CF0D7EC12F0FFFF92C080F093C081F013
:101D0C0054EC14F0000199518025906F9A51812167
:101D1C00916F1200FFFFFFFF000182518311D8B4B5
:101D2C0004D082518311D8A405D0FFFF805141EC1F
:101D3C0015F045D0FFFF20EE04F08251D9268351D7
:101D4C00DA22DE50DE10D8B416D020EE04F0825128
:101D5C00D9268351DA2210EE02F08251E12683510A
:101D6C00E222DE50E65CE650800A886FDE50800A84
:101D7C008859D8B024D0FFFF20EE02F08251D9262A
:101D8C008351DA22DECF84F0DDCF85F082C0D9FF1B
:101D9C0083C0DAFFDECF86F0DDCF87F08451862555
:101DAC00D96E85518721DA6E80C0DFFF20EE02F0FC
:101DBC008251D9268351DA22DE2A000EDD22FFFF62
:101DCC001200FFFFFFFF03500410D8B404D00350DF
:101DDC000410D8A405D0FFFF015044EC15F045D0F9
:101DEC00FFFF20EE04F00350D9260450DA22DE5017
:101DFC00DE10D8B416D020EE04F00350D9260450CF
:101E0C00DA2210EE02F00350E1260450E222DE50FA
:101E1C00E65CE650800A096EDE50800A0958D8B09C
:101E2C0024D0FFFF20EE02F00350D9260450DA2212
:101E3C00DECF05F0DDCF06F003C0D9FF04C0DAFF1A
:101E4C00DECF07F0DDCF08F005500724D96E065021
:101E5C000820DA6E01C0DFFF20EE02F00350D92615
:101E6C000450DA22DE2A000EDD22FFFF1200FFFFF3
:101E7C00FFFF0001F2A10AD013C00AF014C00BF04E
:101E8C0011C00CF012C00DF061EC13F0FFFF16BE88
:101E9C0005D015C01AF016C01BF005D0FFFF000EC0
:101EAC001B6E000E1A6EFFFF000E196E000E186EE0
:101EBC000DD0FFFF000E026E200E016E11C003F05C
:101ECC0012C004F0E8EC0EF0184A192AFFFF1A5061
:101EDC00185C1950800A176E1B50800A1758D8A02E
:101EEC00E8D70001F2B10AD013C00AF014C00BF00D
:101EFC0011C00CF012C00DF061EC13F0FFFF13C019
:101F0C0001F014C002F06FEC14F01A500124116EA1
:101F1C001B500220126E1200FFFFFFFF0001836FA7
:101F2C007F0E0001836502D0080E29D0FFFF3F0E03
:101F3C00836502D0070E23D0FFFF1F0E836502D0EE
:101F4C00060E1DD0FFFF0F0E836502D0050E17D0B5
:101F5C00FFFF070E836502D0040E11D0FFFF030EA6
:101F6C00836502D0030E0BD0FFFF010E836502D0F8
:101F7C00020E05D0FFFF8351D8B403D0010EFFFF32
:101F8C00F96FFFFFF9C080F0000E816F010E826FB8
:101F9C00802B04D0FFFF823582338133FFFF802FEB
:101FAC00F9D700018151816E1200FFFFFFFFF4C0D1
:101FBC0001F0F5C002F0000E046E0A0E036E91ECF7
:101FCC0011F001506E6EF4C001F0F5C002F0000E7D
:101FDC00046E0A0E036E41EC12F001506F6E220E6D
:101FEC005C6E010E5D6E050E5E6E060E5F6E6EC053
:101FFC0060F0616A6FC062F0636A18EC12F0000E58
:10200C003FEC13F0330E026E010E036E38EC14F03D
:10201C00400E3FEC13F0220E026E010E036E38ECF4
:10202C0014F01200FFFFFFFF0001846FF4C082F078
:10203C000001F551836F8451D8B405D0000E806F28
:10204C00825188EC14F0FFFF00018451D8B405D004
:10205C00010E806F835188EC14F0FFFF020E00011B
:10206C00806FFE5188EC14F0030E0001806FFD515F
:10207C0088EC14F0040E0001806FFC5188EC14F015
:10208C00050E0001806FFB5188EC14F0060E000168
:10209C00806FF65188EC14F01200FFFFFFFF056E05
:1020AC00F4C003F00001F551046E0550D8B405D00E
:1020BC00000E016E0350B5EC14F0FFFF0550D8B4C0
:1020CC0005D0010E016E0450B5EC14F0FFFF020EAA
:1020DC00016E0001FE51B5EC14F0030E016E00010F
:1020EC00FD51B5EC14F0040E016E0001FC51B5EC81
:1020FC0014F0050E016E0001FB51B5EC14F0060E48
:10210C00016E0001F651B5EC14F01200FFFFFFFF59
:10211C000001F72B090EF7652ED0000EF76FF82B88
:10212C003B0EF86528D0000EF86FFB2B000E54EC1C
:10213C0010F03B0E0001FB651ED0000EFB6FFC2B5C
:10214C00170EFC6518D0000EFC6FFD2B1D0EFD65E7
:10215C0003D0000EFD6FFE2BFFFF0D0EFD19D8A452
:10216C0006D0060EFE19D8A402D0000E02D0FFFF36
:10217C00010EFFFFF66FFFFF1200FFFFFFFF000EC7
:10218C0026EC15F00001836F010E26EC15F0000112
:10219C00846F000EF56F000EF46F835184C081F0D4
:1021AC00826B81C082F0816B8111F46F8251F56F6B
:1021BC00020E26EC15F00001FE6F030E26EC15F056
:1021CC000001FD6F040E26EC15F00001FC6F050EEE
:1021DC0026EC15F00001FB6F060E26EC15F0000145
:1021EC00F66F1200FFFF8E0EF66E2A0EF76E000EC3
:1021FC00F86E00EEFAF010EE05F00900F5CFEEFFE8
:10220C00E550E150FAE1930EF66E2A0EF76E000ED1
:10221C00F86E00EE7AF010EE04F00900F5CFEEFF48
:10222C00E550E150FAE101EE00F0440EEE6AE806EA
:10223C00FDE100EEEEF00C0EEE6AE806FDE17E6AC2
:10224C007F907F92000EF86E00016AEF0DF0FFFF99
:10225C00D5C0D9F0D6C0DAF0000E0101016F000E26
:10226C00006F18D0FFFFD3C0BFF0D4C0C0F0D90EA0
:10227C000001C16F000EC26FD7C0C3F0D8C0C4F04C
:10228C0026EC03F00001BF51010100270001C051F1
:10229C0001010123FFFFD9C0F6FFDAC0F7FF0800E8
:1022AC00FFFFF5500009D8A4DDD700C1D3F001C160
:1022BC00D4F01200FFFFFFFF56C05AF057C05BF07E
:1022CC00000E0101016F000E006F14D0FFFF54C00F
:1022DC0040F055C041F05A0E426E000E436E58C08D
:1022EC0044F059C045F069EC04F04050010100275E
:1022FC0041500123FFFF5AC0F6FF5BC0F7FF0800F7
:10230C00FFFFF5500009D8A4E1D700C154F001C17A
:10231C0055F01200FFFFFFFF000E066E000E056E5B
:10232C0003500410D8B420D0010E076E05D0FFFF67
:10233C00D89003360436072AFFFF04AEF8D7FFFF08
:10234C00D890053606360350015C04500258D8A0CC
:10235C0005D00350015E0450025A0580FFFFD8904F
:10236C0004320332072EEBD7FFFF05C001F006C085
:10237C0002F01200FFFFFFFF86C080F087C081F0E3
:10238C00000E0001836F050E826F9FEC14F080C06D
:10239C0086F081C087F000010FD0FFFF83804B0EC9
:1023AC00FFFFE82EFDD783904B0EFFFFE82EFDD7E5
:1023BC0000018607D8A08707FFFF87BF05D087518C
:1023CC00ECE18605D8B0E9D7FFFF1200FFFFFFFF55
:1023DC00DF0E0001E16F000EE26FDBC0E3F0DCC04A
:1023EC00E4F0000EE66F000EE56F000EE86F000ED5
:1023FC00E76FE30ED36F000ED46FDDC0D5F0DEC0F7
:10240C00D6F0E10ED76F000ED86F2DEC11F0000155
:10241C00E551DB25D96EE651DC21DA6E000EDF6E5C
:10242C001200FFFFFFFF600E666E000E676E5CC051
:10243C0068F05DC069F0000E6B6E000E6A6E000EE7
:10244C006D6E000E6C6E680E546E000E556E5EC096
:10245C0056F05FC057F0660E586E000E596E61EC68
:10246C0011F06A505C24D96E6B505D20DA6E000E50
:10247C00DF6E1200FFFFFFFF03500410D8B41CD016
:10248C00010E056E05D0FFFFD89003360436052AE1
:10249C00FFFF04AEF8D7FFFF0350015C0450025855
:1024AC00D8A004D00350015E0450025AFFFFD8900C
:1024BC0004320332052EEFD7FFFF01C001F002C03A
:1024CC0002F01200FFFFFFFF280EEBEC0CF0020EE7
:1024DC000001846F250E836F630EFFFFE82EFDD77E
:1024EC00832FFBD7842FF9D700F00D0EE0EC14F0FE
:1024FC00060EE0EC14F0930E0001836F310EFFFF1B
:10250C00E82EFDD7832FFBD700D000F01200FFFF81
:10251C00FFFF0001806F0F0E95160F0E8316000142
:10252C0080518009F00B83128394839631EC15F063
:10253C00838231EC15F083920F0E831600018039E3
:10254C00F00BF00B831231EC15F0838231EC15F0AB
:10255C008392F00E95121200FFFFFFFF0001806FB7
:10256C000F0E95160F0E831600018051F00B83127F
:10257C008394839631EC15F0838231EC15F08392C1
:10258C000F0E831600018039F00BF00B831231EC27
:10259C0015F0838231EC15F08392F00E9512120037
:1025AC00FFFFFFFF000E00018F6F000E8E6F0DD02E
:1025BC00FFFF8DC080F0816B8BC082F08CC083F0EC
:1025CC0091EC0EF000018E4B8F2BFFFF8E51892565
:1025DC00D96E8F518A21DA6EDF508D6F8D51D8B440
:1025EC001200FFFFE5D7FFFFFFFF010E0001866F12
:1025FC00200E80198111D8B414D0F70E826FFF0E03
:10260C00836F80C084F081C085F082518427835110
:10261C008523855104E1050E845DD8A002D0000EFF
:10262C00866FFFFF86C080F0816B1200FFFFFFFFFB
:10263C00010E076E200E01180210D8B414D0F70E3C
:10264C00036EFF0E046E01C005F002C006F00350CD
:10265C00052604500622065004E1050E055CD8A0A0
:10266C0002D0000E076EFFFF07C001F0026A1200D5
:10267C00FFFFFFFF016E0F0E95160F0E8316015014
:10268C008009F00B83128394839639EC15F08382C6
:10269C0039EC15F083920F0E83160138F00BF00B0A
:1026AC00831239EC15F0838239EC15F08392F00E1D
:1026BC0095121200FFFFFFFF000E106E000E0F6E42
:1026CC000CD0FFFF0EC001F0026A0CC003F00DC06D
:1026DC0004F0E8EC0EF00F4A102AFFFF0F500A240A
:1026EC00D96E10500B20DA6EDF500E6E0E50D8B42F
:1026FC001200FFFFE6D7FFFFFFFF016E0F0E9516CE
:10270C000F0E83160150F00B83128386839439ECE1
:10271C0015F0838239EC15F083920F0E8316013875
:10272C00F00BF00B831239EC15F0838239EC15F0B9
:10273C008392F00E95121200FFFFFFFF000193BF72
:10274C0005D0935111E19205D8B00ED0FFFF92C085
:10275C0094F093C095F0941F951F944B952B94C0B7
:10276C0092F095C093F005D0FFFF92C092F093C009
:10277C0093F0FFFF1200FFFFFFFF000ED36E600E01
:10278C00F26E030E9D6E1F0E926E000E936E946889
:10279C00000E956E080E966EB10ECD6E800ED56E37
:1027AC00C10EC26E4D0EC16E69EC12F0C284CD80AA
:1027BC00F28E1200FFFFFFFF14BE05D0145011E182
:1027CC001304D8B00ED0FFFF13C015F014C016F0D0
:1027DC00151E161E154A162A15C013F016C014F035
:1027EC0005D0FFFF13C013F014C014F0FFFF12004C
:1027FC00FFFFFFFFD00E0001826FFF0E836F80C0C2
:10280C0084F081C085F082518427835185238551C2
:10281C0006E10A0E845DD8B002D0010E02D0FFFF93
:10282C00000EFFFF806F816B1200FFFFFFFFD00EC9
:10283C00036EFF0E046E01C005F002C006F00350DB
:10284C00052604500622065006E10A0E055CD8B097
:10285C0002D0010E02D0FFFF000EFFFF016E026AD4
:10286C001200FFFFFFFF0FD0FFFF1AEC15F000095D
:10287C00D8A4FAD702C0D9FF03C0DAFFDF5082EC2C
:10288C0013F0024A032AFFFF02C0D9FF03C0DAFF8C
:10289C00DF50D8B41200FFFFE7D7FFFFFFFF80C067
:1028AC0082F081C083F004D0FFFF0001804B812BAC
:1028BC00FFFF80C0D9FF81C0DAFFDF50D8A4F4D766
:1028CC0000018251805D806F83518159816F1200AC
:1028DC00FFFFFFFF01C003F002C004F003D0FFFFB5
:1028EC00014A022AFFFF01C0D9FF02C0DAFFDF5004
:1028FC00D8A4F5D70350015C016E04500258026E47
:10290C001200FFFFFFFF0001816F80C0A9FF81C093
:10291C00A8FFA69EA69CA684F29E550EA76EAA0E94
:10292C00A76EA682F28EFFFFA1B81200FFFFFBD7A5
:10293C00FFFFFFFF000180518203F3CF84F0F4CF3F
:10294C0085F080518303F350852781518203F35026
:10295C00852784C080F085C081F01200FFFFFFFF47
:10296C00026E01C0A9FF02C0A8FFA69EA69CA68469
:10297C00F29E550EA76EAA0EA76EA682F28EFFFFD0
:10298C00A1B81200FFFFFBD7FFFFFFFF01500302AE
:10299C00F3CF05F0F4CF06F001500402F3500626F5
:1029AC0002500302F350062605C001F006C002F0E7
:1029BC001200FFFFFFFF0001816FFFFFEFEC14F02F
:1029CC000009D8A4FAD700018151B3EC12F012001F
:1029DC00FFFFFFFF0F0E0001806F9D0EFFFFE82E23
:1029EC00FDD7802FFBD700D000F0000E1200FFFFA8
:1029FC00FFFF000E00018011806F480E8111816F66
:102A0C0080C080F081C081F01200FFFFFFFF3B0E01
:102A1C000001806F790EFFFFE82EFDD7802FFBD7CA
:102A2C0000D000F01200FFFFFFFF0F0E016E9E0E94
:102A3C00FFFFE82EFDD7012EFBD7000E1200FFFF83
:102A4C00FFFF0001806F80C0A9FFA69EA69CA680F8
:102A5C00A8501200FFFFFFFF0D0EFFFFE82EFDD761
:102A6C0000D01200FFFFFFFF0D0EFFFFE82EFDD779
:102A7C0000D01200FFFFFFFF1200FFFFFFFF12004C
:0B2A8C00FFFF010F161303C5686D84E7
:022A9800FFFF3E
:020000040020DA
:08000000FFFFFFFFFFFFFFFF00
:020000040030CA
:0E000000FF220C0EFF0081FF0FC00FE00F402B
:0200000400F00A
:100000007E030000000001007E03000000000100EC
:100010007E030000000001007E03000000000100DC
:080020007E0300000000010056
:00000001FF
