:020000040000FA
:060000000A128A11122809
:10000800FE00030E83120313B9000408BA000A089D
:10001800BB007F08BC000A128A1593290A128A11AC
:10002800152883134D30FD001730FE00B530FF0052
:10003800443084000A128A15C2200A128A11A0309C
:100048008400C3300A168A11AD270A128A11CD011D
:10005800CE01CF01D001D101D20183010A128A1544
:100068004D2F83160313D900CB30CF004F08D20091
:10007800C42925305A060319422843284F285A080C
:10008800CF00590884004F08831380000130CF0047
:100098004F08D907C429D701D801D4014A088400D8
:1000A8000A128A1500200A128A110A128A15D1200A
:1000B8000A128A11031C61286228B02883160313C8
:1000C800D701D8010A3083120313BD000030BE00E7
:1000D80083160313580883120313C00083160313EF
:1000E800570883120313BF000A128A15B9210A128E
:1000F8008A11831203133E0883160313D800831250
:1001080003133D0883160313D7004A0884000A1214
:100118008A1500200A128A11D03ECF00FF3003183A
:100128000030D0004F08D7070318D80A5008D8075E
:100138000130CF004F08CA074A0884000A128A15FE
:1001480000200A128A110A128A15D1200A128A116D
:100158000318AF28B0286628013083160313CA078E
:10016800FF304A0784000A128A1500200A128A11F1
:10017800DA00CF00D0015008003A0319C428C42976
:100188004F08003A0319D629643A0319CF280D3AC3
:100198000319CF28C4295208840083130008D50006
:1001A800840A0008D6000230CF004F08D207D61FB5
:1001B800DE28DF28E8280330CF004F08D404D5090B
:1001C800D609D50A0319D60ADA01DA0A5A08CF007D
:1001D8004F07013E84000A128A1500200A128A116C
:1001E800D0000A128A1500200A128A11D10051087B
:1001F8005602031D01295008550203180429052930
:10020800062910290130CF004F08DA0705305A06B1
:10021800031D0F291029EA2857085804031915291E
:10022800162922295408033903191B291C292229B4
:10023800FF30D7070318D80AFF30D8075808803A84
:10024800803C031D292957085A0203182C292D29F7
:100258003929831603135A08CF00D0014F08D70253
:100268005008031CD803D8023D2983160313D7016D
:10027800D801570858040319422943295A2920301C
:10028800CF00590884004F08831380000130CF0045
:100298004F08D907FF30D7070318D80AFF30D80707
:1002A80057085804031D59295A2943295408033962
:1002B80003195F2960296B292D30CF005908840064
:1002C8004F08831380000130CF004F08D9075A0820
:1002D800CF004F08D300BB290A30C6000030C70042
:1002E8005308CF004F07013E84000A128A150020E8
:1002F8000A128A1183120313BD000A128A150020FC
:100308000A128A11BE0083160313560883120313B8
:10031800C00083160313550883120313BF000A1283
:100328008A15EE260A128A11831203133E088316D1
:100338000313C900831203133D0883160313C8006F
:100348000A128A150D230A128A1183160313460806
:10035800303ED0005008DA005A08CF00590884000F
:100368004F08831380000130CF004F08D907FF30B2
:10037800CF004F08D307530A031DC329C429702986
:100388000130CA07FF304A0784000A128A15002084
:100398000A128A11CF004F08DA005A08031DD5291E
:1003A800D6293D2859088400831380010800831248
:1003B8000313AD002130A5002508A8004A2B2530DD
:1003C80030060319E829E929F5293008A5002D0880
:1003D80084002508831380000130A5002508AD0797
:1003E8004A2BAE01AF01AA01200884000A128A151F
:1003F80000200A128A110A168A11EE270A128A1197
:10040800031C072A082A482A83120313AE01AF01E6
:100418000A30F0000030F100831203132F08F300B4
:100428002E08F2000A128A156E210A128A11710822
:1004380083120313AF007008AE00200884000A126C
:100448008A1500200A128A11D03EA500FF30031831
:100458000030A6002508AE070318AF0A2608AF0724
:100468000130A5002508A007200884000A128A1573
:1004780000200A128A110A168A11EE270A128A1116
:100488000318472A482A0C2A013083120313A007AD
:10049800FF30200784000A128A1500200A128A11E8
:1004A800B000A500A6012608003A03195C2A4A2BC9
:1004B8002508003A03195C2B643A0319672A0D3A98
:1004C8000319672A4A2B2808840083130008AB0005
:1004D800840A0008AC000230A5002508A807AC1F54
:1004E800762A772A802A0330A5002508AA04AB09B2
:1004F800AC09AB0A0319AC0AB001B00A3008A50070
:100508002507013E84000A128A1500200A128A1162
:10051800A6000A128A1500200A128A11A7002708C5
:100528002C02031D992A26082B0203189C2A9D2AAF
:100538009E2AA82A0130A5002508B00705303006F4
:10054800031DA72AA82A822A2E082F040319AD2AD8
:10055800AE2ABA2A2A0803390319B32AB42ABA2AAE
:10056800FF30AE070318AF0AFF30AF072F08803AF5
:10057800803C031DC12A2E0830020318C42AC52A4C
:10058800D12A831203133008A500A6012508AE025C
:100598002608031CAF03AF02D52A83120313AE014A
:1005A800AF012E082F040319DA2ADB2AF22A203099
:1005B800A5002D0884002508831380000130A500BC
:1005C8002508AD07FF30AE070318AF0AFF30AF07A5
:1005D8002E082F04031DF12AF22ADB2A2A080339E0
:1005E8000319F72AF82A032B2D30A5002D088400BB
:1005F8002508831380000130A5002508AD073008C1
:10060800A5002508A900412B0A30F8000030F900A0
:100618002908A5002507013E84000A128A15002032
:100628000A128A11F0000A128A1500200A128A1189
:10063800F1002C08F3002B08F2000A128A15C922CF
:100648000A128A117108FB007008FA000A128A154A
:100658008F220A128A117808303E83120313A600EB
:100668002608B0003008A5002D088400250883134B
:1006780080000130A5002508AD07FF30A50025083A
:10068800A907290A031D492B4A2B082B0130A0076B
:10069800FF30200784000A128A1500200A128A11E6
:1006A800A5002508B0003008031D5B2B5C2BE3294F
:1006B8002D08840083138001080083120313CE01E0
:1006C800CE0A433083160313DC005C08CA00B2303C
:1006D8000A128A1135200A128A1100300A128A1564
:1006E800DD240A128A11B2300A128A1508220A1267
:1006F8008A11C83083160313C3000030C4000A12DD
:100708008A158E240A128A1183120313051E8D2B53
:100718008E2B882B8519912B922BF22B04304502B6
:1007280038300319440203189A2B9B2BA12B013054
:10073800C4070318C50A0030C5070430450239301C
:1007480003194402031CA92BAA2BAE2B3830C40072
:100758000430C500643083160313C3000030C4009E
:100768000A128A158E240A128A11C33083160313BB
:10077800DD00CC30DC00DC0BBF2BDD0BBF2B000019
:10078800EC2B043045023830031944020318CD2BF2
:10079800CE2BD42B0130C4070318C50A0030C50777
:1007A80004304502393003194402031CDC2BDD2BCD
:1007B800E12B3830C4000430C500413083160313E0
:1007C800DD00ED30DC00DC0BE72BDD0BE72BEC2B41
:1007D80083120313851DF12BF22BC52B851AF52BDC
:1007E800F62B562C03304502713003194402031CC2
:1007F800FE2BFF2B052C0130C4020030031CC5035F
:10080800C5020330450270300319440203180D2C49
:100818000E2C122C7030C4000330C50064308316CF
:100828000313C3000030C4000A128A158E240A126A
:100838008A11C33083160313DD00CC30DC00DC0BD7
:10084800232CDD0B232C0000502C03304502713083
:1008580003194402031C312C322C382C0130C402F9
:100868000030031CC503C50203304502703003196C
:1008780044020318402C412C452C7030C40003302E
:10088800C500413083160313DD00ED30DC00DC0BBE
:100898004B2CDD0B4B2C502C83120313851E552C2F
:1008A800562C292C051A592C5A2C8E2B03308316BA
:1008B8000313DE008A30DD005530DC00DC0B622CCF
:1008C800DD0B622CDE0B622C83120313051A6D2CD0
:1008D8006E2C8E2B01300A128A15D9250A128A111C
:1008E800E83083160313C3000330C4000A128A15C4
:1008F8008E240A128A1183120313CE010A128A1156
:10090800CF270A128A11831203134508831603138B
:10091800C60083120313440883160313C5000A1282
:100928008A11CC250A128A1108008B138316031327
:10093800DE01031083120313871C03140318A52C6C
:10094800A92C831203138714AC2C8312031387106A
:10095800323083160313DB005B08CA00B2300A1278
:100968008A1135200A128A11983083160313DB0086
:100978005B08CA00A1300A128A1135200A128A11AE
:1009880000300A128A15DD240A128A11B2300A12BE
:100998008A1508220A128A1140300A128A15DD24A3
:1009A8000A128A11A1300A128A1508220A128A111B
:1009B800823083160313DC00DD30DB00DB0BE22C16
:1009C800DC0BE22C013083160313DB005B08DE0727
:1009D8000A305E02031CF12CF22C9D2C83120313A7
:1009E800871083160313DE01031083120313871D78
:1009F80003140318002D042D831203138715072DE4
:100A0800831203138711323083160313DB005B084C
:100A1800CA00B2300A128A1135200A128A115430DB
:100A280083160313DB005B08CA00A1300A128A117F
:100A380035200A128A1100300A128A15DD240A129A
:100A48008A11B2300A128A1508220A128A11403015
:100A58000A128A15DD240A128A11A1300A128A158F
:100A680008220A128A11823083160313DC00DD3053
:100A7800DB00DB0B3D2DDC0B3D2D01308316031312
:100A8800DB005B08DE0712305E02031C4C2D4D2D87
:100A9800F82C83120313871183160313DE01031046
:100AA80083120313071D031403185B2D5F2D831294
:100AB80003130715622D83120313071132308316AF
:100AC8000313DB005B08CA00B2300A128A11352012
:100AD8000A128A11763083160313DB005B08CA00FA
:100AE800A1300A128A1135200A128A1100300A121E
:100AF8008A15DD240A128A11B2300A128A150822D0
:100B08000A128A1140300A128A15DD240A128A1143
:100B1800A1300A128A1508220A128A118230831615
:100B28000313DC00DD30DB00DB0B982DDC0B982D8C
:100B3800013083160313DB005B08DE070F305E020B
:100B4800031CA72DA82D532D831203130711FA3068
:100B580083160313C3000030C4000A128A158E24BA
:100B68000A128A118B17033083160313DD008A30AB
:100B7800DC005530DB00DB0BBF2DDC0BBF2DDD0BA4
:100B8800BF2D831203138714871507158B170800C9
:100B980083120313071207108316031346088312E0
:100BA8000313BE0083160313450883120313BD0005
:100BB8000A168A11E1270A128A11831203133E08C2
:100BC80083160313CB00831203133D088316031304
:100BD800CA0083120313071387138716C7308316B7
:100BE8000313C700F72DC70BF62DFA2D8316031331
:100BF800A00110302002031C022E032E042E422EC8
:100C08004B08C8004A08C700200A0D2E0310C80C5C
:100C1800C70CFF3E031D0A2E01304705CC000030EB
:100C28004805CD00C73083160313C7001B2EC70B1A
:100C38001A2E1E2E831203130713831603134C0355
:100C48004D04031D282E292E2D2E831203138717DA
:100C5800302E831203138713C73083160313C7007C
:100C6800352EC70B342E382E831203130717013085
:100C780083160313C7004708A007FD2DC730831646
:100C88000313C700472EC70B462E4A2E83120313A1
:100C98008712143083160313C3000030C4000A12ED
:100CA8008A158E240A128A11033083160313C90089
:100CB8008A30C8005530C700C70B602EC80B602E9D
:100CC800C90B602E143083160313C3000030C40010
:100CD8000A128A158E240A128A1103308316031306
:100CE800C9008A30C8005530C700C70B792EC80B19
:100CF800792EC90B792E83160313A00164302002C4
:100D0800031C872E882E892E9A2E82308316031371
:100D1800C800DD30C700C70B8F2EC80B8F2E0130DF
:100D280083160313C7004708A007822E83120313F4
:100D38000714080083120313C3000F30C1004108D1
:100D480086050F30C1004108831603138605061176
:100D580086108611831203130611861086110A164F
:100D68008A11C8270A128A1130300A128A15F0230C
:100D78000A128A11073083120313C2007C30C100A3
:100D8800C10BC42EC20BC42E000030300A128A15C3
:100D9800F0230A128A11C73083120313C100D42E1C
:100DA800C10BD32ED72E32300A128A15F0230A121D
:100DB8008A110A168A11D4270A128A11003A031DC9
:100DC800E62EE72EDD2E0A168A11D4270A128A117A
:100DD800003A031DF02EF12EE72E83120313430869
:100DE8000A128A15F0230A128A110A168A11D427C0
:100DF8000A128A11003A031D022F032FF92E083018
:100E08000A128A15F0230A128A110A168A11D4279F
:100E18000A128A11003A031D122F132F092F0F30BF
:100E28000A128A15F0230A128A110A168A11D4277F
:100E38000A128A11003A031D222F232F192F01307D
:100E48000A128A15F0230A128A110A168A11D4275F
:100E58000A128A11003A031D322F332F292F053029
:100E68000A128A15F0230A128A110A168A11D4273F
:100E78000A128A11003A031D422F432F392F0630D8
:100E88000A128A15F0230A128A110A168A11D4271F
:100E98000A128A11003A031D522F532F492F80300E
:100EA8000A128A15DD240A128A110A168A11D42711
:100EB8000A128A11003A031D622F632F592F0D3031
:100EC8000A128A15F0230A128A11080000300A1241
:100ED8008A15DD240A128A1165300A128A15302211
:100EE8000A128A110A3083160313C6000030C7009D
:100EF80083120313450883160313C90083120313CF
:100F0800440883160313C8000A128A150D230A120F
:100F18008A11831603134608DB005B08E0000A30D9
:100F280083120313BD000030BE004508C00044080A
:100F3800BF000A128A15EE260A128A1183120313B9
:100F48003D0883160313DB005B08E1000F30DB006C
:100F58005B08CA006108DC00DD015C08CB005D08A5
:100F6800CC006008DE00DF015E08CD005F08CE001F
:100F7800A1300A128A1135200A128A1140300A1249
:100F88008A15DD240A128A11A1300A128A1508224C
:100F98000A128A110800213083160313DB005B084C
:100FA800CA00B2300A128A1135200A128A11873013
:100FB80083160313DB005B08CA00A1300A128A11EA
:100FC80035200A128A1100300A128A15DD240A1205
:100FD8008A11B2300A128A1508220A128A11403080
:100FE8000A128A15DD240A128A11A1300A128A15FA
:100FF80008220A128A11080008308A000408840AA4
:1010080082070034013400340A3400346434003474
:10101800E8340334103427340D34063401340034F2
:1010280046345234453451342E3420342034253457
:10103800333464342E342534643420344D34483405
:101048007A3400344C344F3443344B3449344E34BE
:1010580047342034203420342034203420342034C1
:10106800203420340034543445345334543449340F
:101078004E34473420342034203420342034203473
:10108800203420342034003453344534543420344C
:1010980020342034463452344534513455344534A0
:1010A8004E3443345934203400342034203420342E
:1010B80020342034543445344D345034453452347B
:1010C80041345434553452344534003441344D3469
:1010D800503452344F3420342034203420342034D7
:1010E8002034453458342D3446344D3400342034BB
:1010F8002034203420342034203420342034203448
:1011080020342034203420345334573452340034BB
:101118002034203420342034203420342034463401
:10112800523445345134553445344E3443345934AB
:101138000034203420342034203420342034203427
:1011480020342034203453345534503450344C3403
:0411580059340034D2
:10115E0083120313BD003D08831203178D008316FF
:10116E0003178C130C14831203170C0808007E0847
:10117E008A007F0882000A128A15BE200A128A157A
:10118E008000840A04087D0603190034FF0A03193F
:10119E00FE0AC22883120313BE00BD013A303E027E
:1011AE000318DA28DB28E32830303E02031CE0283F
:1011BE00E128E328BD01BD0A3D0C0800831203138C
:1011CE00C1000A168A11D4270A128A15003A031D85
:1011DE00F128F228E8288312031341080A128A150F
:1011EE00F0230A128A150800F10070088312031703
:1011FE008D0071088C00831603178C130C158B133E
:10120E0055308D00AA308D008C148B17831203136A
:10121E000D1E122913290D290800831203133D03F5
:10122E003E04031D1B291C2929290714071203300C
:10123E0083120313C0009730BF00BF0B2429C00BCD
:10124E0024292C29071007161E29080083120313C0
:10125E00BE003D08831203178D00831203133E0850
:10126E00831203178C00831603178C130C158B1324
:10127E0055308D00AA308D008C148B1783120313FA
:10128E000D1E4A294B2945290800F50065290A1625
:10129E008A11BE270A128A15003A031D57295829AA
:1012AE004E2975088400831300080A128A155523E7
:1012BE000A128A150130F4007408F50775088400C7
:1012CE0083130008031D6C296D294E290800F401B3
:1012DE00F501701C732974297A297208F407031812
:1012EE00F50A7308F50701300310F20DF30DFF3EFA
:1012FE00031D7B2901300310F10CF00CFF3E031D82
:10130E00822970087104031D8D298E297029750894
:10131E00F1007408F00008008B130C1C9729982913
:10132E00AD294B088F004C088E000130B8003808EC
:10133E00D2070A128A1583250A128A150A128A15ED
:10134E0031260A128A15831203130C108B173C08D0
:10135E00FF003B088A003A088400390E8300FE0E17
:10136E007E0E090083120313C101C2013D1CC02968
:10137E00C129C7293F08C1070318C20A4008C2077E
:10138E0001300310BF0DC00DFF3E031DC8290130F3
:10139E000310BE0CBD0CFF3E031DCF293D083E04BD
:1013AE00031DDA29DB29BD294208BE004108BD0014
:1013BE00080028300A128A119E260A128A158230D7
:1013CE0083160313C400DD30C300C30BEC29C40B1A
:1013DE00EC290D300A128A15E5200A128A150630FC
:1013EE000A128A15E5200A128A1541308316031354
:1013FE00C400ED30C300C30B022AC40B022A072A15
:10140E00080083120313C200272A0A168A11D42752
:10141E000A128A15003A031D152A162A0C2A83125F
:10142E00031342088400831300080A128A153F240E
:10143E000A128A15013083120313C1004108C20734
:10144E004208840083130008031D2E2A2F2A0C2A1B
:10145E00080083120313C200522A0A168A11D427D7
:10146E000A128A15003A031D3D2A3E2A342A831297
:10147E000313420884000A128A1500200A128A15E4
:10148E000A128A153F240A128A1501308312031399
:10149E00C1004108C207420884000A128A150020C2
:1014AE000A128A15003A031D5D2A5E2A342A0800A4
:1014BE0040308B000130831603138C0038308500CA
:1014CE008601870183120313850186010E30870082
:1014DE00113090009F01831603139F01831603178B
:1014EE008801890183120313071007160A128A1541
:1014FE00E0210A128A158312031310148B17003081
:10150E00BD00BE000A128A1514210A128A1508009F
:10151E00780879040319942A952AC42AFD01FD0A34
:10152E00A32A01300310F80DF90DFF3E031D992A71
:10153E000130FC007C08FD07F91FA62AA72A982A6D
:10154E0079087B02031DAD2A78087A02031CB02AA3
:10155E00B12AB72A7808FA027908031CFB03FB02AA
:10156E0001300310F90CF80CFF3E031DB82A0130B0
:10157E00FD02031DC32AC42AA72A7B08F9007A0894
:10158E00F8000800F501F601700871040319D02A5D
:10159E00D12A082BF701F70ADF2A01300310F00DCC
:1015AE00F10DFF3E031DD52A0130F4007408F70734
:1015BE00F11FE22AE32AD42A01300310F50DF60DAD
:1015CE00FF3E031DE42A71087302031DF02A700802
:1015DE007202031CF32AF42AFB2A7008F202710825
:1015EE00031CF303F302751401300310F10CF00C1D
:1015FE00FF3E031DFC2A0130F702031D072B082BAB
:10160E00E32A7608F1007508F0000800831603132C
:10161E00460847040319142B152B4E2B8312031364
:10162E00C301C30A272B01300310C60DC70DFF3EA1
:10163E00031D1B2B013083120313C2004208C30784
:10164E0083160313C71F2C2B2D2B1A2B8316031354
:10165E0047084902031D352B46084802031C382B48
:10166E00392B3F2B4608C8024708031CC903C90281
:10167E0001300310C70CC60CFF3E031D402B01307A
:10168E0083120313C302031D4D2B4E2B2D2B8316DA
:10169E0003134908C7004808C6000800F3000F30BE
:1016AE00F10071088316031386050F30F1007108DF
:1016BE008312031386057308F039F100710886044E
:1016CE00861406110A168A11A0270A128A15831289
:1016DE00031386150A168A11A0270A128A15831279
:1016EE00031386110F30F100710886057308F1009F
:1016FE0003300310F10DFF3E031D802B0310710DFF
:10170E00F039F200720886040A168A11A0270A120E
:10171E008A158312031386150A168A11A0270A1238
:10172E008A15831203138611F030F10071088316A7
:10173E00031386040800F3000F30F10071088316BE
:10174E00031386050F30F10071088312031386050B
:10175E0073088038F039F10071088604061186107E
:10176E000A168A11A0270A128A15831203138615E8
:10177E000A168A11A0270A128A15831203138611DC
:10178E000F30F100710886057308F1000330031065
:10179E00F10DFF3E031DCE2B0310710DF039F2003B
:1017AE00720886040A168A11A0270A128A15831255
:1017BE00031386150A168A11A0270A128A15831298
:1017CE0003138611F030F10071088316031386049B
:1017DE00080083120313C0000F30BE003E088316AC
:1017EE00031386050F3083120313BE003E088605D1
:1017FE004008F039BE003E088604061186100A160F
:10180E008A11A6270A128A158312031386150A1641
:10181E008A11A6270A128A158312031386110F3016
:10182E00BE003E0886054008BE0003300310BE0D04
:10183E00FF3E031D1D2C03103E0DF039BF003F0867
:10184E0086040A168A11A6270A128A158312031312
:10185E0086150A168A11A6270A128A1583120313F1
:10186E008611F030BE003E0883160313860408006E
:10187E0083120313C0000F30BE003E0883160313FD
:10188E0086050F3083120313BE003E0886054008FE
:10189E00F039BE003E088604861406110A168A1117
:1018AE00A6270A128A158312031386150A168A11A1
:1018BE00A6270A128A158312031386110F30BE0053
:1018CE003E0886054008BE0003300310BE0DFF3EE5
:1018DE00031D6C2C03103E0DF039BF003F0886042B
:1018EE000A168A11A6270A128A1583120313861561
:1018FE000A168A11A6270A128A1583120313861155
:10190E00F030BE003E08831603138604080005302F
:10191E0083120313BD000030BE0083160313440868
:10192E0083120313C0008316031343088312031399
:10193E00BF000A128A15B9210A128A1583120313DF
:10194E003E0883160313C400831203133D08831647
:10195E000313C3004408803AFF0080307F02031D4A
:10196E00BA2C013043020318BD2CBE2CBF2CDC2C2C
:10197E00831203130614203083120313C300C30B08
:10198E00C62C00008312031306102030831203139B
:10199E00C300C30BD02C0000FF3083160313C30704
:1019AE000318C40AFF30C407B12C080083120313B6
:1019BE00C0000F30BE003E088316031386050F309D
:1019CE0083120313BE003E08860540088038F039A6
:1019DE00BE003E088604061186100A168A11A62736
:1019EE000A128A158312031386150A168A11A62760
:1019FE000A128A158312031386110F30BE003E0899
:101A0E0086054008BE0003300310BE0DFF3E031DC9
:101A1E000B2D03103E0DF039BF003F0886040A1649
:101A2E008A11A6270A128A158312031386150A161F
:101A3E008A11A6270A128A15831203138611F03013
:101A4E00BE003E0883160313860408008312031398
:101A5E004408F2007208F3004508F2007208F40020
:101A6E00F00173080A128A15FB200A128A15F0017A
:101A7E00F00A74080A128A15FB200A128A1502301F
:101A8E00F2007208F000831203134A080A128A1534
:101A9E00FB200A128A150330F2007208F00083123E
:101AAE00031349080A128A15FB200A128A150430FC
:101ABE00F2007208F0008312031348080A128A1506
:101ACE00FB200A128A150530F2007208F00083120C
:101ADE00031347080A128A15FB200A128A150630CC
:101AEE00F2007208F000831203134F080A128A15CF
:101AFE00FB200A128A1508000130F50075088312C2
:101B0E000313D0070A305002031C8E2D8F2DD82DB3
:101B1E00D0010130F5007508D1073C305102031C8D
:101B2E00992D9A2DD82DD1010130F5007508C707D2
:101B3E003C304702031CA42DA52DD82DC701013022
:101B4E00F5007508C80700300A128A152D250A12ED
:101B5E008A151830831203134802031CB72DB82DB3
:101B6E00D82DC8010130F5007508C9071E3049028D
:101B7E00031CC22DC32DC82DC9010130F5007508F7
:101B8E00CA070D304906031DCD2DCE2DD62D06309C
:101B9E004A06031DD32DD42DD62DCF01D82DCF011E
:101BAE00CF0A0800831203134408BF003F08C00089
:101BBE004508BF003F08C100BD0140080A128A1542
:101BCE002D210A128A1583120313BD01BD0A410885
:101BDE000A128A152D210A128A1502308312031356
:101BEE00BF003F08BD004A080A128A152D210A12AD
:101BFE008A15033083120313BF003F08BD00490846
:101C0E000A128A152D210A128A1504308312031323
:101C1E00BF003F08BD0048080A128A152D210A127E
:101C2E008A15053083120313BF003F08BD00470815
:101C3E000A128A152D210A128A15063083120313F1
:101C4E00BF003F08BD004F080A128A152D210A1247
:101C5E008A150800831203134E080319372E382EE7
:101C6E008E2E0A30F8000030F9004508FB004408BB
:101C7E00FA000A128A158F220A128A157808831220
:101C8E000313B1003108B6000A30F0000030F10045
:101C9E004508F3004408F2000A128A15C9220A12F6
:101CAE008A15700883120313B1003108B7000F3084
:101CBE00B1003108A0003708B200B3013208A1000C
:101CCE003308A2003608B400B5013408A300350865
:101CDE00A400A1300A128A11DB210A128A154030A3
:101CEE000A128A15A2230A128A15A1300A128A151F
:101CFE004C210A128A1500300A128A15A2230A12E2
:101D0E008A15B2300A128A154C210A128A15080059
:101D1E0000300A128A15AF200A128A158312031395
:101D2E00BE003E08C20001300A128A15AF200A1208
:101D3E008A1583120313BE003E08C300C401C501F9
:101D4E004208BE00BF014308C000C1014008C100E7
:101D5E00C0013E084004C4003F084104C5000230E3
:101D6E000A128A15AF200A128A1583120313BE00B7
:101D7E003E08CA0003300A128A15AF200A128A15CD
:101D8E0083120313BE003E08C90004300A128A15DE
:101D9E00AF200A128A1583120313BE003E08C80034
:101DAE0005300A128A15AF200A128A158312031300
:101DBE00BE003E08C70006300A128A15AF200A126E
:101DCE008A1583120313BE003E08CF000800831647
:101DDE000313C401C501831203133D083E04031906
:101DEE00F92EFA2E402F83160313C301C30A0C2FAC
:101DFE0001300310BD0DBE0DFF3E031D002F01303F
:101E0E00C100410883160313C30783120313BE1FB9
:101E1E00112F122FFF2E0130831603130310C40D42
:101E2E00C50DFF3E031D152F831203133E084002FE
:101E3E00031D232F3D083F02031C262F272F302F73
:101E4E003D08BF023E08031CC003C00283160313E5
:101E5E004414013083120310BE0CBD0CFF3E031D53
:101E6E00322F013083160313C302031D3F2F402F61
:101E7E00122F83160313450883120313BE00831615
:101E8E000313440883120313BD0008008230831627
:101E9E000313E300DD30E200E20B532FE30B532F6D
:101EAE000A128A155F220A128A15823083160313CC
:101EBE00E300DD30E200E20B622FE30B622F6430B1
:101ECE0083160313C3000030C4000A128A158E2431
:101EDE000A128A150A128A158F260A128A150A30D4
:101EEE0083160313C3000030C4000A128A158E2411
:101EFE000A128A1583120313051A862F872F9D2F18
:101F0E00213083160313E3007530E200E20B8D2FB0
:101F1E00E30B8D2F922F83120313051A972F982FF1
:101F2E009D2F0A128A1161230A128A150A128A112A
:101F3E0099240A128A150A128A11CF270A128A15B3
:101F4E0083120313450883160313C600831203136B
:101F5E00440883160313C5000A128A11CC250A12EF
:101F6E008A150A128A116A270A128A158312031316
:101F7E00051AC22FC32FBD2F033083160313E4009F
:101F8E008A30E3005530E200E20BCB2FE30BCB2F70
:101F9E00E40BCB2F83160313A0010A302002031C7F
:101FAE00D92FDA2FDB2FEC2F823083160313E300A9
:101FBE00DD30E200E20BE12FE30BE12F013083165F
:101FCE000313E2006208A007D42F83120313051A2D
:101FDE00F12FF22FBD2F0A128A1161230A128A15D0
:101FEE000A128A116A270A128A15BD2F0A128A113D
:021FFE001228A7
:102F40000530F000F00BA22FA52F080005308312EA
:102F50000313BD00BD0BAA2F080064008001840A82
:102F60000406031900340406AE2F6F340034013414
:102F70000F341634133403343C34B0340730F100CA
:102F80007D30F000F00BC22FF10BC22F0030080093
:102F90001A3083120313BE00F730BD00BD0BCE2FD5
:102FA000BE0BCE2FD32F0800073083120313BE00B1
:102FB0007C30BD00BD0BDA2FBE0BDA2F00000030D5
:102FC00008000030831203133D04BF0048303E0464
:102FD000C0004008BE003F08BD000800F100F0013D
:102FE0003A3071020318F52FF62FFE2F30307102A0
:102FF000031CFB2FFC2FFE2FF001F00A700C0800C1
:04400E0031E0FFFF9F
:10420000D3000300000000000000000001000000D7
:10421000D3000300000000000000000001000000C7
:10422000D3000300000000000000000001000000B7
:10423000D3000300000000000000000001000000A7
:10424000D300030000000000000000000100000097
:00000001FF
